{
  "_format": "hh-sol-artifact-1",
  "contractName": "JonesHedgingV3Strategy",
  "sourceName": "contracts/VaultsV3/JonesHedgingV3Strategy.sol",
  "abi": [
    {
      "inputs": [
        {
          "internalType": "bytes32",
          "name": "_name",
          "type": "bytes32"
        },
        {
          "internalType": "address",
          "name": "_asset",
          "type": "address"
        },
        {
          "internalType": "address",
          "name": "_governor",
          "type": "address"
        },
        {
          "internalType": "address[]",
          "name": "_whitelistedTokens",
          "type": "address[]"
        }
      ],
      "stateMutability": "nonpayable",
      "type": "constructor"
    },
    {
      "inputs": [],
      "name": "ADDRESS_CANNOT_BE_ZERO_ADDRESS",
      "type": "error"
    },
    {
      "inputs": [],
      "name": "BORROW_AMOUNT_ZERO",
      "type": "error"
    },
    {
      "inputs": [],
      "name": "INVALID_AMOUNT",
      "type": "error"
    },
    {
      "inputs": [],
      "name": "INVALID_INDEX",
      "type": "error"
    },
    {
      "inputs": [],
      "name": "INVALID_INPUT_TOKEN",
      "type": "error"
    },
    {
      "inputs": [],
      "name": "MANAGEMENT_WINDOW_NOT_OPEN",
      "type": "error"
    },
    {
      "inputs": [],
      "name": "MSG_SENDER_DOES_NOT_HAVE_PERMISSION_TO_EMERGENCY_WITHDRAW",
      "type": "error"
    },
    {
      "inputs": [],
      "name": "NOT_ENOUGH_AVAILABLE_ASSETS",
      "type": "error"
    },
    {
      "inputs": [],
      "name": "STRATEGY_STILL_HAS_ASSET_BALANCE",
      "type": "error"
    },
    {
      "inputs": [],
      "name": "TOKEN_NOT_WHITELISTED",
      "type": "error"
    },
    {
      "inputs": [],
      "name": "VAULT_ALREADY_ATTACHED",
      "type": "error"
    },
    {
      "inputs": [],
      "name": "VAULT_NOT_ATTACHED",
      "type": "error"
    },
    {
      "anonymous": false,
      "inputs": [
        {
          "indexed": true,
          "internalType": "address",
          "name": "strategist",
          "type": "address"
        },
        {
          "indexed": false,
          "internalType": "uint256",
          "name": "amount",
          "type": "uint256"
        },
        {
          "indexed": true,
          "internalType": "address",
          "name": "vault",
          "type": "address"
        },
        {
          "indexed": true,
          "internalType": "address",
          "name": "asset",
          "type": "address"
        }
      ],
      "name": "Borrow",
      "type": "event"
    },
    {
      "anonymous": false,
      "inputs": [
        {
          "indexed": true,
          "internalType": "address",
          "name": "governor",
          "type": "address"
        }
      ],
      "name": "FundsMigrated",
      "type": "event"
    },
    {
      "anonymous": false,
      "inputs": [
        {
          "indexed": true,
          "internalType": "address",
          "name": "strategist",
          "type": "address"
        },
        {
          "indexed": false,
          "internalType": "uint256",
          "name": "amount",
          "type": "uint256"
        },
        {
          "indexed": true,
          "internalType": "address",
          "name": "vault",
          "type": "address"
        },
        {
          "indexed": true,
          "internalType": "address",
          "name": "asset",
          "type": "address"
        }
      ],
      "name": "Repay",
      "type": "event"
    },
    {
      "anonymous": false,
      "inputs": [
        {
          "indexed": true,
          "internalType": "bytes32",
          "name": "role",
          "type": "bytes32"
        },
        {
          "indexed": true,
          "internalType": "bytes32",
          "name": "previousAdminRole",
          "type": "bytes32"
        },
        {
          "indexed": true,
          "internalType": "bytes32",
          "name": "newAdminRole",
          "type": "bytes32"
        }
      ],
      "name": "RoleAdminChanged",
      "type": "event"
    },
    {
      "anonymous": false,
      "inputs": [
        {
          "indexed": true,
          "internalType": "bytes32",
          "name": "role",
          "type": "bytes32"
        },
        {
          "indexed": true,
          "internalType": "address",
          "name": "account",
          "type": "address"
        },
        {
          "indexed": true,
          "internalType": "address",
          "name": "sender",
          "type": "address"
        }
      ],
      "name": "RoleGranted",
      "type": "event"
    },
    {
      "anonymous": false,
      "inputs": [
        {
          "indexed": true,
          "internalType": "bytes32",
          "name": "role",
          "type": "bytes32"
        },
        {
          "indexed": true,
          "internalType": "address",
          "name": "account",
          "type": "address"
        },
        {
          "indexed": true,
          "internalType": "address",
          "name": "sender",
          "type": "address"
        }
      ],
      "name": "RoleRevoked",
      "type": "event"
    },
    {
      "anonymous": false,
      "inputs": [
        {
          "indexed": true,
          "internalType": "address",
          "name": "_keeper",
          "type": "address"
        },
        {
          "indexed": true,
          "internalType": "address",
          "name": "_farm",
          "type": "address"
        },
        {
          "indexed": true,
          "internalType": "address",
          "name": "_token",
          "type": "address"
        },
        {
          "indexed": false,
          "internalType": "uint256",
          "name": "_amount",
          "type": "uint256"
        }
      ],
      "name": "Stake",
      "type": "event"
    },
    {
      "anonymous": false,
      "inputs": [
        {
          "indexed": true,
          "internalType": "address",
          "name": "_keeper",
          "type": "address"
        },
        {
          "indexed": true,
          "internalType": "address",
          "name": "_farm",
          "type": "address"
        },
        {
          "indexed": true,
          "internalType": "address",
          "name": "_token",
          "type": "address"
        },
        {
          "indexed": false,
          "internalType": "uint256",
          "name": "_amount",
          "type": "uint256"
        },
        {
          "indexed": false,
          "internalType": "bool",
          "name": "_claimRewards",
          "type": "bool"
        }
      ],
      "name": "Unstake",
      "type": "event"
    },
    {
      "anonymous": false,
      "inputs": [
        {
          "indexed": true,
          "internalType": "address",
          "name": "governor",
          "type": "address"
        },
        {
          "indexed": true,
          "internalType": "address",
          "name": "vault",
          "type": "address"
        }
      ],
      "name": "VaultDetached",
      "type": "event"
    },
    {
      "anonymous": false,
      "inputs": [
        {
          "indexed": true,
          "internalType": "address",
          "name": "governor",
          "type": "address"
        },
        {
          "indexed": true,
          "internalType": "address",
          "name": "vault",
          "type": "address"
        }
      ],
      "name": "VaultSet",
      "type": "event"
    },
    {
      "inputs": [],
      "name": "DEFAULT_ADMIN_ROLE",
      "outputs": [
        {
          "internalType": "bytes32",
          "name": "",
          "type": "bytes32"
        }
      ],
      "stateMutability": "view",
      "type": "function"
    },
    {
      "inputs": [],
      "name": "GMXOrderBook",
      "outputs": [
        {
          "internalType": "address",
          "name": "",
          "type": "address"
        }
      ],
      "stateMutability": "view",
      "type": "function"
    },
    {
      "inputs": [],
      "name": "GMXPositionManager",
      "outputs": [
        {
          "internalType": "address",
          "name": "",
          "type": "address"
        }
      ],
      "stateMutability": "view",
      "type": "function"
    },
    {
      "inputs": [],
      "name": "GMXRouter",
      "outputs": [
        {
          "internalType": "contract IGMXRouter",
          "name": "",
          "type": "address"
        }
      ],
      "stateMutability": "view",
      "type": "function"
    },
    {
      "inputs": [],
      "name": "GOVERNOR",
      "outputs": [
        {
          "internalType": "bytes32",
          "name": "",
          "type": "bytes32"
        }
      ],
      "stateMutability": "view",
      "type": "function"
    },
    {
      "inputs": [],
      "name": "KEEPER",
      "outputs": [
        {
          "internalType": "bytes32",
          "name": "",
          "type": "bytes32"
        }
      ],
      "stateMutability": "view",
      "type": "function"
    },
    {
      "inputs": [],
      "name": "USDC",
      "outputs": [
        {
          "internalType": "address",
          "name": "",
          "type": "address"
        }
      ],
      "stateMutability": "view",
      "type": "function"
    },
    {
      "inputs": [
        {
          "internalType": "uint8",
          "name": "_farmIndex",
          "type": "uint8"
        },
        {
          "internalType": "uint256",
          "name": "_amountEthDesired",
          "type": "uint256"
        },
        {
          "internalType": "uint256",
          "name": "_tokenAmountDesired",
          "type": "uint256"
        },
        {
          "internalType": "uint256",
          "name": "_amountEthMin",
          "type": "uint256"
        },
        {
          "internalType": "uint256",
          "name": "_tokenMin",
          "type": "uint256"
        }
      ],
      "name": "addETHLiquidityPair",
      "outputs": [
        {
          "internalType": "uint256",
          "name": "_amountWETH",
          "type": "uint256"
        },
        {
          "internalType": "uint256",
          "name": "_amountTokens",
          "type": "uint256"
        },
        {
          "internalType": "uint256",
          "name": "_liquidity",
          "type": "uint256"
        }
      ],
      "stateMutability": "nonpayable",
      "type": "function"
    },
    {
      "inputs": [],
      "name": "asset",
      "outputs": [
        {
          "internalType": "address",
          "name": "",
          "type": "address"
        }
      ],
      "stateMutability": "view",
      "type": "function"
    },
    {
      "inputs": [
        {
          "internalType": "uint256",
          "name": "_amount",
          "type": "uint256"
        }
      ],
      "name": "borrow",
      "outputs": [],
      "stateMutability": "nonpayable",
      "type": "function"
    },
    {
      "inputs": [
        {
          "internalType": "bool",
          "name": "_isIncreaseOrder",
          "type": "bool"
        },
        {
          "internalType": "uint256",
          "name": "_orderIndex",
          "type": "uint256"
        }
      ],
      "name": "cancelGMXOrder",
      "outputs": [],
      "stateMutability": "nonpayable",
      "type": "function"
    },
    {
      "inputs": [
        {
          "internalType": "uint8",
          "name": "_farmIndex",
          "type": "uint8"
        },
        {
          "internalType": "uint256",
          "name": "_rewardsTokenID",
          "type": "uint256"
        }
      ],
      "name": "claimDopexFarmingRewardTokens",
      "outputs": [],
      "stateMutability": "nonpayable",
      "type": "function"
    },
    {
      "inputs": [
        {
          "internalType": "address",
          "name": "_indexToken",
          "type": "address"
        },
        {
          "internalType": "uint256",
          "name": "_sizeDelta",
          "type": "uint256"
        },
        {
          "internalType": "address",
          "name": "_collateralToken",
          "type": "address"
        },
        {
          "internalType": "uint256",
          "name": "_collateralDelta",
          "type": "uint256"
        },
        {
          "internalType": "bool",
          "name": "_isLong",
          "type": "bool"
        },
        {
          "internalType": "uint256",
          "name": "_triggerPrice",
          "type": "uint256"
        },
        {
          "internalType": "bool",
          "name": "_triggerAboveThreshold",
          "type": "bool"
        }
      ],
      "name": "createGMXDecreaseOrder",
      "outputs": [],
      "stateMutability": "payable",
      "type": "function"
    },
    {
      "inputs": [
        {
          "internalType": "address",
          "name": "_tokenIn",
          "type": "address"
        },
        {
          "internalType": "address",
          "name": "_purchaseToken",
          "type": "address"
        },
        {
          "internalType": "uint256",
          "name": "_amountIn",
          "type": "uint256"
        },
        {
          "internalType": "address",
          "name": "_indexToken",
          "type": "address"
        },
        {
          "internalType": "uint256",
          "name": "_minOut",
          "type": "uint256"
        },
        {
          "internalType": "uint256",
          "name": "_sizeDelta",
          "type": "uint256"
        },
        {
          "internalType": "address",
          "name": "_collateralToken",
          "type": "address"
        },
        {
          "internalType": "bool",
          "name": "_isLong",
          "type": "bool"
        },
        {
          "internalType": "uint256",
          "name": "_triggerPrice",
          "type": "uint256"
        },
        {
          "internalType": "bool",
          "name": "_triggerAboveThreshold",
          "type": "bool"
        }
      ],
      "name": "createGMXIncreaseOrder",
      "outputs": [],
      "stateMutability": "payable",
      "type": "function"
    },
    {
      "inputs": [
        {
          "internalType": "address",
          "name": "_collateralToken",
          "type": "address"
        },
        {
          "internalType": "address",
          "name": "_indexToken",
          "type": "address"
        },
        {
          "internalType": "uint256",
          "name": "_collateralDelta",
          "type": "uint256"
        },
        {
          "internalType": "uint256",
          "name": "_sizeDelta",
          "type": "uint256"
        },
        {
          "internalType": "uint256",
          "name": "_price",
          "type": "uint256"
        },
        {
          "internalType": "bool",
          "name": "_isLong",
          "type": "bool"
        }
      ],
      "name": "decreasePosition",
      "outputs": [
        {
          "internalType": "bool",
          "name": "",
          "type": "bool"
        }
      ],
      "stateMutability": "nonpayable",
      "type": "function"
    },
    {
      "inputs": [],
      "name": "detach",
      "outputs": [],
      "stateMutability": "nonpayable",
      "type": "function"
    },
    {
      "inputs": [
        {
          "internalType": "uint256",
          "name": "",
          "type": "uint256"
        }
      ],
      "name": "farmInfo",
      "outputs": [
        {
          "internalType": "contract IDPXSingleStaking",
          "name": "farm",
          "type": "address"
        },
        {
          "internalType": "contract IERC20",
          "name": "underlyingToken",
          "type": "address"
        },
        {
          "internalType": "contract IERC20",
          "name": "stakingToken",
          "type": "address"
        }
      ],
      "stateMutability": "view",
      "type": "function"
    },
    {
      "inputs": [
        {
          "internalType": "bytes32",
          "name": "role",
          "type": "bytes32"
        }
      ],
      "name": "getRoleAdmin",
      "outputs": [
        {
          "internalType": "bytes32",
          "name": "",
          "type": "bytes32"
        }
      ],
      "stateMutability": "view",
      "type": "function"
    },
    {
      "inputs": [],
      "name": "getUnused",
      "outputs": [
        {
          "internalType": "uint256",
          "name": "",
          "type": "uint256"
        }
      ],
      "stateMutability": "view",
      "type": "function"
    },
    {
      "inputs": [],
      "name": "getVault",
      "outputs": [
        {
          "internalType": "address",
          "name": "",
          "type": "address"
        }
      ],
      "stateMutability": "view",
      "type": "function"
    },
    {
      "inputs": [
        {
          "internalType": "address",
          "name": "_to",
          "type": "address"
        }
      ],
      "name": "grantKeeperRole",
      "outputs": [],
      "stateMutability": "nonpayable",
      "type": "function"
    },
    {
      "inputs": [
        {
          "internalType": "bytes32",
          "name": "role",
          "type": "bytes32"
        },
        {
          "internalType": "address",
          "name": "account",
          "type": "address"
        }
      ],
      "name": "grantRole",
      "outputs": [],
      "stateMutability": "nonpayable",
      "type": "function"
    },
    {
      "inputs": [
        {
          "internalType": "bytes32",
          "name": "role",
          "type": "bytes32"
        },
        {
          "internalType": "address",
          "name": "account",
          "type": "address"
        }
      ],
      "name": "hasRole",
      "outputs": [
        {
          "internalType": "bool",
          "name": "",
          "type": "bool"
        }
      ],
      "stateMutability": "view",
      "type": "function"
    },
    {
      "inputs": [
        {
          "internalType": "address",
          "name": "_tokenIn",
          "type": "address"
        },
        {
          "internalType": "address",
          "name": "_collateralToken",
          "type": "address"
        },
        {
          "internalType": "address",
          "name": "_indexToken",
          "type": "address"
        },
        {
          "internalType": "uint256",
          "name": "_amountIn",
          "type": "uint256"
        },
        {
          "internalType": "uint256",
          "name": "_minOut",
          "type": "uint256"
        },
        {
          "internalType": "uint256",
          "name": "_sizeDelta",
          "type": "uint256"
        },
        {
          "internalType": "uint256",
          "name": "_price",
          "type": "uint256"
        },
        {
          "internalType": "bool",
          "name": "_isLong",
          "type": "bool"
        }
      ],
      "name": "increasePosition",
      "outputs": [
        {
          "internalType": "bool",
          "name": "",
          "type": "bool"
        }
      ],
      "stateMutability": "nonpayable",
      "type": "function"
    },
    {
      "inputs": [],
      "name": "isVaultSet",
      "outputs": [
        {
          "internalType": "bool",
          "name": "",
          "type": "bool"
        }
      ],
      "stateMutability": "view",
      "type": "function"
    },
    {
      "inputs": [
        {
          "internalType": "address",
          "name": "_to",
          "type": "address"
        },
        {
          "internalType": "address[]",
          "name": "_tokens",
          "type": "address[]"
        },
        {
          "internalType": "bool",
          "name": "_shouldTransferEth",
          "type": "bool"
        },
        {
          "internalType": "bool",
          "name": "",
          "type": "bool"
        }
      ],
      "name": "migrateFunds",
      "outputs": [],
      "stateMutability": "nonpayable",
      "type": "function"
    },
    {
      "inputs": [],
      "name": "name",
      "outputs": [
        {
          "internalType": "bytes32",
          "name": "",
          "type": "bytes32"
        }
      ],
      "stateMutability": "view",
      "type": "function"
    },
    {
      "inputs": [
        {
          "internalType": "uint8",
          "name": "_farmIndex",
          "type": "uint8"
        },
        {
          "internalType": "uint256",
          "name": "_amountLiquidity",
          "type": "uint256"
        },
        {
          "internalType": "uint256",
          "name": "_amountEthMin",
          "type": "uint256"
        },
        {
          "internalType": "uint256",
          "name": "_tokensMin",
          "type": "uint256"
        }
      ],
      "name": "removeETHLiquidityPair",
      "outputs": [
        {
          "internalType": "uint256",
          "name": "_amountWETH",
          "type": "uint256"
        },
        {
          "internalType": "uint256",
          "name": "_amountTokens",
          "type": "uint256"
        }
      ],
      "stateMutability": "nonpayable",
      "type": "function"
    },
    {
      "inputs": [
        {
          "internalType": "address",
          "name": "_token",
          "type": "address"
        }
      ],
      "name": "removeWhitelistedToken",
      "outputs": [],
      "stateMutability": "nonpayable",
      "type": "function"
    },
    {
      "inputs": [
        {
          "internalType": "bytes32",
          "name": "role",
          "type": "bytes32"
        },
        {
          "internalType": "address",
          "name": "account",
          "type": "address"
        }
      ],
      "name": "renounceRole",
      "outputs": [],
      "stateMutability": "nonpayable",
      "type": "function"
    },
    {
      "inputs": [],
      "name": "repay",
      "outputs": [],
      "stateMutability": "nonpayable",
      "type": "function"
    },
    {
      "inputs": [
        {
          "internalType": "uint256",
          "name": "_amount",
          "type": "uint256"
        }
      ],
      "name": "repayFunds",
      "outputs": [],
      "stateMutability": "nonpayable",
      "type": "function"
    },
    {
      "inputs": [
        {
          "internalType": "address",
          "name": "_from",
          "type": "address"
        }
      ],
      "name": "revokeKeeperRole",
      "outputs": [],
      "stateMutability": "nonpayable",
      "type": "function"
    },
    {
      "inputs": [
        {
          "internalType": "bytes32",
          "name": "role",
          "type": "bytes32"
        },
        {
          "internalType": "address",
          "name": "account",
          "type": "address"
        }
      ],
      "name": "revokeRole",
      "outputs": [],
      "stateMutability": "nonpayable",
      "type": "function"
    },
    {
      "inputs": [
        {
          "internalType": "address",
          "name": "_newVault",
          "type": "address"
        }
      ],
      "name": "setVault",
      "outputs": [],
      "stateMutability": "nonpayable",
      "type": "function"
    },
    {
      "inputs": [
        {
          "internalType": "uint8",
          "name": "_farmIndex",
          "type": "uint8"
        },
        {
          "internalType": "uint256",
          "name": "_amount",
          "type": "uint256"
        }
      ],
      "name": "stake",
      "outputs": [],
      "stateMutability": "nonpayable",
      "type": "function"
    },
    {
      "inputs": [
        {
          "internalType": "bytes4",
          "name": "interfaceId",
          "type": "bytes4"
        }
      ],
      "name": "supportsInterface",
      "outputs": [
        {
          "internalType": "bool",
          "name": "",
          "type": "bool"
        }
      ],
      "stateMutability": "view",
      "type": "function"
    },
    {
      "inputs": [],
      "name": "sushiRouter",
      "outputs": [
        {
          "internalType": "contract IUniswapV2Router02",
          "name": "",
          "type": "address"
        }
      ],
      "stateMutability": "view",
      "type": "function"
    },
    {
      "inputs": [
        {
          "internalType": "address",
          "name": "_source",
          "type": "address"
        },
        {
          "internalType": "address",
          "name": "_destination",
          "type": "address"
        },
        {
          "internalType": "uint256",
          "name": "_amountIn",
          "type": "uint256"
        },
        {
          "internalType": "uint256",
          "name": "_amountOutMin",
          "type": "uint256"
        }
      ],
      "name": "swapAssetsOnSushi",
      "outputs": [],
      "stateMutability": "nonpayable",
      "type": "function"
    },
    {
      "inputs": [
        {
          "internalType": "address",
          "name": "_source",
          "type": "address"
        },
        {
          "internalType": "address",
          "name": "_destination",
          "type": "address"
        },
        {
          "internalType": "uint256",
          "name": "_amountIn",
          "type": "uint256"
        },
        {
          "internalType": "uint256",
          "name": "_amountOutMin",
          "type": "uint256"
        }
      ],
      "name": "swapTokensOnGmx",
      "outputs": [],
      "stateMutability": "nonpayable",
      "type": "function"
    },
    {
      "inputs": [
        {
          "internalType": "uint8",
          "name": "_farmIndex",
          "type": "uint8"
        },
        {
          "internalType": "uint256",
          "name": "_amount",
          "type": "uint256"
        },
        {
          "internalType": "bool",
          "name": "_claimRewards",
          "type": "bool"
        }
      ],
      "name": "unstake",
      "outputs": [],
      "stateMutability": "nonpayable",
      "type": "function"
    },
    {
      "inputs": [],
      "name": "wETH",
      "outputs": [
        {
          "internalType": "address",
          "name": "",
          "type": "address"
        }
      ],
      "stateMutability": "view",
      "type": "function"
    },
    {
      "inputs": [
        {
          "internalType": "address",
          "name": "_token",
          "type": "address"
        }
      ],
      "name": "whitelistToken",
      "outputs": [],
      "stateMutability": "nonpayable",
      "type": "function"
    },
    {
      "inputs": [
        {
          "internalType": "address",
          "name": "",
          "type": "address"
        }
      ],
      "name": "whitelistedTokens",
      "outputs": [
        {
          "internalType": "bool",
          "name": "",
          "type": "bool"
        }
      ],
      "stateMutability": "view",
      "type": "function"
    },
    {
      "stateMutability": "payable",
      "type": "receive"
    }
  ],
  "bytecode": "0x60c06040523480156200001157600080fd5b506040516200699538038062006995833981810160405281019062000037919062000fa0565b838383600073ffffffffffffffffffffffffffffffffffffffff168273ffffffffffffffffffffffffffffffffffffffff161415620000a2576040517f9cfbf00600000000000000000000000000000000000000000000000000000000815260040160405180910390fd5b600073ffffffffffffffffffffffffffffffffffffffff168173ffffffffffffffffffffffffffffffffffffffff1614156200010a576040517f9cfbf00600000000000000000000000000000000000000000000000000000000815260040160405180910390fd5b8260a081815250508173ffffffffffffffffffffffffffffffffffffffff1660808173ffffffffffffffffffffffffffffffffffffffff1681525050620001787f1a6838efa4183e08fe3607359d1259272af9d4716f65e1a7b5921f78fd5a3c6a826200034760201b60201c565b620001aa7f71a9859d7dd21b24504a6f306077ffc2d510b4d4b61128e931fe937441ad1836826200034760201b60201c565b50505073abbc5f99639c9b6bcb58544ddf04efa6802f406473ffffffffffffffffffffffffffffffffffffffff166338c74dd97387a4088bd721f83b6c2e5102e2fa47022cb1c8316040518263ffffffff1660e01b815260040162000210919062001042565b600060405180830381600087803b1580156200022b57600080fd5b505af115801562000240573d6000803e3d6000fd5b5050505073abbc5f99639c9b6bcb58544ddf04efa6802f406473ffffffffffffffffffffffffffffffffffffffff166338c74dd97309f77e8a13de9a35a7231028187e9fd5db8a2acb6040518263ffffffff1660e01b8152600401620002a7919062001042565b600060405180830381600087803b158015620002c257600080fd5b505af1158015620002d7573d6000803e3d6000fd5b50505050620002eb6200043860201b60201c565b60005b81518110156200033c57620003268282815181106200031257620003116200105f565b5b6020026020010151620008e060201b60201c565b80806200033390620010c7565b915050620002ee565b50505050506200144f565b620003598282620009e660201b60201c565b6200043457600160008084815260200190815260200160002060000160008373ffffffffffffffffffffffffffffffffffffffff1673ffffffffffffffffffffffffffffffffffffffff16815260200190815260200160002060006101000a81548160ff021916908315150217905550620003d962000a5060201b60201c565b73ffffffffffffffffffffffffffffffffffffffff168173ffffffffffffffffffffffffffffffffffffffff16837f2f8788117e7eff1d82e926ec794901d17c78024a50270940304540a733656f0d60405160405180910390a45b5050565b60405180606001604052807396b0d9c85415c69f4b2fac6ee9e9ce37717335b473ffffffffffffffffffffffffffffffffffffffff168152602001736c2c06790b3e3e3c38e12ee22f8183b37a13ee5573ffffffffffffffffffffffffffffffffffffffff168152602001730c1cf6883efa1b496b01f654e247b9b41987305473ffffffffffffffffffffffffffffffffffffffff168152506002600060038110620004e957620004e86200105f565b5b6003020160008201518160000160006101000a81548173ffffffffffffffffffffffffffffffffffffffff021916908373ffffffffffffffffffffffffffffffffffffffff16021790555060208201518160010160006101000a81548173ffffffffffffffffffffffffffffffffffffffff021916908373ffffffffffffffffffffffffffffffffffffffff16021790555060408201518160020160006101000a81548173ffffffffffffffffffffffffffffffffffffffff021916908373ffffffffffffffffffffffffffffffffffffffff16021790555090505060405180606001604052807303ac1aa1ff470cf376e6b7cd3a3389ad6d922a7473ffffffffffffffffffffffffffffffffffffffff1681526020017332eb7902d4134bf98a28b963d26de779af92a21273ffffffffffffffffffffffffffffffffffffffff168152602001737418f5a2621e13c05d1efbd71ec922070794b90a73ffffffffffffffffffffffffffffffffffffffff1681525060026001600381106200067657620006756200105f565b5b6003020160008201518160000160006101000a81548173ffffffffffffffffffffffffffffffffffffffff021916908373ffffffffffffffffffffffffffffffffffffffff16021790555060208201518160010160006101000a81548173ffffffffffffffffffffffffffffffffffffffff021916908373ffffffffffffffffffffffffffffffffffffffff16021790555060408201518160020160006101000a81548173ffffffffffffffffffffffffffffffffffffffff021916908373ffffffffffffffffffffffffffffffffffffffff160217905550905050604051806060016040528073c6d714170fe766691670f12c2b45c1f34405aab673ffffffffffffffffffffffffffffffffffffffff168152602001736c2c06790b3e3e3c38e12ee22f8183b37a13ee5573ffffffffffffffffffffffffffffffffffffffff168152602001736c2c06790b3e3e3c38e12ee22f8183b37a13ee5573ffffffffffffffffffffffffffffffffffffffff16815250600280600381106200080257620008016200105f565b5b6003020160008201518160000160006101000a81548173ffffffffffffffffffffffffffffffffffffffff021916908373ffffffffffffffffffffffffffffffffffffffff16021790555060208201518160010160006101000a81548173ffffffffffffffffffffffffffffffffffffffff021916908373ffffffffffffffffffffffffffffffffffffffff16021790555060408201518160020160006101000a81548173ffffffffffffffffffffffffffffffffffffffff021916908373ffffffffffffffffffffffffffffffffffffffff160217905550905050565b7f1a6838efa4183e08fe3607359d1259272af9d4716f65e1a7b5921f78fd5a3c6a62000922816200091662000a5060201b60201c565b62000a5860201b60201c565b600073ffffffffffffffffffffffffffffffffffffffff168273ffffffffffffffffffffffffffffffffffffffff1614156200098a576040517f9cfbf00600000000000000000000000000000000000000000000000000000000815260040160405180910390fd5b6001600b60008473ffffffffffffffffffffffffffffffffffffffff1673ffffffffffffffffffffffffffffffffffffffff16815260200190815260200160002060006101000a81548160ff0219169083151502179055505050565b600080600084815260200190815260200160002060000160008373ffffffffffffffffffffffffffffffffffffffff1673ffffffffffffffffffffffffffffffffffffffff16815260200190815260200160002060009054906101000a900460ff16905092915050565b600033905090565b62000a6a8282620009e660201b60201c565b62000b185762000a9d8173ffffffffffffffffffffffffffffffffffffffff16601462000b1c60201b620028a61760201c565b62000ab88360001c602062000b1c60201b620028a61760201c565b60405160200162000acb92919062001238565b6040516020818303038152906040526040517f08c379a000000000000000000000000000000000000000000000000000000000815260040162000b0f9190620012cc565b60405180910390fd5b5050565b60606000600283600262000b319190620012f0565b62000b3d919062001351565b67ffffffffffffffff81111562000b595762000b5862000e41565b5b6040519080825280601f01601f19166020018201604052801562000b8c5781602001600182028036833780820191505090505b5090507f30000000000000000000000000000000000000000000000000000000000000008160008151811062000bc75762000bc66200105f565b5b60200101907effffffffffffffffffffffffffffffffffffffffffffffffffffffffffffff1916908160001a9053507f78000000000000000000000000000000000000000000000000000000000000008160018151811062000c2e5762000c2d6200105f565b5b60200101907effffffffffffffffffffffffffffffffffffffffffffffffffffffffffffff1916908160001a9053506000600184600262000c709190620012f0565b62000c7c919062001351565b90505b600181111562000d26577f3031323334353637383961626364656600000000000000000000000000000000600f86166010811062000cc25762000cc16200105f565b5b1a60f81b82828151811062000cdc5762000cdb6200105f565b5b60200101907effffffffffffffffffffffffffffffffffffffffffffffffffffffffffffff1916908160001a905350600485901c94508062000d1e90620013ae565b905062000c7f565b506000841462000d6d576040517f08c379a000000000000000000000000000000000000000000000000000000000815260040162000d64906200142d565b60405180910390fd5b8091505092915050565b6000604051905090565b600080fd5b600080fd5b6000819050919050565b62000da08162000d8b565b811462000dac57600080fd5b50565b60008151905062000dc08162000d95565b92915050565b600073ffffffffffffffffffffffffffffffffffffffff82169050919050565b600062000df38262000dc6565b9050919050565b62000e058162000de6565b811462000e1157600080fd5b50565b60008151905062000e258162000dfa565b92915050565b600080fd5b6000601f19601f8301169050919050565b7f4e487b7100000000000000000000000000000000000000000000000000000000600052604160045260246000fd5b62000e7b8262000e30565b810181811067ffffffffffffffff8211171562000e9d5762000e9c62000e41565b5b80604052505050565b600062000eb262000d77565b905062000ec0828262000e70565b919050565b600067ffffffffffffffff82111562000ee35762000ee262000e41565b5b602082029050602081019050919050565b600080fd5b600062000f1062000f0a8462000ec5565b62000ea6565b9050808382526020820190506020840283018581111562000f365762000f3562000ef4565b5b835b8181101562000f63578062000f4e888262000e14565b84526020840193505060208101905062000f38565b5050509392505050565b600082601f83011262000f855762000f8462000e2b565b5b815162000f9784826020860162000ef9565b91505092915050565b6000806000806080858703121562000fbd5762000fbc62000d81565b5b600062000fcd8782880162000daf565b945050602062000fe08782880162000e14565b935050604062000ff38782880162000e14565b925050606085015167ffffffffffffffff81111562001017576200101662000d86565b5b620010258782880162000f6d565b91505092959194509250565b6200103c8162000de6565b82525050565b600060208201905062001059600083018462001031565b92915050565b7f4e487b7100000000000000000000000000000000000000000000000000000000600052603260045260246000fd5b7f4e487b7100000000000000000000000000000000000000000000000000000000600052601160045260246000fd5b6000819050919050565b6000620010d482620010bd565b91507fffffffffffffffffffffffffffffffffffffffffffffffffffffffffffffffff8214156200110a57620011096200108e565b5b600182019050919050565b600081905092915050565b7f416363657373436f6e74726f6c3a206163636f756e7420000000000000000000600082015250565b60006200115860178362001115565b9150620011658262001120565b601782019050919050565b600081519050919050565b60005b838110156200119b5780820151818401526020810190506200117e565b83811115620011ab576000848401525b50505050565b6000620011be8262001170565b620011ca818562001115565b9350620011dc8185602086016200117b565b80840191505092915050565b7f206973206d697373696e6720726f6c6520000000000000000000000000000000600082015250565b60006200122060118362001115565b91506200122d82620011e8565b601182019050919050565b6000620012458262001149565b9150620012538285620011b1565b9150620012608262001211565b91506200126e8284620011b1565b91508190509392505050565b600082825260208201905092915050565b6000620012988262001170565b620012a481856200127a565b9350620012b68185602086016200117b565b620012c18162000e30565b840191505092915050565b60006020820190508181036000830152620012e881846200128b565b905092915050565b6000620012fd82620010bd565b91506200130a83620010bd565b9250817fffffffffffffffffffffffffffffffffffffffffffffffffffffffffffffffff04831182151516156200134657620013456200108e565b5b828202905092915050565b60006200135e82620010bd565b91506200136b83620010bd565b9250827fffffffffffffffffffffffffffffffffffffffffffffffffffffffffffffffff03821115620013a357620013a26200108e565b5b828201905092915050565b6000620013bb82620010bd565b91506000821415620013d257620013d16200108e565b5b600182039050919050565b7f537472696e67733a20686578206c656e67746820696e73756666696369656e74600082015250565b6000620014156020836200127a565b91506200142282620013dd565b602082019050919050565b60006020820190508181036000830152620014488162001406565b9050919050565b60805160a0516154fd620014986000396000610b49015260008181610e0f015281816111b6015281816117c40152818161214a015281816125290152612ca801526154fd6000f3fe60806040526004361061026a5760003560e01c80638842586411610144578063b6e2dc35116100b6578063dd752e551161007a578063dd752e551461097e578063ea0ab056146109a7578063edc30ab6146109d2578063eff3c430146109fb578063f242862114610a26578063f92d519214610a51576102e6565b8063b6e2dc351461089d578063c5ebeaec146108c6578063cc1f071a146108ef578063d547741f14610918578063daf9c21014610941576102e6565b80639abbde03116101085780639abbde03146107bb578063a217fddf146107e6578063a4c10d4b14610811578063a75c055a1461082d578063a8584fd814610858578063b419cc2214610881576102e6565b806388425864146106c257806389a30271146106eb5780638d928af81461071657806391d148541461074157806393ecdb291461077e576102e6565b80634106d274116101dd5780636d13582c116101a15780636d13582c146105ae5780636dc0ae22146105d9578063772737cb146106045780637d21c9671461062f5780638277536d1461066e578063862a179e14610697576102e6565b80634106d274146104cc57806355dfff72146104f55780635dfef5ed1461051e5780636247f6f21461055c5780636817031b14610585576102e6565b8063248a9ca31161022f578063248a9ca3146103bc5780632c4d361e146103f95780632f2ff15d1461043857806336568abe1461046157806338d52e0f1461048a578063402d8883146104b5576102e6565b80628aa8d0146102eb57806301ffc9a71461031457806306fdde03146103515780631c88705d1461037c578063225435c0146103a5576102e6565b366102e6577382af49447d8a07e3bd95bd0d56f35241523fbab173ffffffffffffffffffffffffffffffffffffffff1663d0e30db0346040518263ffffffff1660e01b81526004016000604051808303818588803b1580156102cb57600080fd5b505af11580156102df573d6000803e3d6000fd5b5050505050005b600080fd5b3480156102f757600080fd5b50610312600480360381019061030d9190613c5f565b610a8e565b005b34801561032057600080fd5b5061033b60048036038101906103369190613ce4565b610acd565b6040516103489190613d2c565b60405180910390f35b34801561035d57600080fd5b50610366610b47565b6040516103739190613d60565b60405180910390f35b34801561038857600080fd5b506103a3600480360381019061039e9190613dd9565b610b6b565b005b3480156103b157600080fd5b506103ba610cfc565b005b3480156103c857600080fd5b506103e360048036038101906103de9190613e32565b610f0e565b6040516103f09190613d60565b60405180910390f35b34801561040557600080fd5b50610420600480360381019061041b9190613e98565b610f2d565b60405161042f93929190613f22565b60405180910390f35b34801561044457600080fd5b5061045f600480360381019061045a9190613f59565b611108565b005b34801561046d57600080fd5b5061048860048036038101906104839190613f59565b611131565b005b34801561049657600080fd5b5061049f6111b4565b6040516104ac9190613fa8565b60405180910390f35b3480156104c157600080fd5b506104ca6111d8565b005b3480156104d857600080fd5b506104f360048036038101906104ee9190613dd9565b611215565b005b34801561050157600080fd5b5061051c60048036038101906105179190613fc3565b6112dc565b005b34801561052a57600080fd5b5061054560048036038101906105409190614003565b6113c8565b60405161055392919061406a565b60405180910390f35b34801561056857600080fd5b50610583600480360381019061057e9190613dd9565b611565565b005b34801561059157600080fd5b506105ac60048036038101906105a79190613dd9565b61165a565b005b3480156105ba57600080fd5b506105c36118a9565b6040516105d091906140f2565b60405180910390f35b3480156105e557600080fd5b506105ee6118c1565b6040516105fb9190613d60565b60405180910390f35b34801561061057600080fd5b506106196118e5565b6040516106269190613fa8565b60405180910390f35b34801561063b57600080fd5b5061065660048036038101906106519190613c5f565b6118fd565b6040516106659392919061414f565b60405180910390f35b34801561067a57600080fd5b5061069560048036038101906106909190614186565b61198d565b005b3480156106a357600080fd5b506106ac611a3d565b6040516106b99190613d60565b60405180910390f35b3480156106ce57600080fd5b506106e960048036038101906106e49190614219565b611a61565b005b3480156106f757600080fd5b50610700611b01565b60405161070d9190613fa8565b60405180910390f35b34801561072257600080fd5b5061072b611b19565b6040516107389190613fa8565b60405180910390f35b34801561074d57600080fd5b5061076860048036038101906107639190613f59565b611b89565b6040516107759190613d2c565b60405180910390f35b34801561078a57600080fd5b506107a560048036038101906107a09190614259565b611bf3565b6040516107b29190613d2c565b60405180910390f35b3480156107c757600080fd5b506107d0611cb8565b6040516107dd9190613d2c565b60405180910390f35b3480156107f257600080fd5b506107fb611ccb565b6040516108089190613d60565b60405180910390f35b61082b600480360381019061082691906142e6565b611cd2565b005b34801561083957600080fd5b50610842611d9c565b60405161084f91906143e6565b60405180910390f35b34801561086457600080fd5b5061087f600480360381019061087a9190614186565b611db4565b005b61089b60048036038101906108969190614401565b611ec0565b005b3480156108a957600080fd5b506108c460048036038101906108bf91906145fc565b611f81565b005b3480156108d257600080fd5b506108ed60048036038101906108e89190613c5f565b612008565b005b3480156108fb57600080fd5b5061091660048036038101906109119190613dd9565b612211565b005b34801561092457600080fd5b5061093f600480360381019061093a9190613f59565b612271565b005b34801561094d57600080fd5b5061096860048036038101906109639190613dd9565b61229a565b6040516109759190613d2c565b60405180910390f35b34801561098a57600080fd5b506109a560048036038101906109a09190613fc3565b6122ba565b005b3480156109b357600080fd5b506109bc612525565b6040516109c9919061467f565b60405180910390f35b3480156109de57600080fd5b506109f960048036038101906109f4919061469a565b6125c6565b005b348015610a0757600080fd5b50610a106127ad565b604051610a1d9190613fa8565b60405180910390f35b348015610a3257600080fd5b50610a3b6127c5565b604051610a489190613fa8565b60405180910390f35b348015610a5d57600080fd5b50610a786004803603810190610a7391906146ed565b6127dd565b604051610a859190613d2c565b60405180910390f35b7f71a9859d7dd21b24504a6f306077ffc2d510b4d4b61128e931fe937441ad1836610ac081610abb612ae2565b612aea565b610ac982612b87565b5050565b60007f7965db0b000000000000000000000000000000000000000000000000000000007bffffffffffffffffffffffffffffffffffffffffffffffffffffffff1916827bffffffffffffffffffffffffffffffffffffffffffffffffffffffff19161480610b405750610b3f82612d6e565b5b9050919050565b7f000000000000000000000000000000000000000000000000000000000000000081565b7f1a6838efa4183e08fe3607359d1259272af9d4716f65e1a7b5921f78fd5a3c6a610b9d81610b98612ae2565b612aea565b600b60008373ffffffffffffffffffffffffffffffffffffffff1673ffffffffffffffffffffffffffffffffffffffff16815260200190815260200160002060009054906101000a900460ff16610c20576040517f8bc4c54c00000000000000000000000000000000000000000000000000000000815260040160405180910390fd5b6000600b60008473ffffffffffffffffffffffffffffffffffffffff1673ffffffffffffffffffffffffffffffffffffffff16815260200190815260200160002060006101000a81548160ff021916908315150217905550610cb873abbc5f99639c9b6bcb58544ddf04efa6802f406460008473ffffffffffffffffffffffffffffffffffffffff16612dd89092919063ffffffff16565b610cf8731b02da8cb0d097eb8d57a175b88c7d8b4799750660008473ffffffffffffffffffffffffffffffffffffffff16612dd89092919063ffffffff16565b5050565b7f1a6838efa4183e08fe3607359d1259272af9d4716f65e1a7b5921f78fd5a3c6a610d2e81610d29612ae2565b612aea565b600160149054906101000a900460ff16610d74576040517f23eecdf600000000000000000000000000000000000000000000000000000000815260040160405180910390fd5b610d7c612f27565b6000610d86612525565b1115610dbe576040517f93224eac00000000000000000000000000000000000000000000000000000000815260040160405180910390fd5b6000600160009054906101000a900473ffffffffffffffffffffffffffffffffffffffff169050610e53600160009054906101000a900473ffffffffffffffffffffffffffffffffffffffff1660007f000000000000000000000000000000000000000000000000000000000000000073ffffffffffffffffffffffffffffffffffffffff16612dd89092919063ffffffff16565b6000600160006101000a81548173ffffffffffffffffffffffffffffffffffffffff021916908373ffffffffffffffffffffffffffffffffffffffff1602179055506000600160146101000a81548160ff0219169083151502179055508073ffffffffffffffffffffffffffffffffffffffff163373ffffffffffffffffffffffffffffffffffffffff167f99f736dac5b359a472c9b2edd93e35b98547bf61d1ee8395824e748c7731cc7860405160405180910390a35050565b6000806000838152602001908152602001600020600101549050919050565b60008060007f71a9859d7dd21b24504a6f306077ffc2d510b4d4b61128e931fe937441ad1836610f6481610f5f612ae2565b612aea565b610f708960ff16612f39565b610fa37382af49447d8a07e3bd95bd0d56f35241523fbab1731b02da8cb0d097eb8d57a175b88c7d8b479975068a612f82565b61100060028a60ff1660038110610fbd57610fbc6147a3565b5b6003020160010160009054906101000a900473ffffffffffffffffffffffffffffffffffffffff16731b02da8cb0d097eb8d57a175b88c7d8b4799750689612f82565b731b02da8cb0d097eb8d57a175b88c7d8b4799750673ffffffffffffffffffffffffffffffffffffffff1663e8e337007382af49447d8a07e3bd95bd0d56f35241523fbab160028c60ff166003811061105c5761105b6147a3565b5b6003020160010160009054906101000a900473ffffffffffffffffffffffffffffffffffffffff168b8b8b8b30426040518963ffffffff1660e01b81526004016110ad9897969594939291906147d2565b6060604051808303816000875af11580156110cc573d6000803e3d6000fd5b505050506040513d601f19601f820116820180604052508101906110f09190614865565b80945081955082965050505050955095509592505050565b61111182610f0e565b6111228161111d612ae2565b612aea565b61112c8383613047565b505050565b611139612ae2565b73ffffffffffffffffffffffffffffffffffffffff168173ffffffffffffffffffffffffffffffffffffffff16146111a6576040517f08c379a000000000000000000000000000000000000000000000000000000000815260040161119d9061493b565b60405180910390fd5b6111b08282613127565b5050565b7f000000000000000000000000000000000000000000000000000000000000000081565b7f71a9859d7dd21b24504a6f306077ffc2d510b4d4b61128e931fe937441ad183661120a81611205612ae2565b612aea565b611212612f27565b50565b7f1a6838efa4183e08fe3607359d1259272af9d4716f65e1a7b5921f78fd5a3c6a61124781611242612ae2565b612aea565b600073ffffffffffffffffffffffffffffffffffffffff168273ffffffffffffffffffffffffffffffffffffffff1614156112ae576040517f9cfbf00600000000000000000000000000000000000000000000000000000000815260040160405180910390fd5b6112d87f71a9859d7dd21b24504a6f306077ffc2d510b4d4b61128e931fe937441ad183683613047565b5050565b7f71a9859d7dd21b24504a6f306077ffc2d510b4d4b61128e931fe937441ad183661130e81611309612ae2565b612aea565b61131a8360ff16613208565b60028360ff1660038110611331576113306147a3565b5b6003020160000160009054906101000a900473ffffffffffffffffffffffffffffffffffffffff1673ffffffffffffffffffffffffffffffffffffffff16631c4b774b836040518263ffffffff1660e01b8152600401611391919061467f565b600060405180830381600087803b1580156113ab57600080fd5b505af11580156113bf573d6000803e3d6000fd5b50505050505050565b6000807f71a9859d7dd21b24504a6f306077ffc2d510b4d4b61128e931fe937441ad18366113fd816113f8612ae2565b612aea565b6114098760ff16612f39565b61146660028860ff1660038110611423576114226147a3565b5b6003020160020160009054906101000a900473ffffffffffffffffffffffffffffffffffffffff16731b02da8cb0d097eb8d57a175b88c7d8b4799750688612f82565b731b02da8cb0d097eb8d57a175b88c7d8b4799750673ffffffffffffffffffffffffffffffffffffffff1663baa2abde7382af49447d8a07e3bd95bd0d56f35241523fbab160028a60ff16600381106114c2576114c16147a3565b5b6003020160010160009054906101000a900473ffffffffffffffffffffffffffffffffffffffff1689898930426040518863ffffffff1660e01b8152600401611511979695949392919061495b565b60408051808303816000875af115801561152f573d6000803e3d6000fd5b505050506040513d601f19601f8201168201806040525081019061155391906149ca565b80935081945050505094509492505050565b7f1a6838efa4183e08fe3607359d1259272af9d4716f65e1a7b5921f78fd5a3c6a61159781611592612ae2565b612aea565b600073ffffffffffffffffffffffffffffffffffffffff168273ffffffffffffffffffffffffffffffffffffffff1614156115fe576040517f9cfbf00600000000000000000000000000000000000000000000000000000000815260040160405180910390fd5b6001600b60008473ffffffffffffffffffffffffffffffffffffffff1673ffffffffffffffffffffffffffffffffffffffff16815260200190815260200160002060006101000a81548160ff0219169083151502179055505050565b7f1a6838efa4183e08fe3607359d1259272af9d4716f65e1a7b5921f78fd5a3c6a61168c81611687612ae2565b612aea565b600160149054906101000a900460ff16156116d3576040517fe1b7a65400000000000000000000000000000000000000000000000000000000815260040160405180910390fd5b600073ffffffffffffffffffffffffffffffffffffffff168273ffffffffffffffffffffffffffffffffffffffff16141561173a576040517f9cfbf00600000000000000000000000000000000000000000000000000000000815260040160405180910390fd5b81600160006101000a81548173ffffffffffffffffffffffffffffffffffffffff021916908373ffffffffffffffffffffffffffffffffffffffff160217905550611808600160009054906101000a900473ffffffffffffffffffffffffffffffffffffffff167fffffffffffffffffffffffffffffffffffffffffffffffffffffffffffffffff7f000000000000000000000000000000000000000000000000000000000000000073ffffffffffffffffffffffffffffffffffffffff16612dd89092919063ffffffff16565b60018060146101000a81548160ff021916908315150217905550600160009054906101000a900473ffffffffffffffffffffffffffffffffffffffff1673ffffffffffffffffffffffffffffffffffffffff16611863612ae2565b73ffffffffffffffffffffffffffffffffffffffff167f8800deb8c31293b539eaf5391fcc88280dc58f015c043d65dd5b72a0979a1dd160405160405180910390a35050565b731b02da8cb0d097eb8d57a175b88c7d8b4799750681565b7f1a6838efa4183e08fe3607359d1259272af9d4716f65e1a7b5921f78fd5a3c6a81565b7387a4088bd721f83b6c2e5102e2fa47022cb1c83181565b6002816003811061190d57600080fd5b600302016000915090508060000160009054906101000a900473ffffffffffffffffffffffffffffffffffffffff16908060010160009054906101000a900473ffffffffffffffffffffffffffffffffffffffff16908060020160009054906101000a900473ffffffffffffffffffffffffffffffffffffffff16905083565b7f71a9859d7dd21b24504a6f306077ffc2d510b4d4b61128e931fe937441ad18366119bf816119ba612ae2565b612aea565b6119c98585613245565b73__$358910300e668b06965b0807128056aec7$__638e18cdfc868686866040518563ffffffff1660e01b8152600401611a069493929190614a28565b60006040518083038186803b158015611a1e57600080fd5b505af4158015611a32573d6000803e3d6000fd5b505050505050505050565b7f71a9859d7dd21b24504a6f306077ffc2d510b4d4b61128e931fe937441ad183681565b7f71a9859d7dd21b24504a6f306077ffc2d510b4d4b61128e931fe937441ad1836611a9381611a8e612ae2565b612aea565b73__$358910300e668b06965b0807128056aec7$__63dc419fd884846040518363ffffffff1660e01b8152600401611acc929190614a7c565b60006040518083038186803b158015611ae457600080fd5b505af4158015611af8573d6000803e3d6000fd5b50505050505050565b73ff970a61a04b1ca14834a43f5de4533ebddb5cc881565b6000600160149054906101000a900460ff16611b61576040517f23eecdf600000000000000000000000000000000000000000000000000000000815260040160405180910390fd5b600160009054906101000a900473ffffffffffffffffffffffffffffffffffffffff16905090565b600080600084815260200190815260200160002060000160008373ffffffffffffffffffffffffffffffffffffffff1673ffffffffffffffffffffffffffffffffffffffff16815260200190815260200160002060009054906101000a900460ff16905092915050565b60007f71a9859d7dd21b24504a6f306077ffc2d510b4d4b61128e931fe937441ad1836611c2781611c22612ae2565b612aea565b73__$358910300e668b06965b0807128056aec7$__63388a0382898989898989306040518863ffffffff1660e01b8152600401611c6a9796959493929190614aa5565b602060405180830381865af4158015611c87573d6000803e3d6000fd5b505050506040513d601f19601f82011682018060405250810190611cab9190614b29565b9150509695505050505050565b600160149054906101000a900460ff1681565b6000801b81565b7f71a9859d7dd21b24504a6f306077ffc2d510b4d4b61128e931fe937441ad1836611d0481611cff612ae2565b612aea565b73__$358910300e668b06965b0807128056aec7$__632f794bd58c8c8c8c8c8c8c8c8c8c6040518b63ffffffff1660e01b8152600401611d4d9a99989796959493929190614b56565b602060405180830381865af4158015611d6a573d6000803e3d6000fd5b505050506040513d601f19601f82011682018060405250810190611d8e9190614b29565b505050505050505050505050565b73abbc5f99639c9b6bcb58544ddf04efa6802f406481565b7f71a9859d7dd21b24504a6f306077ffc2d510b4d4b61128e931fe937441ad1836611de681611de1612ae2565b612aea565b611df08585613245565b611e0f85731b02da8cb0d097eb8d57a175b88c7d8b4799750685612f82565b6000611e1b86866133d0565b9050731b02da8cb0d097eb8d57a175b88c7d8b4799750673ffffffffffffffffffffffffffffffffffffffff1673__$550d7af180db018b614b111952148b246d$__63221bb2cd9091868685306040518663ffffffff1660e01b8152600401611e88959493929190614cbf565b60006040518083038186803b158015611ea057600080fd5b505af4158015611eb4573d6000803e3d6000fd5b50505050505050505050565b7f71a9859d7dd21b24504a6f306077ffc2d510b4d4b61128e931fe937441ad1836611ef281611eed612ae2565b612aea565b73__$358910300e668b06965b0807128056aec7$__63c16cde8a898989898989896040518863ffffffff1660e01b8152600401611f359796959493929190614d19565b602060405180830381865af4158015611f52573d6000803e3d6000fd5b505050506040513d601f19601f82011682018060405250810190611f769190614b29565b505050505050505050565b7f1a6838efa4183e08fe3607359d1259272af9d4716f65e1a7b5921f78fd5a3c6a611fb381611fae612ae2565b612aea565b611fbe8585856136a7565b8473ffffffffffffffffffffffffffffffffffffffff167f0e3e9a671666295c299b941a07625839915442794bf73a484b24bb3e221270c360405160405180910390a25050505050565b7f71a9859d7dd21b24504a6f306077ffc2d510b4d4b61128e931fe937441ad183661203a81612035612ae2565b612aea565b600160149054906101000a900460ff16612080576040517f23eecdf600000000000000000000000000000000000000000000000000000000815260040160405180910390fd5b60008214156120bb576040517fcd6bbd7100000000000000000000000000000000000000000000000000000000815260040160405180910390fd5b600160009054906101000a900473ffffffffffffffffffffffffffffffffffffffff1673ffffffffffffffffffffffffffffffffffffffff16634d0392a8836040518263ffffffff1660e01b8152600401612116919061467f565b600060405180830381600087803b15801561213057600080fd5b505af1158015612144573d6000803e3d6000fd5b505050507f000000000000000000000000000000000000000000000000000000000000000073ffffffffffffffffffffffffffffffffffffffff16600160009054906101000a900473ffffffffffffffffffffffffffffffffffffffff1673ffffffffffffffffffffffffffffffffffffffff166121c0612ae2565b73ffffffffffffffffffffffffffffffffffffffff167face89dcec09c69462cb37ba9dbe6990b9cb4cc4b7474f1cc0574f0ac8649708685604051612205919061467f565b60405180910390a45050565b7f1a6838efa4183e08fe3607359d1259272af9d4716f65e1a7b5921f78fd5a3c6a6122438161223e612ae2565b612aea565b61226d7f71a9859d7dd21b24504a6f306077ffc2d510b4d4b61128e931fe937441ad183683613127565b5050565b61227a82610f0e565b61228b81612286612ae2565b612aea565b6122958383613127565b505050565b600b6020528060005260406000206000915054906101000a900460ff1681565b7f71a9859d7dd21b24504a6f306077ffc2d510b4d4b61128e931fe937441ad18366122ec816122e7612ae2565b612aea565b6122f88360ff16613208565b61237f60028460ff1660038110612312576123116147a3565b5b6003020160020160009054906101000a900473ffffffffffffffffffffffffffffffffffffffff1660028560ff1660038110612351576123506147a3565b5b6003020160000160009054906101000a900473ffffffffffffffffffffffffffffffffffffffff1684612f82565b60028360ff1660038110612396576123956147a3565b5b6003020160000160009054906101000a900473ffffffffffffffffffffffffffffffffffffffff1673ffffffffffffffffffffffffffffffffffffffff1663a694fc3a836040518263ffffffff1660e01b81526004016123f6919061467f565b600060405180830381600087803b15801561241057600080fd5b505af1158015612424573d6000803e3d6000fd5b5050505060028360ff166003811061243f5761243e6147a3565b5b6003020160020160009054906101000a900473ffffffffffffffffffffffffffffffffffffffff1673ffffffffffffffffffffffffffffffffffffffff1660028460ff1660038110612494576124936147a3565b5b6003020160000160009054906101000a900473ffffffffffffffffffffffffffffffffffffffff1673ffffffffffffffffffffffffffffffffffffffff163373ffffffffffffffffffffffffffffffffffffffff167fc5017594d2723c038bb216e5bcef3ac65910ade839c0e63253bf5b59efbf0fd785604051612518919061467f565b60405180910390a4505050565b60007f000000000000000000000000000000000000000000000000000000000000000073ffffffffffffffffffffffffffffffffffffffff166370a08231306040518263ffffffff1660e01b81526004016125809190613fa8565b602060405180830381865afa15801561259d573d6000803e3d6000fd5b505050506040513d601f19601f820116820180604052508101906125c19190614d88565b905090565b7f71a9859d7dd21b24504a6f306077ffc2d510b4d4b61128e931fe937441ad18366125f8816125f3612ae2565b612aea565b6126048460ff16613208565b60028460ff166003811061261b5761261a6147a3565b5b6003020160000160009054906101000a900473ffffffffffffffffffffffffffffffffffffffff1673ffffffffffffffffffffffffffffffffffffffff16632e1a7d4d846040518263ffffffff1660e01b815260040161267b919061467f565b600060405180830381600087803b15801561269557600080fd5b505af11580156126a9573d6000803e3d6000fd5b5050505060028460ff16600381106126c4576126c36147a3565b5b6003020160020160009054906101000a900473ffffffffffffffffffffffffffffffffffffffff1673ffffffffffffffffffffffffffffffffffffffff1660028560ff1660038110612719576127186147a3565b5b6003020160000160009054906101000a900473ffffffffffffffffffffffffffffffffffffffff1673ffffffffffffffffffffffffffffffffffffffff163373ffffffffffffffffffffffffffffffffffffffff167f9fb1fa3bc6506fa308a3555d34d862f5c70731ff5dcc81bdab4fc8a17a5adf7c868660405161279f929190614db5565b60405180910390a450505050565b7309f77e8a13de9a35a7231028187e9fd5db8a2acb81565b7382af49447d8a07e3bd95bd0d56f35241523fbab181565b60007f71a9859d7dd21b24504a6f306077ffc2d510b4d4b61128e931fe937441ad18366128118161280c612ae2565b612aea565b73__$358910300e668b06965b0807128056aec7$__63f92d51928b8b8b8b8b8b8b8b6040518963ffffffff1660e01b8152600401612856989796959493929190614dde565b602060405180830381865af4158015612873573d6000803e3d6000fd5b505050506040513d601f19601f820116820180604052508101906128979190614b29565b91505098975050505050505050565b6060600060028360026128b99190614e8b565b6128c39190614ee5565b67ffffffffffffffff8111156128dc576128db6144b9565b5b6040519080825280601f01601f19166020018201604052801561290e5781602001600182028036833780820191505090505b5090507f300000000000000000000000000000000000000000000000000000000000000081600081518110612946576129456147a3565b5b60200101907effffffffffffffffffffffffffffffffffffffffffffffffffffffffffffff1916908160001a9053507f7800000000000000000000000000000000000000000000000000000000000000816001815181106129aa576129a96147a3565b5b60200101907effffffffffffffffffffffffffffffffffffffffffffffffffffffffffffff1916908160001a905350600060018460026129ea9190614e8b565b6129f49190614ee5565b90505b6001811115612a94577f3031323334353637383961626364656600000000000000000000000000000000600f861660108110612a3657612a356147a3565b5b1a60f81b828281518110612a4d57612a4c6147a3565b5b60200101907effffffffffffffffffffffffffffffffffffffffffffffffffffffffffffff1916908160001a905350600485901c945080612a8d90614f3b565b90506129f7565b5060008414612ad8576040517f08c379a0000000000000000000000000000000000000000000000000000000008152600401612acf90614fb1565b60405180910390fd5b8091505092915050565b600033905090565b612af48282611b89565b612b8357612b198173ffffffffffffffffffffffffffffffffffffffff1660146128a6565b612b278360001c60206128a6565b604051602001612b389291906150e3565b6040516020818303038152906040526040517f08c379a0000000000000000000000000000000000000000000000000000000008152600401612b7a9190615156565b60405180910390fd5b5050565b600160149054906101000a900460ff16612bcd576040517f23eecdf600000000000000000000000000000000000000000000000000000000815260040160405180910390fd5b6000811480612be25750612bdf612525565b81115b15612c19576040517ffae8279100000000000000000000000000000000000000000000000000000000815260040160405180910390fd5b600160009054906101000a900473ffffffffffffffffffffffffffffffffffffffff1673ffffffffffffffffffffffffffffffffffffffff1663e8ddb9a6826040518263ffffffff1660e01b8152600401612c74919061467f565b600060405180830381600087803b158015612c8e57600080fd5b505af1158015612ca2573d6000803e3d6000fd5b505050507f000000000000000000000000000000000000000000000000000000000000000073ffffffffffffffffffffffffffffffffffffffff16600160009054906101000a900473ffffffffffffffffffffffffffffffffffffffff1673ffffffffffffffffffffffffffffffffffffffff16612d1e612ae2565b73ffffffffffffffffffffffffffffffffffffffff167f7fbb649ddb1a6bb483960fc034d326a89c2c22de1d59cf00a85e70cbe98619c984604051612d63919061467f565b60405180910390a450565b60007f01ffc9a7000000000000000000000000000000000000000000000000000000007bffffffffffffffffffffffffffffffffffffffffffffffffffffffff1916827bffffffffffffffffffffffffffffffffffffffffffffffffffffffff1916149050919050565b6000811480612e62575060008373ffffffffffffffffffffffffffffffffffffffff1663dd62ed3e30856040518363ffffffff1660e01b8152600401612e1f929190615178565b602060405180830381865afa158015612e3c573d6000803e3d6000fd5b505050506040513d601f19601f82011682018060405250810190612e609190614d88565b145b612ea1576040517f08c379a0000000000000000000000000000000000000000000000000000000008152600401612e9890615213565b60405180910390fd5b612f228363095ea7b360e01b8484604051602401612ec0929190615233565b604051602081830303815290604052907bffffffffffffffffffffffffffffffffffffffffffffffffffffffff19166020820180517bffffffffffffffffffffffffffffffffffffffffffffffffffffffff8381831617835250505050613800565b505050565b612f37612f32612525565b612b87565b565b60016003612f47919061525c565b8110612f7f576040517ffc7d666700000000000000000000000000000000000000000000000000000000815260040160405180910390fd5b50565b60008373ffffffffffffffffffffffffffffffffffffffff1663dd62ed3e30856040518363ffffffff1660e01b8152600401612fbf929190615178565b602060405180830381865afa158015612fdc573d6000803e3d6000fd5b505050506040513d601f19601f820116820180604052508101906130009190614d88565b9050818110156130415761304083828461301a919061525c565b8673ffffffffffffffffffffffffffffffffffffffff166138c79092919063ffffffff16565b5b50505050565b6130518282611b89565b61312357600160008084815260200190815260200160002060000160008373ffffffffffffffffffffffffffffffffffffffff1673ffffffffffffffffffffffffffffffffffffffff16815260200190815260200160002060006101000a81548160ff0219169083151502179055506130c8612ae2565b73ffffffffffffffffffffffffffffffffffffffff168173ffffffffffffffffffffffffffffffffffffffff16837f2f8788117e7eff1d82e926ec794901d17c78024a50270940304540a733656f0d60405160405180910390a45b5050565b6131318282611b89565b1561320457600080600084815260200190815260200160002060000160008373ffffffffffffffffffffffffffffffffffffffff1673ffffffffffffffffffffffffffffffffffffffff16815260200190815260200160002060006101000a81548160ff0219169083151502179055506131a9612ae2565b73ffffffffffffffffffffffffffffffffffffffff168173ffffffffffffffffffffffffffffffffffffffff16837ff6391f5c32d9c69d2a47ea670b442974b53935d1edc7fd64eb21e047a839171b60405160405180910390a45b5050565b60038110613242576040517ffc7d666700000000000000000000000000000000000000000000000000000000815260040160405180910390fd5b50565b600073ffffffffffffffffffffffffffffffffffffffff168273ffffffffffffffffffffffffffffffffffffffff1614806132ac5750600073ffffffffffffffffffffffffffffffffffffffff168173ffffffffffffffffffffffffffffffffffffffff16145b156132e3576040517f9cfbf00600000000000000000000000000000000000000000000000000000000815260040160405180910390fd5b8073ffffffffffffffffffffffffffffffffffffffff168273ffffffffffffffffffffffffffffffffffffffff161415613349576040517fc8f4175f00000000000000000000000000000000000000000000000000000000815260040160405180910390fd5b600b60008273ffffffffffffffffffffffffffffffffffffffff1673ffffffffffffffffffffffffffffffffffffffff16815260200190815260200160002060009054906101000a900460ff166133cc576040517f8bc4c54c00000000000000000000000000000000000000000000000000000000815260040160405180910390fd5b5050565b60607382af49447d8a07e3bd95bd0d56f35241523fbab173ffffffffffffffffffffffffffffffffffffffff168373ffffffffffffffffffffffffffffffffffffffff16148061345f57507382af49447d8a07e3bd95bd0d56f35241523fbab173ffffffffffffffffffffffffffffffffffffffff168273ffffffffffffffffffffffffffffffffffffffff16145b1561355357600267ffffffffffffffff81111561347f5761347e6144b9565b5b6040519080825280602002602001820160405280156134ad5781602001602082028036833780820191505090505b50905082816000815181106134c5576134c46147a3565b5b602002602001019073ffffffffffffffffffffffffffffffffffffffff16908173ffffffffffffffffffffffffffffffffffffffff16815250508181600181518110613514576135136147a3565b5b602002602001019073ffffffffffffffffffffffffffffffffffffffff16908173ffffffffffffffffffffffffffffffffffffffff16815250506136a1565b600367ffffffffffffffff81111561356e5761356d6144b9565b5b60405190808252806020026020018201604052801561359c5781602001602082028036833780820191505090505b50905082816000815181106135b4576135b36147a3565b5b602002602001019073ffffffffffffffffffffffffffffffffffffffff16908173ffffffffffffffffffffffffffffffffffffffff16815250507382af49447d8a07e3bd95bd0d56f35241523fbab181600181518110613617576136166147a3565b5b602002602001019073ffffffffffffffffffffffffffffffffffffffff16908173ffffffffffffffffffffffffffffffffffffffff16815250508181600281518110613666576136656147a3565b5b602002602001019073ffffffffffffffffffffffffffffffffffffffff16908173ffffffffffffffffffffffffffffffffffffffff16815250505b92915050565b60005b825181101561379a5760008382815181106136c8576136c76147a3565b5b6020026020010151905060008173ffffffffffffffffffffffffffffffffffffffff166370a08231306040518263ffffffff1660e01b815260040161370d9190613fa8565b602060405180830381865afa15801561372a573d6000803e3d6000fd5b505050506040513d601f19601f8201168201806040525081019061374e9190614d88565b905060008111156137855761378486828473ffffffffffffffffffffffffffffffffffffffff166139d99092919063ffffffff16565b5b5050808061379290615290565b9150506136aa565b5060004790506000811180156137ad5750815b156137fa578373ffffffffffffffffffffffffffffffffffffffff166108fc829081150290604051600060405180830381858888f193505050501580156137f8573d6000803e3d6000fd5b505b50505050565b6000613862826040518060400160405280602081526020017f5361666545524332303a206c6f772d6c6576656c2063616c6c206661696c65648152508573ffffffffffffffffffffffffffffffffffffffff16613a5f9092919063ffffffff16565b90506000815111156138c257808060200190518101906138829190614b29565b6138c1576040517f08c379a00000000000000000000000000000000000000000000000000000000081526004016138b89061534b565b60405180910390fd5b5b505050565b6000818473ffffffffffffffffffffffffffffffffffffffff1663dd62ed3e30866040518363ffffffff1660e01b8152600401613905929190615178565b602060405180830381865afa158015613922573d6000803e3d6000fd5b505050506040513d601f19601f820116820180604052508101906139469190614d88565b6139509190614ee5565b90506139d38463095ea7b360e01b8584604051602401613971929190615233565b604051602081830303815290604052907bffffffffffffffffffffffffffffffffffffffffffffffffffffffff19166020820180517bffffffffffffffffffffffffffffffffffffffffffffffffffffffff8381831617835250505050613800565b50505050565b613a5a8363a9059cbb60e01b84846040516024016139f8929190615233565b604051602081830303815290604052907bffffffffffffffffffffffffffffffffffffffffffffffffffffffff19166020820180517bffffffffffffffffffffffffffffffffffffffffffffffffffffffff8381831617835250505050613800565b505050565b6060613a6e8484600085613a77565b90509392505050565b606082471015613abc576040517f08c379a0000000000000000000000000000000000000000000000000000000008152600401613ab3906153dd565b60405180910390fd5b613ac585613b8b565b613b04576040517f08c379a0000000000000000000000000000000000000000000000000000000008152600401613afb90615449565b60405180910390fd5b6000808673ffffffffffffffffffffffffffffffffffffffff168587604051613b2d91906154b0565b60006040518083038185875af1925050503d8060008114613b6a576040519150601f19603f3d011682016040523d82523d6000602084013e613b6f565b606091505b5091509150613b7f828286613bae565b92505050949350505050565b6000808273ffffffffffffffffffffffffffffffffffffffff163b119050919050565b60608315613bbe57829050613c0e565b600083511115613bd15782518084602001fd5b816040517f08c379a0000000000000000000000000000000000000000000000000000000008152600401613c059190615156565b60405180910390fd5b9392505050565b6000604051905090565b600080fd5b600080fd5b6000819050919050565b613c3c81613c29565b8114613c4757600080fd5b50565b600081359050613c5981613c33565b92915050565b600060208284031215613c7557613c74613c1f565b5b6000613c8384828501613c4a565b91505092915050565b60007fffffffff0000000000000000000000000000000000000000000000000000000082169050919050565b613cc181613c8c565b8114613ccc57600080fd5b50565b600081359050613cde81613cb8565b92915050565b600060208284031215613cfa57613cf9613c1f565b5b6000613d0884828501613ccf565b91505092915050565b60008115159050919050565b613d2681613d11565b82525050565b6000602082019050613d416000830184613d1d565b92915050565b6000819050919050565b613d5a81613d47565b82525050565b6000602082019050613d756000830184613d51565b92915050565b600073ffffffffffffffffffffffffffffffffffffffff82169050919050565b6000613da682613d7b565b9050919050565b613db681613d9b565b8114613dc157600080fd5b50565b600081359050613dd381613dad565b92915050565b600060208284031215613def57613dee613c1f565b5b6000613dfd84828501613dc4565b91505092915050565b613e0f81613d47565b8114613e1a57600080fd5b50565b600081359050613e2c81613e06565b92915050565b600060208284031215613e4857613e47613c1f565b5b6000613e5684828501613e1d565b91505092915050565b600060ff82169050919050565b613e7581613e5f565b8114613e8057600080fd5b50565b600081359050613e9281613e6c565b92915050565b600080600080600060a08688031215613eb457613eb3613c1f565b5b6000613ec288828901613e83565b9550506020613ed388828901613c4a565b9450506040613ee488828901613c4a565b9350506060613ef588828901613c4a565b9250506080613f0688828901613c4a565b9150509295509295909350565b613f1c81613c29565b82525050565b6000606082019050613f376000830186613f13565b613f446020830185613f13565b613f516040830184613f13565b949350505050565b60008060408385031215613f7057613f6f613c1f565b5b6000613f7e85828601613e1d565b9250506020613f8f85828601613dc4565b9150509250929050565b613fa281613d9b565b82525050565b6000602082019050613fbd6000830184613f99565b92915050565b60008060408385031215613fda57613fd9613c1f565b5b6000613fe885828601613e83565b9250506020613ff985828601613c4a565b9150509250929050565b6000806000806080858703121561401d5761401c613c1f565b5b600061402b87828801613e83565b945050602061403c87828801613c4a565b935050604061404d87828801613c4a565b925050606061405e87828801613c4a565b91505092959194509250565b600060408201905061407f6000830185613f13565b61408c6020830184613f13565b9392505050565b6000819050919050565b60006140b86140b36140ae84613d7b565b614093565b613d7b565b9050919050565b60006140ca8261409d565b9050919050565b60006140dc826140bf565b9050919050565b6140ec816140d1565b82525050565b600060208201905061410760008301846140e3565b92915050565b6000614118826140bf565b9050919050565b6141288161410d565b82525050565b6000614139826140bf565b9050919050565b6141498161412e565b82525050565b6000606082019050614164600083018661411f565b6141716020830185614140565b61417e6040830184614140565b949350505050565b600080600080608085870312156141a05761419f613c1f565b5b60006141ae87828801613dc4565b94505060206141bf87828801613dc4565b93505060406141d087828801613c4a565b92505060606141e187828801613c4a565b91505092959194509250565b6141f681613d11565b811461420157600080fd5b50565b600081359050614213816141ed565b92915050565b600080604083850312156142305761422f613c1f565b5b600061423e85828601614204565b925050602061424f85828601613c4a565b9150509250929050565b60008060008060008060c0878903121561427657614275613c1f565b5b600061428489828a01613dc4565b965050602061429589828a01613dc4565b95505060406142a689828a01613c4a565b94505060606142b789828a01613c4a565b93505060806142c889828a01613c4a565b92505060a06142d989828a01614204565b9150509295509295509295565b6000806000806000806000806000806101408b8d03121561430a57614309613c1f565b5b60006143188d828e01613dc4565b9a505060206143298d828e01613dc4565b995050604061433a8d828e01613c4a565b985050606061434b8d828e01613dc4565b975050608061435c8d828e01613c4a565b96505060a061436d8d828e01613c4a565b95505060c061437e8d828e01613dc4565b94505060e061438f8d828e01614204565b9350506101006143a18d828e01613c4a565b9250506101206143b38d828e01614204565b9150509295989b9194979a5092959850565b60006143d0826140bf565b9050919050565b6143e0816143c5565b82525050565b60006020820190506143fb60008301846143d7565b92915050565b600080600080600080600060e0888a0312156144205761441f613c1f565b5b600061442e8a828b01613dc4565b975050602061443f8a828b01613c4a565b96505060406144508a828b01613dc4565b95505060606144618a828b01613c4a565b94505060806144728a828b01614204565b93505060a06144838a828b01613c4a565b92505060c06144948a828b01614204565b91505092959891949750929550565b600080fd5b6000601f19601f8301169050919050565b7f4e487b7100000000000000000000000000000000000000000000000000000000600052604160045260246000fd5b6144f1826144a8565b810181811067ffffffffffffffff821117156145105761450f6144b9565b5b80604052505050565b6000614523613c15565b905061452f82826144e8565b919050565b600067ffffffffffffffff82111561454f5761454e6144b9565b5b602082029050602081019050919050565b600080fd5b600061457861457384614534565b614519565b9050808382526020820190506020840283018581111561459b5761459a614560565b5b835b818110156145c457806145b08882613dc4565b84526020840193505060208101905061459d565b5050509392505050565b600082601f8301126145e3576145e26144a3565b5b81356145f3848260208601614565565b91505092915050565b6000806000806080858703121561461657614615613c1f565b5b600061462487828801613dc4565b945050602085013567ffffffffffffffff81111561464557614644613c24565b5b614651878288016145ce565b935050604061466287828801614204565b925050606061467387828801614204565b91505092959194509250565b60006020820190506146946000830184613f13565b92915050565b6000806000606084860312156146b3576146b2613c1f565b5b60006146c186828701613e83565b93505060206146d286828701613c4a565b92505060406146e386828701614204565b9150509250925092565b600080600080600080600080610100898b03121561470e5761470d613c1f565b5b600061471c8b828c01613dc4565b985050602061472d8b828c01613dc4565b975050604061473e8b828c01613dc4565b965050606061474f8b828c01613c4a565b95505060806147608b828c01613c4a565b94505060a06147718b828c01613c4a565b93505060c06147828b828c01613c4a565b92505060e06147938b828c01614204565b9150509295985092959890939650565b7f4e487b7100000000000000000000000000000000000000000000000000000000600052603260045260246000fd5b6000610100820190506147e8600083018b613f99565b6147f5602083018a613f99565b6148026040830189613f13565b61480f6060830188613f13565b61481c6080830187613f13565b61482960a0830186613f13565b61483660c0830185613f99565b61484360e0830184613f13565b9998505050505050505050565b60008151905061485f81613c33565b92915050565b60008060006060848603121561487e5761487d613c1f565b5b600061488c86828701614850565b935050602061489d86828701614850565b92505060406148ae86828701614850565b9150509250925092565b600082825260208201905092915050565b7f416363657373436f6e74726f6c3a2063616e206f6e6c792072656e6f756e636560008201527f20726f6c657320666f722073656c660000000000000000000000000000000000602082015250565b6000614925602f836148b8565b9150614930826148c9565b604082019050919050565b6000602082019050818103600083015261495481614918565b9050919050565b600060e082019050614970600083018a613f99565b61497d6020830189613f99565b61498a6040830188613f13565b6149976060830187613f13565b6149a46080830186613f13565b6149b160a0830185613f99565b6149be60c0830184613f13565b98975050505050505050565b600080604083850312156149e1576149e0613c1f565b5b60006149ef85828601614850565b9250506020614a0085828601614850565b9150509250929050565b614a1381613d9b565b82525050565b614a2281613c29565b82525050565b6000608082019050614a3d6000830187614a0a565b614a4a6020830186614a0a565b614a576040830185614a19565b614a646060830184614a19565b95945050505050565b614a7681613d11565b82525050565b6000604082019050614a916000830185614a6d565b614a9e6020830184614a19565b9392505050565b600060e082019050614aba600083018a614a0a565b614ac76020830189614a0a565b614ad46040830188614a19565b614ae16060830187614a19565b614aee6080830186614a19565b614afb60a0830185614a6d565b614b0860c0830184614a0a565b98975050505050505050565b600081519050614b23816141ed565b92915050565b600060208284031215614b3f57614b3e613c1f565b5b6000614b4d84828501614b14565b91505092915050565b600061014082019050614b6c600083018d614a0a565b614b79602083018c614a0a565b614b86604083018b614a19565b614b93606083018a614a0a565b614ba06080830189614a19565b614bad60a0830188614a19565b614bba60c0830187614a0a565b614bc760e0830186614a6d565b614bd5610100830185614a19565b614be3610120830184614a6d565b9b9a5050505050505050505050565b614bfb816140d1565b82525050565b600081519050919050565b600082825260208201905092915050565b6000819050602082019050919050565b614c3681613d9b565b82525050565b6000614c488383614c2d565b60208301905092915050565b6000602082019050919050565b6000614c6c82614c01565b614c768185614c0c565b9350614c8183614c1d565b8060005b83811015614cb2578151614c998882614c3c565b9750614ca483614c54565b925050600181019050614c85565b5085935050505092915050565b600060a082019050614cd46000830188614bf2565b614ce16020830187614a19565b614cee6040830186614a19565b8181036060830152614d008185614c61565b9050614d0f6080830184614a0a565b9695505050505050565b600060e082019050614d2e600083018a614a0a565b614d3b6020830189614a19565b614d486040830188614a0a565b614d556060830187614a19565b614d626080830186614a6d565b614d6f60a0830185614a19565b614d7c60c0830184614a6d565b98975050505050505050565b600060208284031215614d9e57614d9d613c1f565b5b6000614dac84828501614850565b91505092915050565b6000604082019050614dca6000830185613f13565b614dd76020830184613d1d565b9392505050565b600061010082019050614df4600083018b614a0a565b614e01602083018a614a0a565b614e0e6040830189614a0a565b614e1b6060830188614a19565b614e286080830187614a19565b614e3560a0830186614a19565b614e4260c0830185614a19565b614e4f60e0830184614a6d565b9998505050505050505050565b7f4e487b7100000000000000000000000000000000000000000000000000000000600052601160045260246000fd5b6000614e9682613c29565b9150614ea183613c29565b9250817fffffffffffffffffffffffffffffffffffffffffffffffffffffffffffffffff0483118215151615614eda57614ed9614e5c565b5b828202905092915050565b6000614ef082613c29565b9150614efb83613c29565b9250827fffffffffffffffffffffffffffffffffffffffffffffffffffffffffffffffff03821115614f3057614f2f614e5c565b5b828201905092915050565b6000614f4682613c29565b91506000821415614f5a57614f59614e5c565b5b600182039050919050565b7f537472696e67733a20686578206c656e67746820696e73756666696369656e74600082015250565b6000614f9b6020836148b8565b9150614fa682614f65565b602082019050919050565b60006020820190508181036000830152614fca81614f8e565b9050919050565b600081905092915050565b7f416363657373436f6e74726f6c3a206163636f756e7420000000000000000000600082015250565b6000615012601783614fd1565b915061501d82614fdc565b601782019050919050565b600081519050919050565b60005b83811015615051578082015181840152602081019050615036565b83811115615060576000848401525b50505050565b600061507182615028565b61507b8185614fd1565b935061508b818560208601615033565b80840191505092915050565b7f206973206d697373696e6720726f6c6520000000000000000000000000000000600082015250565b60006150cd601183614fd1565b91506150d882615097565b601182019050919050565b60006150ee82615005565b91506150fa8285615066565b9150615105826150c0565b91506151118284615066565b91508190509392505050565b600061512882615028565b61513281856148b8565b9350615142818560208601615033565b61514b816144a8565b840191505092915050565b60006020820190508181036000830152615170818461511d565b905092915050565b600060408201905061518d6000830185613f99565b61519a6020830184613f99565b9392505050565b7f5361666545524332303a20617070726f76652066726f6d206e6f6e2d7a65726f60008201527f20746f206e6f6e2d7a65726f20616c6c6f77616e636500000000000000000000602082015250565b60006151fd6036836148b8565b9150615208826151a1565b604082019050919050565b6000602082019050818103600083015261522c816151f0565b9050919050565b60006040820190506152486000830185613f99565b6152556020830184613f13565b9392505050565b600061526782613c29565b915061527283613c29565b92508282101561528557615284614e5c565b5b828203905092915050565b600061529b82613c29565b91507fffffffffffffffffffffffffffffffffffffffffffffffffffffffffffffffff8214156152ce576152cd614e5c565b5b600182019050919050565b7f5361666545524332303a204552433230206f7065726174696f6e20646964206e60008201527f6f74207375636365656400000000000000000000000000000000000000000000602082015250565b6000615335602a836148b8565b9150615340826152d9565b604082019050919050565b6000602082019050818103600083015261536481615328565b9050919050565b7f416464726573733a20696e73756666696369656e742062616c616e636520666f60008201527f722063616c6c0000000000000000000000000000000000000000000000000000602082015250565b60006153c76026836148b8565b91506153d28261536b565b604082019050919050565b600060208201905081810360008301526153f6816153ba565b9050919050565b7f416464726573733a2063616c6c20746f206e6f6e2d636f6e7472616374000000600082015250565b6000615433601d836148b8565b915061543e826153fd565b602082019050919050565b6000602082019050818103600083015261546281615426565b9050919050565b600081519050919050565b600081905092915050565b600061548a82615469565b6154948185615474565b93506154a4818560208601615033565b80840191505092915050565b60006154bc828461547f565b91508190509291505056fea264697066735822122037dea3d4581c2c1344237ce8350d1dd900ac4af7603661c85749378e36bad34164736f6c634300080a0033",
  "linkReferences": {
    "contracts/VaultsV2/library/SushiRouterWrapper.sol": {
      "SushiRouterWrapper": [
        {
          "length": 20,
          "start": 13026
        }
      ]
    },
    "contracts/VaultsV3/library/GmxLibrary.sol": {
      "GmxLibrary": [
        {
          "length": 20,
          "start": 11875
        },
        {
          "length": 20,
          "start": 12077
        },
        {
          "length": 20,
          "start": 12481
        },
        {
          "length": 20,
          "start": 12702
        },
        {
          "length": 20,
          "start": 13196
        },
        {
          "length": 20,
          "start": 15531
        }
      ]
    }
  },
  "deployedLinkReferences": {
    "contracts/VaultsV2/library/SushiRouterWrapper.sol": {
      "SushiRouterWrapper": [
        {
          "length": 20,
          "start": 7754
        }
      ]
    },
    "contracts/VaultsV3/library/GmxLibrary.sol": {
      "GmxLibrary": [
        {
          "length": 20,
          "start": 6603
        },
        {
          "length": 20,
          "start": 6805
        },
        {
          "length": 20,
          "start": 7209
        },
        {
          "length": 20,
          "start": 7430
        },
        {
          "length": 20,
          "start": 7924
        },
        {
          "length": 20,
          "start": 10259
        }
      ]
    }
  }
}