{
  "_format": "hh-sol-artifact-1",
  "contractName": "JonesSSOVCallV3Strategy",
  "sourceName": "contracts/VaultsV3/JonesSSOVCallV3Strategy.sol",
  "abi": [
    {
      "inputs": [
        {
          "internalType": "bytes32",
          "name": "_name",
          "type": "bytes32"
        },
        {
          "internalType": "address",
          "name": "_asset",
          "type": "address"
        },
        {
          "internalType": "address",
          "name": "_SSOV",
          "type": "address"
        },
        {
          "internalType": "address",
          "name": "_viewer",
          "type": "address"
        },
        {
          "internalType": "address",
          "name": "_router",
          "type": "address"
        },
        {
          "internalType": "address",
          "name": "_governor",
          "type": "address"
        }
      ],
      "stateMutability": "nonpayable",
      "type": "constructor"
    },
    {
      "inputs": [],
      "name": "ADDRESS_CANNOT_BE_ZERO_ADDRESS",
      "type": "error"
    },
    {
      "inputs": [],
      "name": "BORROW_AMOUNT_ZERO",
      "type": "error"
    },
    {
      "inputs": [],
      "name": "MANAGEMENT_WINDOW_NOT_OPEN",
      "type": "error"
    },
    {
      "inputs": [],
      "name": "MSG_SENDER_DOES_NOT_HAVE_PERMISSION_TO_EMERGENCY_WITHDRAW",
      "type": "error"
    },
    {
      "inputs": [],
      "name": "NOT_ENOUGH_AVAILABLE_ASSETS",
      "type": "error"
    },
    {
      "inputs": [],
      "name": "STRATEGY_STILL_HAS_ASSET_BALANCE",
      "type": "error"
    },
    {
      "inputs": [],
      "name": "VAULT_ALREADY_ATTACHED",
      "type": "error"
    },
    {
      "inputs": [],
      "name": "VAULT_NOT_ATTACHED",
      "type": "error"
    },
    {
      "anonymous": false,
      "inputs": [
        {
          "indexed": true,
          "internalType": "address",
          "name": "strategist",
          "type": "address"
        },
        {
          "indexed": false,
          "internalType": "uint256",
          "name": "amount",
          "type": "uint256"
        },
        {
          "indexed": true,
          "internalType": "address",
          "name": "vault",
          "type": "address"
        },
        {
          "indexed": true,
          "internalType": "address",
          "name": "asset",
          "type": "address"
        }
      ],
      "name": "Borrow",
      "type": "event"
    },
    {
      "anonymous": false,
      "inputs": [
        {
          "indexed": true,
          "internalType": "address",
          "name": "governor",
          "type": "address"
        }
      ],
      "name": "FundsMigrated",
      "type": "event"
    },
    {
      "anonymous": false,
      "inputs": [
        {
          "indexed": true,
          "internalType": "address",
          "name": "strategist",
          "type": "address"
        },
        {
          "indexed": false,
          "internalType": "uint256",
          "name": "amount",
          "type": "uint256"
        },
        {
          "indexed": true,
          "internalType": "address",
          "name": "vault",
          "type": "address"
        },
        {
          "indexed": true,
          "internalType": "address",
          "name": "asset",
          "type": "address"
        }
      ],
      "name": "Repay",
      "type": "event"
    },
    {
      "anonymous": false,
      "inputs": [
        {
          "indexed": true,
          "internalType": "bytes32",
          "name": "role",
          "type": "bytes32"
        },
        {
          "indexed": true,
          "internalType": "bytes32",
          "name": "previousAdminRole",
          "type": "bytes32"
        },
        {
          "indexed": true,
          "internalType": "bytes32",
          "name": "newAdminRole",
          "type": "bytes32"
        }
      ],
      "name": "RoleAdminChanged",
      "type": "event"
    },
    {
      "anonymous": false,
      "inputs": [
        {
          "indexed": true,
          "internalType": "bytes32",
          "name": "role",
          "type": "bytes32"
        },
        {
          "indexed": true,
          "internalType": "address",
          "name": "account",
          "type": "address"
        },
        {
          "indexed": true,
          "internalType": "address",
          "name": "sender",
          "type": "address"
        }
      ],
      "name": "RoleGranted",
      "type": "event"
    },
    {
      "anonymous": false,
      "inputs": [
        {
          "indexed": true,
          "internalType": "bytes32",
          "name": "role",
          "type": "bytes32"
        },
        {
          "indexed": true,
          "internalType": "address",
          "name": "account",
          "type": "address"
        },
        {
          "indexed": true,
          "internalType": "address",
          "name": "sender",
          "type": "address"
        }
      ],
      "name": "RoleRevoked",
      "type": "event"
    },
    {
      "anonymous": false,
      "inputs": [
        {
          "indexed": true,
          "internalType": "address",
          "name": "governor",
          "type": "address"
        },
        {
          "indexed": true,
          "internalType": "address",
          "name": "vault",
          "type": "address"
        }
      ],
      "name": "VaultDetached",
      "type": "event"
    },
    {
      "anonymous": false,
      "inputs": [
        {
          "indexed": true,
          "internalType": "address",
          "name": "governor",
          "type": "address"
        },
        {
          "indexed": true,
          "internalType": "address",
          "name": "vault",
          "type": "address"
        }
      ],
      "name": "VaultSet",
      "type": "event"
    },
    {
      "inputs": [],
      "name": "DEFAULT_ADMIN_ROLE",
      "outputs": [
        {
          "internalType": "bytes32",
          "name": "",
          "type": "bytes32"
        }
      ],
      "stateMutability": "view",
      "type": "function"
    },
    {
      "inputs": [],
      "name": "GOVERNOR",
      "outputs": [
        {
          "internalType": "bytes32",
          "name": "",
          "type": "bytes32"
        }
      ],
      "stateMutability": "view",
      "type": "function"
    },
    {
      "inputs": [],
      "name": "KEEPER",
      "outputs": [
        {
          "internalType": "bytes32",
          "name": "",
          "type": "bytes32"
        }
      ],
      "stateMutability": "view",
      "type": "function"
    },
    {
      "inputs": [],
      "name": "SSOV",
      "outputs": [
        {
          "internalType": "contract ISsovV3",
          "name": "",
          "type": "address"
        }
      ],
      "stateMutability": "view",
      "type": "function"
    },
    {
      "inputs": [],
      "name": "SSOVViewer",
      "outputs": [
        {
          "internalType": "contract ISsovV3Viewer",
          "name": "",
          "type": "address"
        }
      ],
      "stateMutability": "view",
      "type": "function"
    },
    {
      "inputs": [],
      "name": "asset",
      "outputs": [
        {
          "internalType": "address",
          "name": "",
          "type": "address"
        }
      ],
      "stateMutability": "view",
      "type": "function"
    },
    {
      "inputs": [
        {
          "internalType": "uint256",
          "name": "_amount",
          "type": "uint256"
        }
      ],
      "name": "borrow",
      "outputs": [],
      "stateMutability": "nonpayable",
      "type": "function"
    },
    {
      "inputs": [
        {
          "internalType": "uint256",
          "name": "_strikeIndex",
          "type": "uint256"
        },
        {
          "internalType": "uint256",
          "name": "_amount",
          "type": "uint256"
        }
      ],
      "name": "depositSSOV",
      "outputs": [
        {
          "internalType": "uint256",
          "name": "tokenId",
          "type": "uint256"
        }
      ],
      "stateMutability": "nonpayable",
      "type": "function"
    },
    {
      "inputs": [
        {
          "internalType": "uint256[]",
          "name": "_strikeIndices",
          "type": "uint256[]"
        },
        {
          "internalType": "uint256[]",
          "name": "_amounts",
          "type": "uint256[]"
        }
      ],
      "name": "depositSSOVMultiple",
      "outputs": [
        {
          "internalType": "bool",
          "name": "",
          "type": "bool"
        }
      ],
      "stateMutability": "nonpayable",
      "type": "function"
    },
    {
      "inputs": [],
      "name": "detach",
      "outputs": [],
      "stateMutability": "nonpayable",
      "type": "function"
    },
    {
      "inputs": [
        {
          "internalType": "bytes32",
          "name": "role",
          "type": "bytes32"
        }
      ],
      "name": "getRoleAdmin",
      "outputs": [
        {
          "internalType": "bytes32",
          "name": "",
          "type": "bytes32"
        }
      ],
      "stateMutability": "view",
      "type": "function"
    },
    {
      "inputs": [],
      "name": "getUnused",
      "outputs": [
        {
          "internalType": "uint256",
          "name": "",
          "type": "uint256"
        }
      ],
      "stateMutability": "view",
      "type": "function"
    },
    {
      "inputs": [],
      "name": "getVault",
      "outputs": [
        {
          "internalType": "address",
          "name": "",
          "type": "address"
        }
      ],
      "stateMutability": "view",
      "type": "function"
    },
    {
      "inputs": [
        {
          "internalType": "address",
          "name": "_to",
          "type": "address"
        }
      ],
      "name": "grantKeeperRole",
      "outputs": [],
      "stateMutability": "nonpayable",
      "type": "function"
    },
    {
      "inputs": [
        {
          "internalType": "bytes32",
          "name": "role",
          "type": "bytes32"
        },
        {
          "internalType": "address",
          "name": "account",
          "type": "address"
        }
      ],
      "name": "grantRole",
      "outputs": [],
      "stateMutability": "nonpayable",
      "type": "function"
    },
    {
      "inputs": [
        {
          "internalType": "bytes32",
          "name": "role",
          "type": "bytes32"
        },
        {
          "internalType": "address",
          "name": "account",
          "type": "address"
        }
      ],
      "name": "hasRole",
      "outputs": [
        {
          "internalType": "bool",
          "name": "",
          "type": "bool"
        }
      ],
      "stateMutability": "view",
      "type": "function"
    },
    {
      "inputs": [],
      "name": "isVaultSet",
      "outputs": [
        {
          "internalType": "bool",
          "name": "",
          "type": "bool"
        }
      ],
      "stateMutability": "view",
      "type": "function"
    },
    {
      "inputs": [
        {
          "internalType": "address",
          "name": "_to",
          "type": "address"
        },
        {
          "internalType": "address[]",
          "name": "_tokens",
          "type": "address[]"
        },
        {
          "internalType": "bool",
          "name": "_shouldTransferEth",
          "type": "bool"
        },
        {
          "internalType": "bool",
          "name": "_shouldTransferERC721",
          "type": "bool"
        }
      ],
      "name": "migrateFunds",
      "outputs": [],
      "stateMutability": "nonpayable",
      "type": "function"
    },
    {
      "inputs": [],
      "name": "name",
      "outputs": [
        {
          "internalType": "bytes32",
          "name": "",
          "type": "bytes32"
        }
      ],
      "stateMutability": "view",
      "type": "function"
    },
    {
      "inputs": [
        {
          "internalType": "address",
          "name": "",
          "type": "address"
        },
        {
          "internalType": "address",
          "name": "",
          "type": "address"
        },
        {
          "internalType": "uint256",
          "name": "",
          "type": "uint256"
        },
        {
          "internalType": "bytes",
          "name": "",
          "type": "bytes"
        }
      ],
      "name": "onERC721Received",
      "outputs": [
        {
          "internalType": "bytes4",
          "name": "",
          "type": "bytes4"
        }
      ],
      "stateMutability": "pure",
      "type": "function"
    },
    {
      "inputs": [
        {
          "internalType": "uint256",
          "name": "_strikeIndex",
          "type": "uint256"
        },
        {
          "internalType": "uint256",
          "name": "_amount",
          "type": "uint256"
        }
      ],
      "name": "purchaseOption",
      "outputs": [
        {
          "internalType": "bool",
          "name": "",
          "type": "bool"
        }
      ],
      "stateMutability": "nonpayable",
      "type": "function"
    },
    {
      "inputs": [
        {
          "internalType": "bytes32",
          "name": "role",
          "type": "bytes32"
        },
        {
          "internalType": "address",
          "name": "account",
          "type": "address"
        }
      ],
      "name": "renounceRole",
      "outputs": [],
      "stateMutability": "nonpayable",
      "type": "function"
    },
    {
      "inputs": [],
      "name": "repay",
      "outputs": [],
      "stateMutability": "nonpayable",
      "type": "function"
    },
    {
      "inputs": [
        {
          "internalType": "address",
          "name": "_from",
          "type": "address"
        }
      ],
      "name": "revokeKeeperRole",
      "outputs": [],
      "stateMutability": "nonpayable",
      "type": "function"
    },
    {
      "inputs": [
        {
          "internalType": "bytes32",
          "name": "role",
          "type": "bytes32"
        },
        {
          "internalType": "address",
          "name": "account",
          "type": "address"
        }
      ],
      "name": "revokeRole",
      "outputs": [],
      "stateMutability": "nonpayable",
      "type": "function"
    },
    {
      "inputs": [],
      "name": "router",
      "outputs": [
        {
          "internalType": "contract ISsovV3Router",
          "name": "",
          "type": "address"
        }
      ],
      "stateMutability": "view",
      "type": "function"
    },
    {
      "inputs": [
        {
          "internalType": "address[]",
          "name": "_rewardTokens",
          "type": "address[]"
        },
        {
          "internalType": "uint256[]",
          "name": "_minBaseOutputAmounts",
          "type": "uint256[]"
        }
      ],
      "name": "sellRewardTokensForBaseToken",
      "outputs": [],
      "stateMutability": "nonpayable",
      "type": "function"
    },
    {
      "inputs": [
        {
          "internalType": "address",
          "name": "_newVault",
          "type": "address"
        }
      ],
      "name": "setVault",
      "outputs": [],
      "stateMutability": "nonpayable",
      "type": "function"
    },
    {
      "inputs": [
        {
          "internalType": "uint256",
          "name": "_ssovEpoch",
          "type": "uint256"
        },
        {
          "internalType": "uint256[]",
          "name": "_ssovStrikes",
          "type": "uint256[]"
        }
      ],
      "name": "settleEpoch",
      "outputs": [
        {
          "internalType": "bool",
          "name": "",
          "type": "bool"
        }
      ],
      "stateMutability": "nonpayable",
      "type": "function"
    },
    {
      "inputs": [
        {
          "internalType": "bytes4",
          "name": "interfaceId",
          "type": "bytes4"
        }
      ],
      "name": "supportsInterface",
      "outputs": [
        {
          "internalType": "bool",
          "name": "",
          "type": "bool"
        }
      ],
      "stateMutability": "view",
      "type": "function"
    },
    {
      "inputs": [],
      "name": "totalDeposited",
      "outputs": [
        {
          "internalType": "uint256",
          "name": "",
          "type": "uint256"
        }
      ],
      "stateMutability": "view",
      "type": "function"
    },
    {
      "inputs": [
        {
          "internalType": "contract ISsovV3",
          "name": "_newSSOV",
          "type": "address"
        }
      ],
      "name": "updateSSOVAddress",
      "outputs": [],
      "stateMutability": "nonpayable",
      "type": "function"
    },
    {
      "inputs": [],
      "name": "viewer",
      "outputs": [
        {
          "internalType": "contract ISsovV3Viewer",
          "name": "",
          "type": "address"
        }
      ],
      "stateMutability": "view",
      "type": "function"
    },
    {
      "inputs": [],
      "name": "wETH",
      "outputs": [
        {
          "internalType": "address",
          "name": "",
          "type": "address"
        }
      ],
      "stateMutability": "view",
      "type": "function"
    },
    {
      "inputs": [
        {
          "internalType": "uint256",
          "name": "_epoch",
          "type": "uint256"
        },
        {
          "internalType": "uint256[]",
          "name": "_strikes",
          "type": "uint256[]"
        }
      ],
      "name": "withdrawEpoch",
      "outputs": [
        {
          "internalType": "bool",
          "name": "",
          "type": "bool"
        }
      ],
      "stateMutability": "nonpayable",
      "type": "function"
    },
    {
      "inputs": [
        {
          "internalType": "uint256",
          "name": "_tokenId",
          "type": "uint256"
        }
      ],
      "name": "withdrawTokenId",
      "outputs": [
        {
          "internalType": "bool",
          "name": "",
          "type": "bool"
        }
      ],
      "stateMutability": "nonpayable",
      "type": "function"
    },
    {
      "anonymous": false,
      "inputs": [
        {
          "indexed": true,
          "internalType": "uint256",
          "name": "_epoch",
          "type": "uint256"
        },
        {
          "indexed": false,
          "internalType": "uint256",
          "name": "_strikeIndex",
          "type": "uint256"
        },
        {
          "indexed": false,
          "internalType": "uint256",
          "name": "_amount",
          "type": "uint256"
        },
        {
          "indexed": false,
          "internalType": "uint256",
          "name": "_premium",
          "type": "uint256"
        },
        {
          "indexed": false,
          "internalType": "uint256",
          "name": "_totalFee",
          "type": "uint256"
        },
        {
          "indexed": false,
          "internalType": "address",
          "name": "_token",
          "type": "address"
        }
      ],
      "name": "SSOVPurchase",
      "type": "event"
    }
  ],
  "bytecode": "0x60c06040523480156200001157600080fd5b506040516200588738038062005887833981810160405281019062000037919062000ac7565b858585858585858582600073ffffffffffffffffffffffffffffffffffffffff168273ffffffffffffffffffffffffffffffffffffffff161415620000a8576040517f9cfbf00600000000000000000000000000000000000000000000000000000000815260040160405180910390fd5b600073ffffffffffffffffffffffffffffffffffffffff168173ffffffffffffffffffffffffffffffffffffffff16141562000110576040517f9cfbf00600000000000000000000000000000000000000000000000000000000815260040160405180910390fd5b8260a081815250508173ffffffffffffffffffffffffffffffffffffffff1660808173ffffffffffffffffffffffffffffffffffffffff16815250506200017e7f1a6838efa4183e08fe3607359d1259272af9d4716f65e1a7b5921f78fd5a3c6a82620004ac60201b60201c565b620001b07f71a9859d7dd21b24504a6f306077ffc2d510b4d4b61128e931fe937441ad183682620004ac60201b60201c565b505050600073ffffffffffffffffffffffffffffffffffffffff168473ffffffffffffffffffffffffffffffffffffffff1614156200021b576040517f9cfbf00600000000000000000000000000000000000000000000000000000000815260040160405180910390fd5b600073ffffffffffffffffffffffffffffffffffffffff168373ffffffffffffffffffffffffffffffffffffffff16141562000283576040517f9cfbf00600000000000000000000000000000000000000000000000000000000815260040160405180910390fd5b600073ffffffffffffffffffffffffffffffffffffffff168273ffffffffffffffffffffffffffffffffffffffff161415620002eb576040517f9cfbf00600000000000000000000000000000000000000000000000000000000815260040160405180910390fd5b83600360016101000a81548173ffffffffffffffffffffffffffffffffffffffff021916908373ffffffffffffffffffffffffffffffffffffffff16021790555082600560006101000a81548173ffffffffffffffffffffffffffffffffffffffff021916908373ffffffffffffffffffffffffffffffffffffffff16021790555081600660006101000a81548173ffffffffffffffffffffffffffffffffffffffff021916908373ffffffffffffffffffffffffffffffffffffffff1602179055505050505050506200042a600360019054906101000a900473ffffffffffffffffffffffffffffffffffffffff167fffffffffffffffffffffffffffffffffffffffffffffffffffffffffffffffff60805173ffffffffffffffffffffffffffffffffffffffff166200059d60201b6200240a179092919060201c565b620004a0600660009054906101000a900473ffffffffffffffffffffffffffffffffffffffff167fffffffffffffffffffffffffffffffffffffffffffffffffffffffffffffffff60805173ffffffffffffffffffffffffffffffffffffffff166200059d60201b6200240a179092919060201c565b50505050505062001023565b620004be8282620006ff60201b60201c565b6200059957600160008084815260200190815260200160002060000160008373ffffffffffffffffffffffffffffffffffffffff1673ffffffffffffffffffffffffffffffffffffffff16815260200190815260200160002060006101000a81548160ff0219169083151502179055506200053e6200076960201b60201c565b73ffffffffffffffffffffffffffffffffffffffff168173ffffffffffffffffffffffffffffffffffffffff16837f2f8788117e7eff1d82e926ec794901d17c78024a50270940304540a733656f0d60405160405180910390a45b5050565b60008114806200062d575060008373ffffffffffffffffffffffffffffffffffffffff1663dd62ed3e30856040518363ffffffff1660e01b8152600401620005e792919062000b74565b602060405180830381865afa15801562000605573d6000803e3d6000fd5b505050506040513d601f19601f820116820180604052508101906200062b919062000bdc565b145b6200066f576040517f08c379a0000000000000000000000000000000000000000000000000000000008152600401620006669062000c95565b60405180910390fd5b620006fa8363095ea7b360e01b84846040516024016200069192919062000cc8565b604051602081830303815290604052907bffffffffffffffffffffffffffffffffffffffffffffffffffffffff19166020820180517bffffffffffffffffffffffffffffffffffffffffffffffffffffffff83818316178352505050506200077160201b60201c565b505050565b600080600084815260200190815260200160002060000160008373ffffffffffffffffffffffffffffffffffffffff1673ffffffffffffffffffffffffffffffffffffffff16815260200190815260200160002060009054906101000a900460ff16905092915050565b600033905090565b6000620007da826040518060400160405280602081526020017f5361666545524332303a206c6f772d6c6576656c2063616c6c206661696c65648152508573ffffffffffffffffffffffffffffffffffffffff166200084560201b62002559179092919060201c565b9050600081511115620008405780806020019051810190620007fd919062000d32565b6200083f576040517f08c379a0000000000000000000000000000000000000000000000000000000008152600401620008369062000dda565b60405180910390fd5b5b505050565b60606200085c84846000856200086560201b60201c565b90509392505050565b606082471015620008ad576040517f08c379a0000000000000000000000000000000000000000000000000000000008152600401620008a49062000e72565b60405180910390fd5b620008be856200099360201b60201c565b62000900576040517f08c379a0000000000000000000000000000000000000000000000000000000008152600401620008f79062000ee4565b60405180910390fd5b6000808673ffffffffffffffffffffffffffffffffffffffff1685876040516200092b919062000f89565b60006040518083038185875af1925050503d80600081146200096a576040519150601f19603f3d011682016040523d82523d6000602084013e6200096f565b606091505b509150915062000987828286620009b660201b60201c565b92505050949350505050565b6000808273ffffffffffffffffffffffffffffffffffffffff163b119050919050565b60608315620009c85782905062000a1b565b600083511115620009dc5782518084602001fd5b816040517f08c379a000000000000000000000000000000000000000000000000000000000815260040162000a12919062000fff565b60405180910390fd5b9392505050565b600080fd5b6000819050919050565b62000a3c8162000a27565b811462000a4857600080fd5b50565b60008151905062000a5c8162000a31565b92915050565b600073ffffffffffffffffffffffffffffffffffffffff82169050919050565b600062000a8f8262000a62565b9050919050565b62000aa18162000a82565b811462000aad57600080fd5b50565b60008151905062000ac18162000a96565b92915050565b60008060008060008060c0878903121562000ae75762000ae662000a22565b5b600062000af789828a0162000a4b565b965050602062000b0a89828a0162000ab0565b955050604062000b1d89828a0162000ab0565b945050606062000b3089828a0162000ab0565b935050608062000b4389828a0162000ab0565b92505060a062000b5689828a0162000ab0565b9150509295509295509295565b62000b6e8162000a82565b82525050565b600060408201905062000b8b600083018562000b63565b62000b9a602083018462000b63565b9392505050565b6000819050919050565b62000bb68162000ba1565b811462000bc257600080fd5b50565b60008151905062000bd68162000bab565b92915050565b60006020828403121562000bf55762000bf462000a22565b5b600062000c058482850162000bc5565b91505092915050565b600082825260208201905092915050565b7f5361666545524332303a20617070726f76652066726f6d206e6f6e2d7a65726f60008201527f20746f206e6f6e2d7a65726f20616c6c6f77616e636500000000000000000000602082015250565b600062000c7d60368362000c0e565b915062000c8a8262000c1f565b604082019050919050565b6000602082019050818103600083015262000cb08162000c6e565b9050919050565b62000cc28162000ba1565b82525050565b600060408201905062000cdf600083018562000b63565b62000cee602083018462000cb7565b9392505050565b60008115159050919050565b62000d0c8162000cf5565b811462000d1857600080fd5b50565b60008151905062000d2c8162000d01565b92915050565b60006020828403121562000d4b5762000d4a62000a22565b5b600062000d5b8482850162000d1b565b91505092915050565b7f5361666545524332303a204552433230206f7065726174696f6e20646964206e60008201527f6f74207375636365656400000000000000000000000000000000000000000000602082015250565b600062000dc2602a8362000c0e565b915062000dcf8262000d64565b604082019050919050565b6000602082019050818103600083015262000df58162000db3565b9050919050565b7f416464726573733a20696e73756666696369656e742062616c616e636520666f60008201527f722063616c6c0000000000000000000000000000000000000000000000000000602082015250565b600062000e5a60268362000c0e565b915062000e678262000dfc565b604082019050919050565b6000602082019050818103600083015262000e8d8162000e4b565b9050919050565b7f416464726573733a2063616c6c20746f206e6f6e2d636f6e7472616374000000600082015250565b600062000ecc601d8362000c0e565b915062000ed98262000e94565b602082019050919050565b6000602082019050818103600083015262000eff8162000ebd565b9050919050565b600081519050919050565b600081905092915050565b60005b8381101562000f3c57808201518184015260208101905062000f1f565b8381111562000f4c576000848401525b50505050565b600062000f5f8262000f06565b62000f6b818562000f11565b935062000f7d81856020860162000f1c565b80840191505092915050565b600062000f97828462000f52565b915081905092915050565b600081519050919050565b6000601f19601f8301169050919050565b600062000fcb8262000fa2565b62000fd7818562000c0e565b935062000fe981856020860162000f1c565b62000ff48162000fad565b840191505092915050565b600060208201905081810360008301526200101b818462000fbe565b905092915050565b60805160a0516147f86200108f600039600061074d0152600081816109a501528181610d810152818161111b015281816114b401528181611582015281816116dc01528181611b5a01528181611e380152818161218901528181612303015261279b01526147f86000f3fe608060405234801561001057600080fd5b506004361061021c5760003560e01c80638d928af811610125578063c5ebeaec116100ad578063ea0ab0561161007c578063ea0ab0561461063b578063f242862114610659578063f30878c114610677578063f887ea4014610695578063ff50abdc146106b35761021c565b8063c5ebeaec146105c9578063c7fbe3a8146105e5578063cc1f071a14610603578063d547741f1461061f5761021c565b8063a217fddf116100f4578063a217fddf14610527578063b34e837814610545578063b6e2dc3514610561578063bb6ad6ef1461057d578063bdaa4aa4146105ad5761021c565b80638d928af81461049d57806391d14854146104bb57806399c64859146104eb5780639abbde03146105095761021c565b80633824c59c116101a857806360e9791a1161017757806360e9791a146103e55780636817031b146104155780636dc0ae22146104315780637b1ae4361461044f578063862a179e1461047f5761021c565b80633824c59c1461037157806338d52e0f146103a1578063402d8883146103bf5780634106d274146103c95761021c565b8063225435c0116101ef578063225435c0146102cf578063248a9ca3146102d957806326882c57146103095780632f2ff15d1461033957806336568abe146103555761021c565b806301ffc9a71461022157806306fdde0314610251578063150b7a021461026f57806315fa7e721461029f575b600080fd5b61023b60048036038101906102369190612fb5565b6106d1565b6040516102489190612ffd565b60405180910390f35b61025961074b565b6040516102669190613031565b60405180910390f35b61028960048036038101906102849190613145565b61076f565b60405161029691906131dc565b60405180910390f35b6102b960048036038101906102b491906131f7565b61079d565b6040516102c69190612ffd565b60405180910390f35b6102d7610892565b005b6102f360048036038101906102ee9190613263565b610aa4565b6040516103009190613031565b60405180910390f35b610323600480360381019061031e91906133df565b610ac3565b6040516103309190612ffd565b60405180910390f35b610353600480360381019061034e919061343b565b610bdf565b005b61036f600480360381019061036a919061343b565b610c08565b005b61038b6004803603810190610386919061347b565b610c8b565b6040516103989190612ffd565b60405180910390f35b6103a9610d7f565b6040516103b69190613502565b60405180910390f35b6103c7610da3565b005b6103e360048036038101906103de919061351d565b610de0565b005b6103ff60048036038101906103fa91906133df565b610ea7565b60405161040c9190612ffd565b60405180910390f35b61042f600480360381019061042a919061351d565b610fb1565b005b610439611201565b6040516104469190613031565b60405180910390f35b610469600480360381019061046491906131f7565b611225565b6040516104769190613559565b60405180910390f35b61048761131a565b6040516104949190613031565b60405180910390f35b6104a561133e565b6040516104b29190613502565b60405180910390f35b6104d560048036038101906104d0919061343b565b6113ae565b6040516104e29190612ffd565b60405180910390f35b6104f3611418565b60405161050091906135d3565b60405180910390f35b61051161143e565b60405161051e9190612ffd565b60405180910390f35b61052f611451565b60405161053c9190613031565b60405180910390f35b61055f600480360381019061055a919061362c565b611458565b005b61057b60048036038101906105769190613748565b6115ca565b005b610597600480360381019061059291906137cb565b611999565b6040516105a49190612ffd565b60405180910390f35b6105c760048036038101906105c291906137f8565b611a7d565b005b6105e360048036038101906105de91906137cb565b61202e565b005b6105ed612250565b6040516105fa9190613891565b60405180910390f35b61061d6004803603810190610618919061351d565b612276565b005b6106396004803603810190610634919061343b565b6122d6565b005b6106436122ff565b6040516106509190613559565b60405180910390f35b6106616123a0565b60405161066e9190613502565b60405180910390f35b61067f6123b8565b60405161068c91906135d3565b60405180910390f35b61069d6123de565b6040516106aa91906138cd565b60405180910390f35b6106bb612404565b6040516106c89190613559565b60405180910390f35b60007f7965db0b000000000000000000000000000000000000000000000000000000007bffffffffffffffffffffffffffffffffffffffffffffffffffffffff1916827bffffffffffffffffffffffffffffffffffffffffffffffffffffffff19161480610744575061074382612571565b5b9050919050565b7f000000000000000000000000000000000000000000000000000000000000000081565b60007f150b7a023d4804d13e8c85fb27262cb750cf6ba9f9dd3bb30d90f482ceeb4b1f905095945050505050565b60007f71a9859d7dd21b24504a6f306077ffc2d510b4d4b61128e931fe937441ad18366107d1816107cc6125db565b6125e3565b600360019054906101000a900473ffffffffffffffffffffffffffffffffffffffff1673ffffffffffffffffffffffffffffffffffffffff1673__$6e88b035a5d9f7e9a50b584dee2ad9e3f8$__6345e5edf990918686306040518563ffffffff1660e01b81526004016108489493929190613915565b602060405180830381865af4158015610865573d6000803e3d6000fd5b505050506040513d601f19601f82011682018060405250810190610889919061396f565b91505092915050565b7f1a6838efa4183e08fe3607359d1259272af9d4716f65e1a7b5921f78fd5a3c6a6108c4816108bf6125db565b6125e3565b600360009054906101000a900460ff1661090a576040517f23eecdf600000000000000000000000000000000000000000000000000000000815260040160405180910390fd5b610912612680565b600061091c6122ff565b1115610954576040517f93224eac00000000000000000000000000000000000000000000000000000000815260040160405180910390fd5b6000600160009054906101000a900473ffffffffffffffffffffffffffffffffffffffff1690506109e9600160009054906101000a900473ffffffffffffffffffffffffffffffffffffffff1660007f000000000000000000000000000000000000000000000000000000000000000073ffffffffffffffffffffffffffffffffffffffff1661240a9092919063ffffffff16565b6000600160006101000a81548173ffffffffffffffffffffffffffffffffffffffff021916908373ffffffffffffffffffffffffffffffffffffffff1602179055506000600360006101000a81548160ff0219169083151502179055508073ffffffffffffffffffffffffffffffffffffffff163373ffffffffffffffffffffffffffffffffffffffff167f99f736dac5b359a472c9b2edd93e35b98547bf61d1ee8395824e748c7731cc7860405160405180910390a35050565b6000806000838152602001908152602001600020600101549050919050565b60007f71a9859d7dd21b24504a6f306077ffc2d510b4d4b61128e931fe937441ad1836610af781610af26125db565b6125e3565b600360019054906101000a900473ffffffffffffffffffffffffffffffffffffffff1673ffffffffffffffffffffffffffffffffffffffff1673__$6e88b035a5d9f7e9a50b584dee2ad9e3f8$__636f5bf2809091600560009054906101000a900473ffffffffffffffffffffffffffffffffffffffff163088886040518663ffffffff1660e01b8152600401610b92959493929190613a69565b602060405180830381865af4158015610baf573d6000803e3d6000fd5b505050506040513d601f19601f82011682018060405250810190610bd3919061396f565b50600191505092915050565b610be882610aa4565b610bf981610bf46125db565b6125e3565b610c038383612861565b505050565b610c106125db565b73ffffffffffffffffffffffffffffffffffffffff168173ffffffffffffffffffffffffffffffffffffffff1614610c7d576040517f08c379a0000000000000000000000000000000000000000000000000000000008152600401610c7490613b46565b60405180910390fd5b610c878282612941565b5050565b60007f71a9859d7dd21b24504a6f306077ffc2d510b4d4b61128e931fe937441ad1836610cbf81610cba6125db565b6125e3565b600660009054906101000a900473ffffffffffffffffffffffffffffffffffffffff1673ffffffffffffffffffffffffffffffffffffffff1663b942f9a1858530600360019054906101000a900473ffffffffffffffffffffffffffffffffffffffff166040518563ffffffff1660e01b8152600401610d429493929190613bfc565b600060405180830381600087803b158015610d5c57600080fd5b505af1158015610d70573d6000803e3d6000fd5b50505050600191505092915050565b7f000000000000000000000000000000000000000000000000000000000000000081565b7f71a9859d7dd21b24504a6f306077ffc2d510b4d4b61128e931fe937441ad1836610dd581610dd06125db565b6125e3565b610ddd612680565b50565b7f1a6838efa4183e08fe3607359d1259272af9d4716f65e1a7b5921f78fd5a3c6a610e1281610e0d6125db565b6125e3565b600073ffffffffffffffffffffffffffffffffffffffff168273ffffffffffffffffffffffffffffffffffffffff161415610e79576040517f9cfbf00600000000000000000000000000000000000000000000000000000000815260040160405180910390fd5b610ea37f71a9859d7dd21b24504a6f306077ffc2d510b4d4b61128e931fe937441ad183683612861565b5050565b60007f71a9859d7dd21b24504a6f306077ffc2d510b4d4b61128e931fe937441ad1836610edb81610ed66125db565b6125e3565b600360019054906101000a900473ffffffffffffffffffffffffffffffffffffffff1673ffffffffffffffffffffffffffffffffffffffff1673__$6e88b035a5d9f7e9a50b584dee2ad9e3f8$__6358bd17679091600560009054906101000a900473ffffffffffffffffffffffffffffffffffffffff168787306040518663ffffffff1660e01b8152600401610f76959493929190613c4f565b60006040518083038186803b158015610f8e57600080fd5b505af4158015610fa2573d6000803e3d6000fd5b50505050600191505092915050565b7f1a6838efa4183e08fe3607359d1259272af9d4716f65e1a7b5921f78fd5a3c6a610fe381610fde6125db565b6125e3565b600360009054906101000a900460ff161561102a576040517fe1b7a65400000000000000000000000000000000000000000000000000000000815260040160405180910390fd5b600073ffffffffffffffffffffffffffffffffffffffff168273ffffffffffffffffffffffffffffffffffffffff161415611091576040517f9cfbf00600000000000000000000000000000000000000000000000000000000815260040160405180910390fd5b81600160006101000a81548173ffffffffffffffffffffffffffffffffffffffff021916908373ffffffffffffffffffffffffffffffffffffffff16021790555061115f600160009054906101000a900473ffffffffffffffffffffffffffffffffffffffff167fffffffffffffffffffffffffffffffffffffffffffffffffffffffffffffffff7f000000000000000000000000000000000000000000000000000000000000000073ffffffffffffffffffffffffffffffffffffffff1661240a9092919063ffffffff16565b6001600360006101000a81548160ff021916908315150217905550600160009054906101000a900473ffffffffffffffffffffffffffffffffffffffff1673ffffffffffffffffffffffffffffffffffffffff166111bb6125db565b73ffffffffffffffffffffffffffffffffffffffff167f8800deb8c31293b539eaf5391fcc88280dc58f015c043d65dd5b72a0979a1dd160405160405180910390a35050565b7f1a6838efa4183e08fe3607359d1259272af9d4716f65e1a7b5921f78fd5a3c6a81565b60007f71a9859d7dd21b24504a6f306077ffc2d510b4d4b61128e931fe937441ad1836611259816112546125db565b6125e3565b600360019054906101000a900473ffffffffffffffffffffffffffffffffffffffff1673ffffffffffffffffffffffffffffffffffffffff1673__$6e88b035a5d9f7e9a50b584dee2ad9e3f8$__6384d53f0590918686306040518563ffffffff1660e01b81526004016112d09493929190613915565b602060405180830381865af41580156112ed573d6000803e3d6000fd5b505050506040513d601f19601f820116820180604052508101906113119190613cbe565b91505092915050565b7f71a9859d7dd21b24504a6f306077ffc2d510b4d4b61128e931fe937441ad183681565b6000600360009054906101000a900460ff16611386576040517f23eecdf600000000000000000000000000000000000000000000000000000000815260040160405180910390fd5b600160009054906101000a900473ffffffffffffffffffffffffffffffffffffffff16905090565b600080600084815260200190815260200160002060000160008373ffffffffffffffffffffffffffffffffffffffff1673ffffffffffffffffffffffffffffffffffffffff16815260200190815260200160002060009054906101000a900460ff16905092915050565b600460009054906101000a900473ffffffffffffffffffffffffffffffffffffffff1681565b600360009054906101000a900460ff1681565b6000801b81565b7f1a6838efa4183e08fe3607359d1259272af9d4716f65e1a7b5921f78fd5a3c6a61148a816114856125db565b6125e3565b6114f8600360019054906101000a900473ffffffffffffffffffffffffffffffffffffffff1660007f000000000000000000000000000000000000000000000000000000000000000073ffffffffffffffffffffffffffffffffffffffff1661240a9092919063ffffffff16565b81600360016101000a81548173ffffffffffffffffffffffffffffffffffffffff021916908373ffffffffffffffffffffffffffffffffffffffff1602179055506115c6600360019054906101000a900473ffffffffffffffffffffffffffffffffffffffff167fffffffffffffffffffffffffffffffffffffffffffffffffffffffffffffffff7f000000000000000000000000000000000000000000000000000000000000000073ffffffffffffffffffffffffffffffffffffffff1661240a9092919063ffffffff16565b5050565b7f1a6838efa4183e08fe3607359d1259272af9d4716f65e1a7b5921f78fd5a3c6a6115fc816115f76125db565b6125e3565b60005b845181101561174c57600085828151811061161d5761161c613ceb565b5b6020026020010151905060008173ffffffffffffffffffffffffffffffffffffffff166370a08231306040518263ffffffff1660e01b81526004016116629190613502565b602060405180830381865afa15801561167f573d6000803e3d6000fd5b505050506040513d601f19601f820116820180604052508101906116a39190613cbe565b905060008111156116da576116d988828473ffffffffffffffffffffffffffffffffffffffff16612a229092919063ffffffff16565b5b7f000000000000000000000000000000000000000000000000000000000000000073ffffffffffffffffffffffffffffffffffffffff168273ffffffffffffffffffffffffffffffffffffffff1614156117375760006002819055505b5050808061174490613d49565b9150506115ff565b50600047905060008111801561175f5750835b156117ac578573ffffffffffffffffffffffffffffffffffffffff166108fc829081150290604051600060405180830381858888f193505050501580156117aa573d6000803e3d6000fd5b505b821561194e576000600560009054906101000a900473ffffffffffffffffffffffffffffffffffffffff1673ffffffffffffffffffffffffffffffffffffffff1663770b478a30600360019054906101000a900473ffffffffffffffffffffffffffffffffffffffff166040518363ffffffff1660e01b8152600401611833929190613d92565b600060405180830381865afa158015611850573d6000803e3d6000fd5b505050506040513d6000823e3d601f19601f820116820180604052508101906118799190613e52565b905060005b815181101561194b57600082828151811061189c5761189b613ceb565b5b60200260200101519050600360019054906101000a900473ffffffffffffffffffffffffffffffffffffffff1673ffffffffffffffffffffffffffffffffffffffff166342842e0e308b846040518463ffffffff1660e01b815260040161190593929190613e9b565b600060405180830381600087803b15801561191f57600080fd5b505af1158015611933573d6000803e3d6000fd5b5050505050808061194390613d49565b91505061187e565b50505b8573ffffffffffffffffffffffffffffffffffffffff167f0e3e9a671666295c299b941a07625839915442794bf73a484b24bb3e221270c360405160405180910390a2505050505050565b60007f71a9859d7dd21b24504a6f306077ffc2d510b4d4b61128e931fe937441ad18366119cd816119c86125db565b6125e3565b600360019054906101000a900473ffffffffffffffffffffffffffffffffffffffff1673ffffffffffffffffffffffffffffffffffffffff1662f714ce84306040518363ffffffff1660e01b8152600401611a29929190613ed2565b6000604051808303816000875af1158015611a48573d6000803e3d6000fd5b505050506040513d6000823e3d601f19601f82011682018060405250810190611a719190613efb565b50506001915050919050565b7f71a9859d7dd21b24504a6f306077ffc2d510b4d4b61128e931fe937441ad1836611aaf81611aaa6125db565b6125e3565b6000835167ffffffffffffffff811115611acc57611acb6132a1565b5b604051908082528060200260200182016040528015611aff57816020015b6060815260200190600190039081611aea5790505b50905060005b8451811015611f8c576000858281518110611b2357611b22613ceb565b5b602002602001015190507382af49447d8a07e3bd95bd0d56f35241523fbab173ffffffffffffffffffffffffffffffffffffffff167f000000000000000000000000000000000000000000000000000000000000000073ffffffffffffffffffffffffffffffffffffffff161415611ce857600267ffffffffffffffff811115611bb057611baf6132a1565b5b604051908082528060200260200182016040528015611bde5781602001602082028036833780820191505090505b50838381518110611bf257611bf1613ceb565b5b602002602001018190525080838381518110611c1157611c10613ceb565b5b6020026020010151600081518110611c2c57611c2b613ceb565b5b602002602001019073ffffffffffffffffffffffffffffffffffffffff16908173ffffffffffffffffffffffffffffffffffffffff16815250507382af49447d8a07e3bd95bd0d56f35241523fbab1838381518110611c8e57611c8d613ceb565b5b6020026020010151600181518110611ca957611ca8613ceb565b5b602002602001019073ffffffffffffffffffffffffffffffffffffffff16908173ffffffffffffffffffffffffffffffffffffffff1681525050611ec0565b600367ffffffffffffffff811115611d0357611d026132a1565b5b604051908082528060200260200182016040528015611d315781602001602082028036833780820191505090505b50838381518110611d4557611d44613ceb565b5b602002602001018190525080838381518110611d6457611d63613ceb565b5b6020026020010151600081518110611d7f57611d7e613ceb565b5b602002602001019073ffffffffffffffffffffffffffffffffffffffff16908173ffffffffffffffffffffffffffffffffffffffff16815250507382af49447d8a07e3bd95bd0d56f35241523fbab1838381518110611de157611de0613ceb565b5b6020026020010151600181518110611dfc57611dfb613ceb565b5b602002602001019073ffffffffffffffffffffffffffffffffffffffff16908173ffffffffffffffffffffffffffffffffffffffff16815250507f0000000000000000000000000000000000000000000000000000000000000000838381518110611e6a57611e69613ceb565b5b6020026020010151600281518110611e8557611e84613ceb565b5b602002602001019073ffffffffffffffffffffffffffffffffffffffff16908173ffffffffffffffffffffffffffffffffffffffff16815250505b611f78731b02da8cb0d097eb8d57a175b88c7d8b479975068273ffffffffffffffffffffffffffffffffffffffff166370a08231306040518263ffffffff1660e01b8152600401611f119190613502565b602060405180830381865afa158015611f2e573d6000803e3d6000fd5b505050506040513d601f19601f82011682018060405250810190611f529190613cbe565b8373ffffffffffffffffffffffffffffffffffffffff1661240a9092919063ffffffff16565b508080611f8490613d49565b915050611b05565b50731b02da8cb0d097eb8d57a175b88c7d8b4799750673ffffffffffffffffffffffffffffffffffffffff1673__$550d7af180db018b614b111952148b246d$__63fc334d009091858730866040518663ffffffff1660e01b8152600401611ff8959493929190614167565b60006040518083038186803b15801561201057600080fd5b505af4158015612024573d6000803e3d6000fd5b5050505050505050565b7f71a9859d7dd21b24504a6f306077ffc2d510b4d4b61128e931fe937441ad18366120608161205b6125db565b6125e3565b600360009054906101000a900460ff166120a6576040517f23eecdf600000000000000000000000000000000000000000000000000000000815260040160405180910390fd5b60008214156120e1576040517fcd6bbd7100000000000000000000000000000000000000000000000000000000815260040160405180910390fd5b600160009054906101000a900473ffffffffffffffffffffffffffffffffffffffff1673ffffffffffffffffffffffffffffffffffffffff16634d0392a8836040518263ffffffff1660e01b815260040161213c9190613559565b600060405180830381600087803b15801561215657600080fd5b505af115801561216a573d6000803e3d6000fd5b50505050816002600082825461218091906141cf565b925050819055507f000000000000000000000000000000000000000000000000000000000000000073ffffffffffffffffffffffffffffffffffffffff16600160009054906101000a900473ffffffffffffffffffffffffffffffffffffffff1673ffffffffffffffffffffffffffffffffffffffff166121ff6125db565b73ffffffffffffffffffffffffffffffffffffffff167face89dcec09c69462cb37ba9dbe6990b9cb4cc4b7474f1cc0574f0ac86497086856040516122449190613559565b60405180910390a45050565b600360019054906101000a900473ffffffffffffffffffffffffffffffffffffffff1681565b7f1a6838efa4183e08fe3607359d1259272af9d4716f65e1a7b5921f78fd5a3c6a6122a8816122a36125db565b6125e3565b6122d27f71a9859d7dd21b24504a6f306077ffc2d510b4d4b61128e931fe937441ad183683612941565b5050565b6122df82610aa4565b6122f0816122eb6125db565b6125e3565b6122fa8383612941565b505050565b60007f000000000000000000000000000000000000000000000000000000000000000073ffffffffffffffffffffffffffffffffffffffff166370a08231306040518263ffffffff1660e01b815260040161235a9190613502565b602060405180830381865afa158015612377573d6000803e3d6000fd5b505050506040513d601f19601f8201168201806040525081019061239b9190613cbe565b905090565b7382af49447d8a07e3bd95bd0d56f35241523fbab181565b600560009054906101000a900473ffffffffffffffffffffffffffffffffffffffff1681565b600660009054906101000a900473ffffffffffffffffffffffffffffffffffffffff1681565b60025481565b6000811480612494575060008373ffffffffffffffffffffffffffffffffffffffff1663dd62ed3e30856040518363ffffffff1660e01b8152600401612451929190614225565b602060405180830381865afa15801561246e573d6000803e3d6000fd5b505050506040513d601f19601f820116820180604052508101906124929190613cbe565b145b6124d3576040517f08c379a00000000000000000000000000000000000000000000000000000000081526004016124ca906142c0565b60405180910390fd5b6125548363095ea7b360e01b84846040516024016124f29291906142e0565b604051602081830303815290604052907bffffffffffffffffffffffffffffffffffffffffffffffffffffffff19166020820180517bffffffffffffffffffffffffffffffffffffffffffffffffffffffff8381831617835250505050612aa8565b505050565b60606125688484600085612b6f565b90509392505050565b60007f01ffc9a7000000000000000000000000000000000000000000000000000000007bffffffffffffffffffffffffffffffffffffffffffffffffffffffff1916827bffffffffffffffffffffffffffffffffffffffffffffffffffffffff1916149050919050565b600033905090565b6125ed82826113ae565b61267c576126128173ffffffffffffffffffffffffffffffffffffffff166014612c83565b6126208360001c6020612c83565b60405160200161263192919061441b565b6040516020818303038152906040526040517f08c379a0000000000000000000000000000000000000000000000000000000008152600401612673919061448e565b60405180910390fd5b5050565b600360009054906101000a900460ff166126c6576040517f23eecdf600000000000000000000000000000000000000000000000000000000815260040160405180910390fd5b60006126d06122ff565b9050600081111561276957600160009054906101000a900473ffffffffffffffffffffffffffffffffffffffff1673ffffffffffffffffffffffffffffffffffffffff1663e8ddb9a6826040518263ffffffff1660e01b81526004016127369190613559565b600060405180830381600087803b15801561275057600080fd5b505af1158015612764573d6000803e3d6000fd5b505050505b806002541061279057806002600082825461278491906144b0565b92505081905550612799565b60006002819055505b7f000000000000000000000000000000000000000000000000000000000000000073ffffffffffffffffffffffffffffffffffffffff16600160009054906101000a900473ffffffffffffffffffffffffffffffffffffffff1673ffffffffffffffffffffffffffffffffffffffff166128116125db565b73ffffffffffffffffffffffffffffffffffffffff167f7fbb649ddb1a6bb483960fc034d326a89c2c22de1d59cf00a85e70cbe98619c9846040516128569190613559565b60405180910390a450565b61286b82826113ae565b61293d57600160008084815260200190815260200160002060000160008373ffffffffffffffffffffffffffffffffffffffff1673ffffffffffffffffffffffffffffffffffffffff16815260200190815260200160002060006101000a81548160ff0219169083151502179055506128e26125db565b73ffffffffffffffffffffffffffffffffffffffff168173ffffffffffffffffffffffffffffffffffffffff16837f2f8788117e7eff1d82e926ec794901d17c78024a50270940304540a733656f0d60405160405180910390a45b5050565b61294b82826113ae565b15612a1e57600080600084815260200190815260200160002060000160008373ffffffffffffffffffffffffffffffffffffffff1673ffffffffffffffffffffffffffffffffffffffff16815260200190815260200160002060006101000a81548160ff0219169083151502179055506129c36125db565b73ffffffffffffffffffffffffffffffffffffffff168173ffffffffffffffffffffffffffffffffffffffff16837ff6391f5c32d9c69d2a47ea670b442974b53935d1edc7fd64eb21e047a839171b60405160405180910390a45b5050565b612aa38363a9059cbb60e01b8484604051602401612a419291906142e0565b604051602081830303815290604052907bffffffffffffffffffffffffffffffffffffffffffffffffffffffff19166020820180517bffffffffffffffffffffffffffffffffffffffffffffffffffffffff8381831617835250505050612aa8565b505050565b6000612b0a826040518060400160405280602081526020017f5361666545524332303a206c6f772d6c6576656c2063616c6c206661696c65648152508573ffffffffffffffffffffffffffffffffffffffff166125599092919063ffffffff16565b9050600081511115612b6a5780806020019051810190612b2a919061396f565b612b69576040517f08c379a0000000000000000000000000000000000000000000000000000000008152600401612b6090614556565b60405180910390fd5b5b505050565b606082471015612bb4576040517f08c379a0000000000000000000000000000000000000000000000000000000008152600401612bab906145e8565b60405180910390fd5b612bbd85612ebf565b612bfc576040517f08c379a0000000000000000000000000000000000000000000000000000000008152600401612bf390614654565b60405180910390fd5b6000808673ffffffffffffffffffffffffffffffffffffffff168587604051612c2591906146bb565b60006040518083038185875af1925050503d8060008114612c62576040519150601f19603f3d011682016040523d82523d6000602084013e612c67565b606091505b5091509150612c77828286612ee2565b92505050949350505050565b606060006002836002612c9691906146d2565b612ca091906141cf565b67ffffffffffffffff811115612cb957612cb86132a1565b5b6040519080825280601f01601f191660200182016040528015612ceb5781602001600182028036833780820191505090505b5090507f300000000000000000000000000000000000000000000000000000000000000081600081518110612d2357612d22613ceb565b5b60200101907effffffffffffffffffffffffffffffffffffffffffffffffffffffffffffff1916908160001a9053507f780000000000000000000000000000000000000000000000000000000000000081600181518110612d8757612d86613ceb565b5b60200101907effffffffffffffffffffffffffffffffffffffffffffffffffffffffffffff1916908160001a90535060006001846002612dc791906146d2565b612dd191906141cf565b90505b6001811115612e71577f3031323334353637383961626364656600000000000000000000000000000000600f861660108110612e1357612e12613ceb565b5b1a60f81b828281518110612e2a57612e29613ceb565b5b60200101907effffffffffffffffffffffffffffffffffffffffffffffffffffffffffffff1916908160001a905350600485901c945080612e6a9061472c565b9050612dd4565b5060008414612eb5576040517f08c379a0000000000000000000000000000000000000000000000000000000008152600401612eac906147a2565b60405180910390fd5b8091505092915050565b6000808273ffffffffffffffffffffffffffffffffffffffff163b119050919050565b60608315612ef257829050612f42565b600083511115612f055782518084602001fd5b816040517f08c379a0000000000000000000000000000000000000000000000000000000008152600401612f39919061448e565b60405180910390fd5b9392505050565b6000604051905090565b600080fd5b600080fd5b60007fffffffff0000000000000000000000000000000000000000000000000000000082169050919050565b612f9281612f5d565b8114612f9d57600080fd5b50565b600081359050612faf81612f89565b92915050565b600060208284031215612fcb57612fca612f53565b5b6000612fd984828501612fa0565b91505092915050565b60008115159050919050565b612ff781612fe2565b82525050565b60006020820190506130126000830184612fee565b92915050565b6000819050919050565b61302b81613018565b82525050565b60006020820190506130466000830184613022565b92915050565b600073ffffffffffffffffffffffffffffffffffffffff82169050919050565b60006130778261304c565b9050919050565b6130878161306c565b811461309257600080fd5b50565b6000813590506130a48161307e565b92915050565b6000819050919050565b6130bd816130aa565b81146130c857600080fd5b50565b6000813590506130da816130b4565b92915050565b600080fd5b600080fd5b600080fd5b60008083601f840112613105576131046130e0565b5b8235905067ffffffffffffffff811115613122576131216130e5565b5b60208301915083600182028301111561313e5761313d6130ea565b5b9250929050565b60008060008060006080868803121561316157613160612f53565b5b600061316f88828901613095565b955050602061318088828901613095565b9450506040613191888289016130cb565b935050606086013567ffffffffffffffff8111156131b2576131b1612f58565b5b6131be888289016130ef565b92509250509295509295909350565b6131d681612f5d565b82525050565b60006020820190506131f160008301846131cd565b92915050565b6000806040838503121561320e5761320d612f53565b5b600061321c858286016130cb565b925050602061322d858286016130cb565b9150509250929050565b61324081613018565b811461324b57600080fd5b50565b60008135905061325d81613237565b92915050565b60006020828403121561327957613278612f53565b5b60006132878482850161324e565b91505092915050565b6000601f19601f8301169050919050565b7f4e487b7100000000000000000000000000000000000000000000000000000000600052604160045260246000fd5b6132d982613290565b810181811067ffffffffffffffff821117156132f8576132f76132a1565b5b80604052505050565b600061330b612f49565b905061331782826132d0565b919050565b600067ffffffffffffffff821115613337576133366132a1565b5b602082029050602081019050919050565b600061335b6133568461331c565b613301565b9050808382526020820190506020840283018581111561337e5761337d6130ea565b5b835b818110156133a7578061339388826130cb565b845260208401935050602081019050613380565b5050509392505050565b600082601f8301126133c6576133c56130e0565b5b81356133d6848260208601613348565b91505092915050565b600080604083850312156133f6576133f5612f53565b5b6000613404858286016130cb565b925050602083013567ffffffffffffffff81111561342557613424612f58565b5b613431858286016133b1565b9150509250929050565b6000806040838503121561345257613451612f53565b5b60006134608582860161324e565b925050602061347185828601613095565b9150509250929050565b6000806040838503121561349257613491612f53565b5b600083013567ffffffffffffffff8111156134b0576134af612f58565b5b6134bc858286016133b1565b925050602083013567ffffffffffffffff8111156134dd576134dc612f58565b5b6134e9858286016133b1565b9150509250929050565b6134fc8161306c565b82525050565b600060208201905061351760008301846134f3565b92915050565b60006020828403121561353357613532612f53565b5b600061354184828501613095565b91505092915050565b613553816130aa565b82525050565b600060208201905061356e600083018461354a565b92915050565b6000819050919050565b600061359961359461358f8461304c565b613574565b61304c565b9050919050565b60006135ab8261357e565b9050919050565b60006135bd826135a0565b9050919050565b6135cd816135b2565b82525050565b60006020820190506135e860008301846135c4565b92915050565b60006135f98261306c565b9050919050565b613609816135ee565b811461361457600080fd5b50565b60008135905061362681613600565b92915050565b60006020828403121561364257613641612f53565b5b600061365084828501613617565b91505092915050565b600067ffffffffffffffff821115613674576136736132a1565b5b602082029050602081019050919050565b600061369861369384613659565b613301565b905080838252602082019050602084028301858111156136bb576136ba6130ea565b5b835b818110156136e457806136d08882613095565b8452602084019350506020810190506136bd565b5050509392505050565b600082601f830112613703576137026130e0565b5b8135613713848260208601613685565b91505092915050565b61372581612fe2565b811461373057600080fd5b50565b6000813590506137428161371c565b92915050565b6000806000806080858703121561376257613761612f53565b5b600061377087828801613095565b945050602085013567ffffffffffffffff81111561379157613790612f58565b5b61379d878288016136ee565b93505060406137ae87828801613733565b92505060606137bf87828801613733565b91505092959194509250565b6000602082840312156137e1576137e0612f53565b5b60006137ef848285016130cb565b91505092915050565b6000806040838503121561380f5761380e612f53565b5b600083013567ffffffffffffffff81111561382d5761382c612f58565b5b613839858286016136ee565b925050602083013567ffffffffffffffff81111561385a57613859612f58565b5b613866858286016133b1565b9150509250929050565b600061387b826135a0565b9050919050565b61388b81613870565b82525050565b60006020820190506138a66000830184613882565b92915050565b60006138b7826135a0565b9050919050565b6138c7816138ac565b82525050565b60006020820190506138e260008301846138be565b92915050565b6138f181613870565b82525050565b613900816130aa565b82525050565b61390f8161306c565b82525050565b600060808201905061392a60008301876138e8565b61393760208301866138f7565b61394460408301856138f7565b6139516060830184613906565b95945050505050565b6000815190506139698161371c565b92915050565b60006020828403121561398557613984612f53565b5b60006139938482850161395a565b91505092915050565b6139a5816135b2565b82525050565b600081519050919050565b600082825260208201905092915050565b6000819050602082019050919050565b6139e0816130aa565b82525050565b60006139f283836139d7565b60208301905092915050565b6000602082019050919050565b6000613a16826139ab565b613a2081856139b6565b9350613a2b836139c7565b8060005b83811015613a5c578151613a4388826139e6565b9750613a4e836139fe565b925050600181019050613a2f565b5085935050505092915050565b600060a082019050613a7e60008301886138e8565b613a8b602083018761399c565b613a986040830186613906565b613aa560608301856138f7565b8181036080830152613ab78184613a0b565b90509695505050505050565b600082825260208201905092915050565b7f416363657373436f6e74726f6c3a2063616e206f6e6c792072656e6f756e636560008201527f20726f6c657320666f722073656c660000000000000000000000000000000000602082015250565b6000613b30602f83613ac3565b9150613b3b82613ad4565b604082019050919050565b60006020820190508181036000830152613b5f81613b23565b9050919050565b600082825260208201905092915050565b613b80816130aa565b82525050565b6000613b928383613b77565b60208301905092915050565b6000613ba9826139ab565b613bb38185613b66565b9350613bbe836139c7565b8060005b83811015613bef578151613bd68882613b86565b9750613be1836139fe565b925050600181019050613bc2565b5085935050505092915050565b60006080820190508181036000830152613c168187613b9e565b90508181036020830152613c2a8186613b9e565b9050613c3960408301856134f3565b613c466060830184613882565b95945050505050565b600060a082019050613c6460008301886138e8565b613c71602083018761399c565b613c7e60408301866138f7565b8181036060830152613c908185613a0b565b9050613c9f6080830184613906565b9695505050505050565b600081519050613cb8816130b4565b92915050565b600060208284031215613cd457613cd3612f53565b5b6000613ce284828501613ca9565b91505092915050565b7f4e487b7100000000000000000000000000000000000000000000000000000000600052603260045260246000fd5b7f4e487b7100000000000000000000000000000000000000000000000000000000600052601160045260246000fd5b6000613d54826130aa565b91507fffffffffffffffffffffffffffffffffffffffffffffffffffffffffffffffff821415613d8757613d86613d1a565b5b600182019050919050565b6000604082019050613da760008301856134f3565b613db46020830184613882565b9392505050565b6000613dce613dc98461331c565b613301565b90508083825260208201905060208402830185811115613df157613df06130ea565b5b835b81811015613e1a5780613e068882613ca9565b845260208401935050602081019050613df3565b5050509392505050565b600082601f830112613e3957613e386130e0565b5b8151613e49848260208601613dbb565b91505092915050565b600060208284031215613e6857613e67612f53565b5b600082015167ffffffffffffffff811115613e8657613e85612f58565b5b613e9284828501613e24565b91505092915050565b6000606082019050613eb060008301866134f3565b613ebd60208301856134f3565b613eca604083018461354a565b949350505050565b6000604082019050613ee7600083018561354a565b613ef460208301846134f3565b9392505050565b60008060408385031215613f1257613f11612f53565b5b6000613f2085828601613ca9565b925050602083015167ffffffffffffffff811115613f4157613f40612f58565b5b613f4d85828601613e24565b9150509250929050565b6000613f62826135a0565b9050919050565b613f7281613f57565b82525050565b600081519050919050565b600082825260208201905092915050565b6000819050602082019050919050565b613fad8161306c565b82525050565b6000613fbf8383613fa4565b60208301905092915050565b6000602082019050919050565b6000613fe382613f78565b613fed8185613f83565b9350613ff883613f94565b8060005b838110156140295781516140108882613fb3565b975061401b83613fcb565b925050600181019050613ffc565b5085935050505092915050565b600081519050919050565b600082825260208201905092915050565b6000819050602082019050919050565b600082825260208201905092915050565b600061407e82613f78565b6140888185614062565b935061409383613f94565b8060005b838110156140c45781516140ab8882613fb3565b97506140b683613fcb565b925050600181019050614097565b5085935050505092915050565b60006140dd8383614073565b905092915050565b6000602082019050919050565b60006140fd82614036565b6141078185614041565b93508360208202850161411985614052565b8060005b85811015614155578484038952815161413685826140d1565b9450614141836140e5565b925060208a0199505060018101905061411d565b50829750879550505050505092915050565b600060a08201905061417c6000830188613f69565b818103602083015261418e8187613a0b565b905081810360408301526141a28186613fd8565b90506141b16060830185613906565b81810360808301526141c381846140f2565b90509695505050505050565b60006141da826130aa565b91506141e5836130aa565b9250827fffffffffffffffffffffffffffffffffffffffffffffffffffffffffffffffff0382111561421a57614219613d1a565b5b828201905092915050565b600060408201905061423a60008301856134f3565b61424760208301846134f3565b9392505050565b7f5361666545524332303a20617070726f76652066726f6d206e6f6e2d7a65726f60008201527f20746f206e6f6e2d7a65726f20616c6c6f77616e636500000000000000000000602082015250565b60006142aa603683613ac3565b91506142b58261424e565b604082019050919050565b600060208201905081810360008301526142d98161429d565b9050919050565b60006040820190506142f560008301856134f3565b614302602083018461354a565b9392505050565b600081905092915050565b7f416363657373436f6e74726f6c3a206163636f756e7420000000000000000000600082015250565b600061434a601783614309565b915061435582614314565b601782019050919050565b600081519050919050565b60005b8381101561438957808201518184015260208101905061436e565b83811115614398576000848401525b50505050565b60006143a982614360565b6143b38185614309565b93506143c381856020860161436b565b80840191505092915050565b7f206973206d697373696e6720726f6c6520000000000000000000000000000000600082015250565b6000614405601183614309565b9150614410826143cf565b601182019050919050565b60006144268261433d565b9150614432828561439e565b915061443d826143f8565b9150614449828461439e565b91508190509392505050565b600061446082614360565b61446a8185613ac3565b935061447a81856020860161436b565b61448381613290565b840191505092915050565b600060208201905081810360008301526144a88184614455565b905092915050565b60006144bb826130aa565b91506144c6836130aa565b9250828210156144d9576144d8613d1a565b5b828203905092915050565b7f5361666545524332303a204552433230206f7065726174696f6e20646964206e60008201527f6f74207375636365656400000000000000000000000000000000000000000000602082015250565b6000614540602a83613ac3565b915061454b826144e4565b604082019050919050565b6000602082019050818103600083015261456f81614533565b9050919050565b7f416464726573733a20696e73756666696369656e742062616c616e636520666f60008201527f722063616c6c0000000000000000000000000000000000000000000000000000602082015250565b60006145d2602683613ac3565b91506145dd82614576565b604082019050919050565b60006020820190508181036000830152614601816145c5565b9050919050565b7f416464726573733a2063616c6c20746f206e6f6e2d636f6e7472616374000000600082015250565b600061463e601d83613ac3565b915061464982614608565b602082019050919050565b6000602082019050818103600083015261466d81614631565b9050919050565b600081519050919050565b600081905092915050565b600061469582614674565b61469f818561467f565b93506146af81856020860161436b565b80840191505092915050565b60006146c7828461468a565b915081905092915050565b60006146dd826130aa565b91506146e8836130aa565b9250817fffffffffffffffffffffffffffffffffffffffffffffffffffffffffffffffff048311821515161561472157614720613d1a565b5b828202905092915050565b6000614737826130aa565b9150600082141561474b5761474a613d1a565b5b600182039050919050565b7f537472696e67733a20686578206c656e67746820696e73756666696369656e74600082015250565b600061478c602083613ac3565b915061479782614756565b602082019050919050565b600060208201905081810360008301526147bb8161477f565b905091905056fea26469706673582212204a28afc16b4c374d39a5a622d5e34313846fa6256f2a80fbdd5ee2d3902833a364736f6c634300080a0033",
  "linkReferences": {
    "contracts/VaultsV2/library/SushiRouterWrapper.sol": {
      "SushiRouterWrapper": [
        {
          "length": 20,
          "start": 12361
        }
      ]
    },
    "contracts/VaultsV3/library/SsovV3Wrapper.sol": {
      "SsovV3Wrapper": [
        {
          "length": 20,
          "start": 6299
        },
        {
          "length": 20,
          "start": 7105
        },
        {
          "length": 20,
          "start": 8101
        },
        {
          "length": 20,
          "start": 8995
        }
      ]
    }
  },
  "deployedLinkReferences": {
    "contracts/VaultsV2/library/SushiRouterWrapper.sol": {
      "SushiRouterWrapper": [
        {
          "length": 20,
          "start": 8122
        }
      ]
    },
    "contracts/VaultsV3/library/SsovV3Wrapper.sol": {
      "SsovV3Wrapper": [
        {
          "length": 20,
          "start": 2060
        },
        {
          "length": 20,
          "start": 2866
        },
        {
          "length": 20,
          "start": 3862
        },
        {
          "length": 20,
          "start": 4756
        }
      ]
    }
  }
}