{
  "_format": "hh-sol-artifact-1",
  "contractName": "JonesERC20VaultV3",
  "sourceName": "contracts/VaultsV3/JonesERC20VaultV3.sol",
  "abi": [
    {
      "inputs": [
        {
          "internalType": "address",
          "name": "_asset",
          "type": "address"
        },
        {
          "internalType": "address",
          "name": "_share",
          "type": "address"
        },
        {
          "internalType": "address",
          "name": "_governor",
          "type": "address"
        },
        {
          "internalType": "address",
          "name": "_feeDistributor",
          "type": "address"
        },
        {
          "internalType": "uint256",
          "name": "_vaultCap",
          "type": "uint256"
        }
      ],
      "stateMutability": "nonpayable",
      "type": "constructor"
    },
    {
      "inputs": [],
      "name": "CONTRACT_ADDRESS_MAKING_PROHIBITED_FUNCTION_CALL",
      "type": "error"
    },
    {
      "inputs": [],
      "name": "DEPOSIT_ASSET_AMOUNT_EXCEEDS_MAX_DEPOSIT",
      "type": "error"
    },
    {
      "inputs": [],
      "name": "INVALID_ADDRESS",
      "type": "error"
    },
    {
      "inputs": [],
      "name": "INVALID_ASSETS_AMOUNT",
      "type": "error"
    },
    {
      "inputs": [],
      "name": "INVALID_SHARES_AMOUNT",
      "type": "error"
    },
    {
      "inputs": [],
      "name": "INVALID_SNAPSHOT_VALUE",
      "type": "error"
    },
    {
      "inputs": [
        {
          "internalType": "enum IVault.State",
          "name": "_expected",
          "type": "uint8"
        },
        {
          "internalType": "enum IVault.State",
          "name": "_actual",
          "type": "uint8"
        }
      ],
      "name": "INVALID_STATE",
      "type": "error"
    },
    {
      "inputs": [],
      "name": "MINT_SHARE_AMOUNT_EXCEEDS_MAX_MINT",
      "type": "error"
    },
    {
      "inputs": [],
      "name": "MSG_SENDER_NOT_WHITELISTED_USER",
      "type": "error"
    },
    {
      "inputs": [],
      "name": "ZERO_SHARES_AVAILABLE_WHEN_DEPOSITING",
      "type": "error"
    },
    {
      "anonymous": false,
      "inputs": [
        {
          "indexed": true,
          "internalType": "address",
          "name": "caller",
          "type": "address"
        },
        {
          "indexed": true,
          "internalType": "address",
          "name": "owner",
          "type": "address"
        },
        {
          "indexed": false,
          "internalType": "uint256",
          "name": "assets",
          "type": "uint256"
        },
        {
          "indexed": false,
          "internalType": "uint256",
          "name": "shares",
          "type": "uint256"
        }
      ],
      "name": "Deposit",
      "type": "event"
    },
    {
      "anonymous": false,
      "inputs": [
        {
          "indexed": true,
          "internalType": "uint256",
          "name": "_timestamp",
          "type": "uint256"
        },
        {
          "indexed": false,
          "internalType": "uint256",
          "name": "_assetBalance",
          "type": "uint256"
        },
        {
          "indexed": false,
          "internalType": "uint256",
          "name": "_shareSupply",
          "type": "uint256"
        }
      ],
      "name": "EpochEnded",
      "type": "event"
    },
    {
      "anonymous": false,
      "inputs": [
        {
          "indexed": true,
          "internalType": "uint256",
          "name": "_timestamp",
          "type": "uint256"
        },
        {
          "indexed": false,
          "internalType": "uint256",
          "name": "_assetBalance",
          "type": "uint256"
        },
        {
          "indexed": false,
          "internalType": "uint256",
          "name": "_shareSupply",
          "type": "uint256"
        }
      ],
      "name": "EpochStarted",
      "type": "event"
    },
    {
      "anonymous": false,
      "inputs": [
        {
          "indexed": true,
          "internalType": "bytes32",
          "name": "role",
          "type": "bytes32"
        },
        {
          "indexed": true,
          "internalType": "bytes32",
          "name": "previousAdminRole",
          "type": "bytes32"
        },
        {
          "indexed": true,
          "internalType": "bytes32",
          "name": "newAdminRole",
          "type": "bytes32"
        }
      ],
      "name": "RoleAdminChanged",
      "type": "event"
    },
    {
      "anonymous": false,
      "inputs": [
        {
          "indexed": true,
          "internalType": "bytes32",
          "name": "role",
          "type": "bytes32"
        },
        {
          "indexed": true,
          "internalType": "address",
          "name": "account",
          "type": "address"
        },
        {
          "indexed": true,
          "internalType": "address",
          "name": "sender",
          "type": "address"
        }
      ],
      "name": "RoleGranted",
      "type": "event"
    },
    {
      "anonymous": false,
      "inputs": [
        {
          "indexed": true,
          "internalType": "bytes32",
          "name": "role",
          "type": "bytes32"
        },
        {
          "indexed": true,
          "internalType": "address",
          "name": "account",
          "type": "address"
        },
        {
          "indexed": true,
          "internalType": "address",
          "name": "sender",
          "type": "address"
        }
      ],
      "name": "RoleRevoked",
      "type": "event"
    },
    {
      "anonymous": false,
      "inputs": [
        {
          "indexed": true,
          "internalType": "uint256",
          "name": "_timestamp",
          "type": "uint256"
        },
        {
          "indexed": false,
          "internalType": "uint256",
          "name": "_vaultBalance",
          "type": "uint256"
        },
        {
          "indexed": false,
          "internalType": "uint256",
          "name": "_jonesAssetSupply",
          "type": "uint256"
        }
      ],
      "name": "Snapshot",
      "type": "event"
    },
    {
      "anonymous": false,
      "inputs": [
        {
          "indexed": true,
          "internalType": "address",
          "name": "caller",
          "type": "address"
        },
        {
          "indexed": true,
          "internalType": "address",
          "name": "receiver",
          "type": "address"
        },
        {
          "indexed": true,
          "internalType": "address",
          "name": "owner",
          "type": "address"
        },
        {
          "indexed": false,
          "internalType": "uint256",
          "name": "assets",
          "type": "uint256"
        },
        {
          "indexed": false,
          "internalType": "uint256",
          "name": "shares",
          "type": "uint256"
        }
      ],
      "name": "Withdraw",
      "type": "event"
    },
    {
      "inputs": [],
      "name": "DEFAULT_ADMIN_ROLE",
      "outputs": [
        {
          "internalType": "bytes32",
          "name": "",
          "type": "bytes32"
        }
      ],
      "stateMutability": "view",
      "type": "function"
    },
    {
      "inputs": [],
      "name": "GOVERNOR",
      "outputs": [
        {
          "internalType": "bytes32",
          "name": "",
          "type": "bytes32"
        }
      ],
      "stateMutability": "view",
      "type": "function"
    },
    {
      "inputs": [],
      "name": "STRATEGIES",
      "outputs": [
        {
          "internalType": "bytes32",
          "name": "",
          "type": "bytes32"
        }
      ],
      "stateMutability": "view",
      "type": "function"
    },
    {
      "inputs": [
        {
          "internalType": "address",
          "name": "_contractAddress",
          "type": "address"
        }
      ],
      "name": "addContractAddressToWhitelist",
      "outputs": [],
      "stateMutability": "nonpayable",
      "type": "function"
    },
    {
      "inputs": [],
      "name": "asset",
      "outputs": [
        {
          "internalType": "address",
          "name": "",
          "type": "address"
        }
      ],
      "stateMutability": "view",
      "type": "function"
    },
    {
      "inputs": [],
      "name": "chargeFees",
      "outputs": [
        {
          "internalType": "bool",
          "name": "",
          "type": "bool"
        }
      ],
      "stateMutability": "view",
      "type": "function"
    },
    {
      "inputs": [],
      "name": "closeManagementWindow",
      "outputs": [],
      "stateMutability": "nonpayable",
      "type": "function"
    },
    {
      "inputs": [
        {
          "internalType": "uint256",
          "name": "_shares",
          "type": "uint256"
        }
      ],
      "name": "convertToAssets",
      "outputs": [
        {
          "internalType": "uint256",
          "name": "",
          "type": "uint256"
        }
      ],
      "stateMutability": "view",
      "type": "function"
    },
    {
      "inputs": [
        {
          "internalType": "uint256",
          "name": "_assets",
          "type": "uint256"
        }
      ],
      "name": "convertToShares",
      "outputs": [
        {
          "internalType": "uint256",
          "name": "",
          "type": "uint256"
        }
      ],
      "stateMutability": "view",
      "type": "function"
    },
    {
      "inputs": [
        {
          "internalType": "uint256",
          "name": "_assets",
          "type": "uint256"
        },
        {
          "internalType": "address",
          "name": "_receiver",
          "type": "address"
        }
      ],
      "name": "deposit",
      "outputs": [
        {
          "internalType": "uint256",
          "name": "shares",
          "type": "uint256"
        }
      ],
      "stateMutability": "nonpayable",
      "type": "function"
    },
    {
      "inputs": [
        {
          "internalType": "uint256",
          "name": "_assets",
          "type": "uint256"
        }
      ],
      "name": "depositStrategyFunds",
      "outputs": [],
      "stateMutability": "nonpayable",
      "type": "function"
    },
    {
      "inputs": [],
      "name": "feeDistributor",
      "outputs": [
        {
          "internalType": "address",
          "name": "",
          "type": "address"
        }
      ],
      "stateMutability": "view",
      "type": "function"
    },
    {
      "inputs": [
        {
          "internalType": "bytes32",
          "name": "role",
          "type": "bytes32"
        }
      ],
      "name": "getRoleAdmin",
      "outputs": [
        {
          "internalType": "bytes32",
          "name": "",
          "type": "bytes32"
        }
      ],
      "stateMutability": "view",
      "type": "function"
    },
    {
      "inputs": [
        {
          "internalType": "bytes32",
          "name": "role",
          "type": "bytes32"
        },
        {
          "internalType": "address",
          "name": "account",
          "type": "address"
        }
      ],
      "name": "grantRole",
      "outputs": [],
      "stateMutability": "nonpayable",
      "type": "function"
    },
    {
      "inputs": [
        {
          "internalType": "bytes32",
          "name": "role",
          "type": "bytes32"
        },
        {
          "internalType": "address",
          "name": "account",
          "type": "address"
        }
      ],
      "name": "hasRole",
      "outputs": [
        {
          "internalType": "bool",
          "name": "",
          "type": "bool"
        }
      ],
      "stateMutability": "view",
      "type": "function"
    },
    {
      "inputs": [
        {
          "internalType": "uint256",
          "name": "_snapshotAssetBalance",
          "type": "uint256"
        },
        {
          "internalType": "uint256",
          "name": "_snapshotSharesSupply",
          "type": "uint256"
        }
      ],
      "name": "initialRun",
      "outputs": [],
      "stateMutability": "nonpayable",
      "type": "function"
    },
    {
      "inputs": [
        {
          "internalType": "address",
          "name": "",
          "type": "address"
        }
      ],
      "name": "maxDeposit",
      "outputs": [
        {
          "internalType": "uint256",
          "name": "",
          "type": "uint256"
        }
      ],
      "stateMutability": "view",
      "type": "function"
    },
    {
      "inputs": [
        {
          "internalType": "address",
          "name": "",
          "type": "address"
        }
      ],
      "name": "maxMint",
      "outputs": [
        {
          "internalType": "uint256",
          "name": "",
          "type": "uint256"
        }
      ],
      "stateMutability": "view",
      "type": "function"
    },
    {
      "inputs": [
        {
          "internalType": "address",
          "name": "_owner",
          "type": "address"
        }
      ],
      "name": "maxRedeem",
      "outputs": [
        {
          "internalType": "uint256",
          "name": "",
          "type": "uint256"
        }
      ],
      "stateMutability": "view",
      "type": "function"
    },
    {
      "inputs": [
        {
          "internalType": "address",
          "name": "_owner",
          "type": "address"
        }
      ],
      "name": "maxWithdraw",
      "outputs": [
        {
          "internalType": "uint256",
          "name": "",
          "type": "uint256"
        }
      ],
      "stateMutability": "view",
      "type": "function"
    },
    {
      "inputs": [
        {
          "internalType": "address",
          "name": "_to",
          "type": "address"
        },
        {
          "internalType": "address[]",
          "name": "_tokens",
          "type": "address[]"
        }
      ],
      "name": "migrate",
      "outputs": [],
      "stateMutability": "nonpayable",
      "type": "function"
    },
    {
      "inputs": [
        {
          "internalType": "uint256",
          "name": "_shares",
          "type": "uint256"
        },
        {
          "internalType": "address",
          "name": "_receiver",
          "type": "address"
        }
      ],
      "name": "mint",
      "outputs": [
        {
          "internalType": "uint256",
          "name": "assets",
          "type": "uint256"
        }
      ],
      "stateMutability": "nonpayable",
      "type": "function"
    },
    {
      "inputs": [],
      "name": "openManagementWindow",
      "outputs": [],
      "stateMutability": "nonpayable",
      "type": "function"
    },
    {
      "inputs": [
        {
          "internalType": "uint256",
          "name": "_assets",
          "type": "uint256"
        }
      ],
      "name": "previewDeposit",
      "outputs": [
        {
          "internalType": "uint256",
          "name": "",
          "type": "uint256"
        }
      ],
      "stateMutability": "view",
      "type": "function"
    },
    {
      "inputs": [
        {
          "internalType": "uint256",
          "name": "_shares",
          "type": "uint256"
        }
      ],
      "name": "previewMint",
      "outputs": [
        {
          "internalType": "uint256",
          "name": "",
          "type": "uint256"
        }
      ],
      "stateMutability": "view",
      "type": "function"
    },
    {
      "inputs": [
        {
          "internalType": "uint256",
          "name": "_shares",
          "type": "uint256"
        }
      ],
      "name": "previewRedeem",
      "outputs": [
        {
          "internalType": "uint256",
          "name": "",
          "type": "uint256"
        }
      ],
      "stateMutability": "view",
      "type": "function"
    },
    {
      "inputs": [
        {
          "internalType": "uint256",
          "name": "_assets",
          "type": "uint256"
        }
      ],
      "name": "previewWithdraw",
      "outputs": [
        {
          "internalType": "uint256",
          "name": "",
          "type": "uint256"
        }
      ],
      "stateMutability": "view",
      "type": "function"
    },
    {
      "inputs": [
        {
          "internalType": "uint256",
          "name": "_assets",
          "type": "uint256"
        }
      ],
      "name": "pull",
      "outputs": [],
      "stateMutability": "nonpayable",
      "type": "function"
    },
    {
      "inputs": [
        {
          "internalType": "uint256",
          "name": "_shares",
          "type": "uint256"
        },
        {
          "internalType": "address",
          "name": "_receiver",
          "type": "address"
        },
        {
          "internalType": "address",
          "name": "",
          "type": "address"
        }
      ],
      "name": "redeem",
      "outputs": [
        {
          "internalType": "uint256",
          "name": "assets",
          "type": "uint256"
        }
      ],
      "stateMutability": "nonpayable",
      "type": "function"
    },
    {
      "inputs": [
        {
          "internalType": "address",
          "name": "_contractAddress",
          "type": "address"
        }
      ],
      "name": "removeContractAddressFromWhitelist",
      "outputs": [],
      "stateMutability": "nonpayable",
      "type": "function"
    },
    {
      "inputs": [
        {
          "internalType": "address",
          "name": "_strategyAddress",
          "type": "address"
        }
      ],
      "name": "removeStrategyFromWhitelist",
      "outputs": [],
      "stateMutability": "nonpayable",
      "type": "function"
    },
    {
      "inputs": [
        {
          "internalType": "bytes32",
          "name": "role",
          "type": "bytes32"
        },
        {
          "internalType": "address",
          "name": "account",
          "type": "address"
        }
      ],
      "name": "renounceRole",
      "outputs": [],
      "stateMutability": "nonpayable",
      "type": "function"
    },
    {
      "inputs": [
        {
          "internalType": "bytes32",
          "name": "role",
          "type": "bytes32"
        },
        {
          "internalType": "address",
          "name": "account",
          "type": "address"
        }
      ],
      "name": "revokeRole",
      "outputs": [],
      "stateMutability": "nonpayable",
      "type": "function"
    },
    {
      "inputs": [
        {
          "internalType": "bool",
          "name": "_status",
          "type": "bool"
        }
      ],
      "name": "setChargeFees",
      "outputs": [],
      "stateMutability": "nonpayable",
      "type": "function"
    },
    {
      "inputs": [
        {
          "internalType": "address",
          "name": "_feeDistributor",
          "type": "address"
        }
      ],
      "name": "setFeeDistributor",
      "outputs": [],
      "stateMutability": "nonpayable",
      "type": "function"
    },
    {
      "inputs": [
        {
          "internalType": "uint256",
          "name": "_amount",
          "type": "uint256"
        }
      ],
      "name": "setVaultCap",
      "outputs": [],
      "stateMutability": "nonpayable",
      "type": "function"
    },
    {
      "inputs": [],
      "name": "share",
      "outputs": [
        {
          "internalType": "address",
          "name": "",
          "type": "address"
        }
      ],
      "stateMutability": "view",
      "type": "function"
    },
    {
      "inputs": [],
      "name": "snapshotAssetBalance",
      "outputs": [
        {
          "internalType": "uint256",
          "name": "",
          "type": "uint256"
        }
      ],
      "stateMutability": "view",
      "type": "function"
    },
    {
      "inputs": [],
      "name": "snapshotSharesSupply",
      "outputs": [
        {
          "internalType": "uint256",
          "name": "",
          "type": "uint256"
        }
      ],
      "stateMutability": "view",
      "type": "function"
    },
    {
      "inputs": [],
      "name": "state",
      "outputs": [
        {
          "internalType": "enum IVault.State",
          "name": "",
          "type": "uint8"
        }
      ],
      "stateMutability": "view",
      "type": "function"
    },
    {
      "inputs": [
        {
          "internalType": "bytes4",
          "name": "interfaceId",
          "type": "bytes4"
        }
      ],
      "name": "supportsInterface",
      "outputs": [
        {
          "internalType": "bool",
          "name": "",
          "type": "bool"
        }
      ],
      "stateMutability": "view",
      "type": "function"
    },
    {
      "inputs": [],
      "name": "totalAssets",
      "outputs": [
        {
          "internalType": "uint256",
          "name": "",
          "type": "uint256"
        }
      ],
      "stateMutability": "view",
      "type": "function"
    },
    {
      "inputs": [],
      "name": "vaultCap",
      "outputs": [
        {
          "internalType": "uint256",
          "name": "",
          "type": "uint256"
        }
      ],
      "stateMutability": "view",
      "type": "function"
    },
    {
      "inputs": [
        {
          "internalType": "address",
          "name": "_strategyAddress",
          "type": "address"
        }
      ],
      "name": "whitelistStrategy",
      "outputs": [],
      "stateMutability": "nonpayable",
      "type": "function"
    },
    {
      "inputs": [
        {
          "internalType": "address",
          "name": "",
          "type": "address"
        }
      ],
      "name": "whitelistedContract",
      "outputs": [
        {
          "internalType": "bool",
          "name": "",
          "type": "bool"
        }
      ],
      "stateMutability": "view",
      "type": "function"
    },
    {
      "inputs": [
        {
          "internalType": "uint256",
          "name": "_assets",
          "type": "uint256"
        },
        {
          "internalType": "address",
          "name": "_receiver",
          "type": "address"
        },
        {
          "internalType": "address",
          "name": "",
          "type": "address"
        }
      ],
      "name": "withdraw",
      "outputs": [
        {
          "internalType": "uint256",
          "name": "shares",
          "type": "uint256"
        }
      ],
      "stateMutability": "nonpayable",
      "type": "function"
    }
  ],
  "bytecode": "0x60c06040526000600760006101000a81548160ff021916908360028111156200002d576200002c62000476565b5b02179055503480156200003f57600080fd5b506040516200423e3803806200423e83398181016040528101906200006591906200054a565b848484848460018081905550600073ffffffffffffffffffffffffffffffffffffffff168573ffffffffffffffffffffffffffffffffffffffff161415620000d9576040517f5963709b00000000000000000000000000000000000000000000000000000000815260040160405180910390fd5b600073ffffffffffffffffffffffffffffffffffffffff168473ffffffffffffffffffffffffffffffffffffffff16141562000141576040517f5963709b00000000000000000000000000000000000000000000000000000000815260040160405180910390fd5b600073ffffffffffffffffffffffffffffffffffffffff168373ffffffffffffffffffffffffffffffffffffffff161415620001a9576040517f5963709b00000000000000000000000000000000000000000000000000000000815260040160405180910390fd5b600073ffffffffffffffffffffffffffffffffffffffff168273ffffffffffffffffffffffffffffffffffffffff16141562000211576040517f5963709b00000000000000000000000000000000000000000000000000000000815260040160405180910390fd5b8473ffffffffffffffffffffffffffffffffffffffff1660808173ffffffffffffffffffffffffffffffffffffffff16815250508373ffffffffffffffffffffffffffffffffffffffff1660a08173ffffffffffffffffffffffffffffffffffffffff168152505081600560016101000a81548173ffffffffffffffffffffffffffffffffffffffff021916908373ffffffffffffffffffffffffffffffffffffffff1602179055508060048190555060016002819055506001600381905550620003037f7935bd0ae54bc31f548c14dba4d37c5c64b3f8ca900cb468fb8abd54d5894f55846200031360201b60201c565b50505050505050505050620005d2565b6200032582826200040460201b60201c565b6200040057600160008084815260200190815260200160002060000160008373ffffffffffffffffffffffffffffffffffffffff1673ffffffffffffffffffffffffffffffffffffffff16815260200190815260200160002060006101000a81548160ff021916908315150217905550620003a56200046e60201b60201c565b73ffffffffffffffffffffffffffffffffffffffff168173ffffffffffffffffffffffffffffffffffffffff16837f2f8788117e7eff1d82e926ec794901d17c78024a50270940304540a733656f0d60405160405180910390a45b5050565b600080600084815260200190815260200160002060000160008373ffffffffffffffffffffffffffffffffffffffff1673ffffffffffffffffffffffffffffffffffffffff16815260200190815260200160002060009054906101000a900460ff16905092915050565b600033905090565b7f4e487b7100000000000000000000000000000000000000000000000000000000600052602160045260246000fd5b600080fd5b600073ffffffffffffffffffffffffffffffffffffffff82169050919050565b6000620004d782620004aa565b9050919050565b620004e981620004ca565b8114620004f557600080fd5b50565b6000815190506200050981620004de565b92915050565b6000819050919050565b62000524816200050f565b81146200053057600080fd5b50565b600081519050620005448162000519565b92915050565b600080600080600060a08688031215620005695762000568620004a5565b5b60006200057988828901620004f8565b95505060206200058c88828901620004f8565b94505060406200059f88828901620004f8565b9350506060620005b288828901620004f8565b9250506080620005c58882890162000533565b9150509295509295909350565b60805160a051613be46200065a6000396000818161151c01528181611925015281816119f60152818161221901528181612326015261290a01526000818161093c01528181610e670152818161107e01528181611ba2015281816121d2015281816124360152818161275d01528181612843015281816128c0015261299f0152613be46000f3fe608060405234801561001057600080fd5b506004361061028a5760003560e01c806394bf804d1161015c578063c19d93fb116100ce578063d547741f11610087578063d547741f14610823578063d905777e1461083f578063e8b025e01461086f578063e8ddb9a61461088b578063ef8b30f7146108a7578063f0f5907d146108d75761028a565b8063c19d93fb1461073b578063c63d75b614610759578063c6460a8c14610789578063c6e6f592146107a7578063ccfc2e8d146107d7578063ce96cb77146107f35761028a565b8063ab5d26e711610120578063ab5d26e714610655578063ae77425614610671578063b3d7f6b91461068d578063b460af94146106bd578063ba087652146106ed578063c15fc6881461071d5761028a565b806394bf804d146105b1578063a217fddf146105e1578063a49b2780146105ff578063a6c008ee1461061b578063a8d5fd65146106375761028a565b806336568abe116102005780634d0392a8116101b95780634d0392a8146104dd5780636dc0ae22146104f95780636e553f65146105175780636fd2869f146105475780638f5b30911461056557806391d14854146105815761028a565b806336568abe1461041b57806338d52e0f146104375780633c1bda0914610455578063402d267d1461047357806346b49dec146104a35780634cdad506146104ad5761028a565b80630d43e8ad116102525780630d43e8ad146103595780631f9920e214610377578063248a9ca31461038157806328836fd7146103b15780632d706e40146103e15780632f2ff15d146103ff5761028a565b806301e1d1141461028f57806301ffc9a7146102ad578063047701e4146102dd57806307a2d13a146102f95780630a28a47714610329575b600080fd5b6102976108f3565b6040516102a49190612d1b565b60405180910390f35b6102c760048036038101906102c29190612da2565b6109da565b6040516102d49190612dea565b60405180910390f35b6102f760048036038101906102f29190612fbc565b610a54565b005b610313600480360381019061030e9190613044565b610c2a565b6040516103209190612d1b565b60405180910390f35b610343600480360381019061033e9190613044565b610c60565b6040516103509190612d1b565b60405180910390f35b610361610c96565b60405161036e9190613080565b60405180910390f35b61037f610cbc565b005b61039b600480360381019061039691906130d1565b610d74565b6040516103a8919061310d565b60405180910390f35b6103cb60048036038101906103c69190613128565b610d93565b6040516103d89190612dea565b60405180910390f35b6103e9610db3565b6040516103f69190612d1b565b60405180910390f35b61041960048036038101906104149190613155565b610db9565b005b61043560048036038101906104309190613155565b610de2565b005b61043f610e65565b60405161044c9190613080565b60405180910390f35b61045d610e89565b60405161046a9190612d1b565b60405180910390f35b61048d60048036038101906104889190613128565b610e8f565b60405161049a9190612d1b565b60405180910390f35b6104ab610f36565b005b6104c760048036038101906104c29190613044565b610fee565b6040516104d49190612d1b565b60405180910390f35b6104f760048036038101906104f29190613044565b611000565b005b6105016110c6565b60405161050e919061310d565b60405180910390f35b610531600480360381019061052c9190613195565b6110ea565b60405161053e9190612d1b565b60405180910390f35b61054f6111ee565b60405161055c9190612d1b565b60405180910390f35b61057f600480360381019061057a9190613128565b6111f4565b005b61059b60048036038101906105969190613155565b611254565b6040516105a89190612dea565b60405180910390f35b6105cb60048036038101906105c69190613195565b6112be565b6040516105d89190612d1b565b60405180910390f35b6105e9611387565b6040516105f6919061310d565b60405180910390f35b610619600480360381019061061491906131d5565b61138e565b005b61063560048036038101906106309190613128565b61148c565b005b61063f61151a565b60405161064c9190613080565b60405180910390f35b61066f600480360381019061066a9190613241565b61153e565b005b61068b60048036038101906106869190613128565b61158e565b005b6106a760048036038101906106a29190613044565b6115ee565b6040516106b49190612d1b565b60405180910390f35b6106d760048036038101906106d2919061326e565b611624565b6040516106e49190612d1b565b60405180910390f35b6107076004803603810190610702919061326e565b6116dd565b6040516107149190612d1b565b60405180910390f35b610725611796565b6040516107329190612dea565b60405180910390f35b6107436117a9565b6040516107509190613338565b60405180910390f35b610773600480360381019061076e9190613128565b6117bc565b6040516107809190612d1b565b60405180910390f35b6107916117e6565b60405161079e919061310d565b60405180910390f35b6107c160048036038101906107bc9190613044565b61180a565b6040516107ce9190612d1b565b60405180910390f35b6107f160048036038101906107ec9190613128565b611840565b005b61080d60048036038101906108089190613128565b61191e565b60405161081a9190612d1b565b60405180910390f35b61083d60048036038101906108389190613155565b6119c9565b005b61085960048036038101906108549190613128565b6119f2565b6040516108669190612d1b565b60405180910390f35b61088960048036038101906108849190613128565b611a95565b005b6108a560048036038101906108a09190613044565b611b23565b005b6108c160048036038101906108bc9190613044565b611beb565b6040516108ce9190612d1b565b60405180910390f35b6108f160048036038101906108ec9190613044565b611bfd565b005b6000600280811115610908576109076132c1565b5b600760009054906101000a900460ff16600281111561092a576109296132c1565b5b141561093a5760035490506109d7565b7f000000000000000000000000000000000000000000000000000000000000000073ffffffffffffffffffffffffffffffffffffffff166370a08231306040518263ffffffff1660e01b81526004016109939190613080565b602060405180830381865afa1580156109b0573d6000803e3d6000fd5b505050506040513d601f19601f820116820180604052508101906109d49190613368565b90505b90565b60007f7965db0b000000000000000000000000000000000000000000000000000000007bffffffffffffffffffffffffffffffffffffffffffffffffffffffff1916827bffffffffffffffffffffffffffffffffffffffffffffffffffffffff19161480610a4d5750610a4c82611c3a565b5b9050919050565b7f7935bd0ae54bc31f548c14dba4d37c5c64b3f8ca900cb468fb8abd54d5894f55610a8681610a81611ca4565b611cac565b60005b8251811015610bcd576000838281518110610aa757610aa6613395565b5b6020026020010151905060008173ffffffffffffffffffffffffffffffffffffffff166370a08231306040518263ffffffff1660e01b8152600401610aec9190613080565b602060405180830381865afa158015610b09573d6000803e3d6000fd5b505050506040513d601f19601f82011682018060405250810190610b2d9190613368565b90506000811115610bb8578173ffffffffffffffffffffffffffffffffffffffff1663a9059cbb87836040518363ffffffff1660e01b8152600401610b739291906133c4565b6020604051808303816000875af1158015610b92573d6000803e3d6000fd5b505050506040513d601f19601f82011682018060405250810190610bb69190613402565b505b50508080610bc59061345e565b915050610a89565b5060004790506000811115610c24578373ffffffffffffffffffffffffffffffffffffffff166108fc829081150290604051600060405180830381858888f19350505050158015610c22573d6000803e3d6000fd5b505b50505050565b600080600254905060008114610c5657610c516003548285611d499092919063ffffffff16565b610c58565b825b915050919050565b600080600254905060008114610c8c57610c878160035485611d719092919063ffffffff16565b610c8e565b825b915050919050565b600560019054906101000a900473ffffffffffffffffffffffffffffffffffffffff1681565b7f7935bd0ae54bc31f548c14dba4d37c5c64b3f8ca900cb468fb8abd54d5894f55610cee81610ce9611ca4565b611cac565b610cf86002611da3565b610d00611e2e565b6001600760006101000a81548160ff02191690836002811115610d2657610d256132c1565b5b0217905550427f469dcd0c8170c8faf3678737ed5cc64107d6d30846f97438a0feefacbed00ec2600354600254604051610d619291906134a7565b60405180910390a2610d71611e40565b50565b6000806000838152602001908152602001600020600101549050919050565b60066020528060005260406000206000915054906101000a900460ff1681565b60035481565b610dc282610d74565b610dd381610dce611ca4565b611cac565b610ddd8383611e42565b505050565b610dea611ca4565b73ffffffffffffffffffffffffffffffffffffffff168173ffffffffffffffffffffffffffffffffffffffff1614610e57576040517f08c379a0000000000000000000000000000000000000000000000000000000008152600401610e4e90613553565b60405180910390fd5b610e618282611f22565b5050565b7f000000000000000000000000000000000000000000000000000000000000000081565b60045481565b6000806002811115610ea457610ea36132c1565b5b600760009054906101000a900460ff166002811115610ec657610ec56132c1565b5b1480610f045750600280811115610ee057610edf6132c1565b5b600760009054906101000a900460ff166002811115610f0257610f016132c1565b5b145b15610f125760009050610f31565b600454610f1d6108f3565b10610f2b5760009050610f31565b60045490505b919050565b7f7935bd0ae54bc31f548c14dba4d37c5c64b3f8ca900cb468fb8abd54d5894f55610f6881610f63611ca4565b611cac565b610f726001611da3565b610f7a612003565b6002600760006101000a81548160ff02191690836002811115610fa057610f9f6132c1565b5b0217905550427f29db3deb62ef2036e5eb93aad68d2362aec0711af592cb365566603bd88651d4600354600254604051610fdb9291906134a7565b60405180910390a2610feb61200d565b50565b6000610ff982610c2a565b9050919050565b7f83f1c4c0119299dc19d4102a0df1185e4605139e61947a2f1bf0978f284fc8916110328161102d611ca4565b611cac565b61103c6002611da3565b6000821415611077576040517f92064cc900000000000000000000000000000000000000000000000000000000815260040160405180910390fd5b6110c233837f000000000000000000000000000000000000000000000000000000000000000073ffffffffffffffffffffffffffffffffffffffff1661200f9092919063ffffffff16565b5050565b7f7935bd0ae54bc31f548c14dba4d37c5c64b3f8ca900cb468fb8abd54d5894f5581565b600060026001541415611132576040517f08c379a0000000000000000000000000000000000000000000000000000000008152600401611129906135bf565b60405180910390fd5b6002600181905550611142612095565b61114c6001611da3565b6000831415611187576040517f92064cc900000000000000000000000000000000000000000000000000000000815260040160405180910390fd5b6111908361214e565b61119983611beb565b905060008114156111d6576040517f596231e700000000000000000000000000000000000000000000000000000000815260040160405180910390fd5b6111e18284836121ca565b6001808190555092915050565b60025481565b7f7935bd0ae54bc31f548c14dba4d37c5c64b3f8ca900cb468fb8abd54d5894f5561122681611221611ca4565b611cac565b6112507f83f1c4c0119299dc19d4102a0df1185e4605139e61947a2f1bf0978f284fc89183611f22565b5050565b600080600084815260200190815260200160002060000160008373ffffffffffffffffffffffffffffffffffffffff1673ffffffffffffffffffffffffffffffffffffffff16815260200190815260200160002060009054906101000a900460ff16905092915050565b600060026001541415611306576040517f08c379a00000000000000000000000000000000000000000000000000000000081526004016112fd906135bf565b60405180910390fd5b6002600181905550611316612095565b6113206001611da3565b600083141561135b576040517f48bb68ad00000000000000000000000000000000000000000000000000000000815260040160405180910390fd5b611364836115ee565b905061136f8161214e565b61137a8282856121ca565b6001808190555092915050565b6000801b81565b7f7935bd0ae54bc31f548c14dba4d37c5c64b3f8ca900cb468fb8abd54d5894f556113c0816113bb611ca4565b611cac565b6113ca6000611da3565b60008314806113d95750600082145b15611410576040517f3f39992a00000000000000000000000000000000000000000000000000000000815260040160405180910390fd5b82600381905550816002819055506001600760006101000a81548160ff02191690836002811115611444576114436132c1565b5b0217905550427f469dcd0c8170c8faf3678737ed5cc64107d6d30846f97438a0feefacbed00ec260035460025460405161147f9291906134a7565b60405180910390a2505050565b7f7935bd0ae54bc31f548c14dba4d37c5c64b3f8ca900cb468fb8abd54d5894f556114be816114b9611ca4565b611cac565b6001600660008473ffffffffffffffffffffffffffffffffffffffff1673ffffffffffffffffffffffffffffffffffffffff16815260200190815260200160002060006101000a81548160ff0219169083151502179055505050565b7f000000000000000000000000000000000000000000000000000000000000000081565b7f7935bd0ae54bc31f548c14dba4d37c5c64b3f8ca900cb468fb8abd54d5894f556115708161156b611ca4565b611cac565b81600560006101000a81548160ff0219169083151502179055505050565b7f7935bd0ae54bc31f548c14dba4d37c5c64b3f8ca900cb468fb8abd54d5894f556115c0816115bb611ca4565b611cac565b6115ea7f83f1c4c0119299dc19d4102a0df1185e4605139e61947a2f1bf0978f284fc89183611e42565b5050565b60008060025490506000811461161a576116156003548285611d719092919063ffffffff16565b61161c565b825b915050919050565b60006002600154141561166c576040517f08c379a0000000000000000000000000000000000000000000000000000000008152600401611663906135bf565b60405180910390fd5b600260018190555061167e6001611da3565b60008414156116b9576040517f92064cc900000000000000000000000000000000000000000000000000000000815260040160405180910390fd5b6116c284610c60565b90506116cf83858361231a565b600180819055509392505050565b600060026001541415611725576040517f08c379a000000000000000000000000000000000000000000000000000000000815260040161171c906135bf565b60405180910390fd5b60026001819055506117376001611da3565b61174084610fee565b9050600081141561177d576040517f92064cc900000000000000000000000000000000000000000000000000000000815260040160405180910390fd5b61178883828661231a565b600180819055509392505050565b600560009054906101000a900460ff1681565b600760009054906101000a900460ff1681565b60007fffffffffffffffffffffffffffffffffffffffffffffffffffffffffffffffff9050919050565b7f83f1c4c0119299dc19d4102a0df1185e4605139e61947a2f1bf0978f284fc89181565b600080600254905060008114611836576118318160035485611d499092919063ffffffff16565b611838565b825b915050919050565b7f7935bd0ae54bc31f548c14dba4d37c5c64b3f8ca900cb468fb8abd54d5894f556118728161186d611ca4565b611cac565b600073ffffffffffffffffffffffffffffffffffffffff168273ffffffffffffffffffffffffffffffffffffffff1614156118d9576040517f5963709b00000000000000000000000000000000000000000000000000000000815260040160405180910390fd5b81600560016101000a81548173ffffffffffffffffffffffffffffffffffffffff021916908373ffffffffffffffffffffffffffffffffffffffff1602179055505050565b60006119c27f000000000000000000000000000000000000000000000000000000000000000073ffffffffffffffffffffffffffffffffffffffff166370a08231846040518263ffffffff1660e01b815260040161197c9190613080565b602060405180830381865afa158015611999573d6000803e3d6000fd5b505050506040513d601f19601f820116820180604052508101906119bd9190613368565b610c2a565b9050919050565b6119d282610d74565b6119e3816119de611ca4565b611cac565b6119ed8383611f22565b505050565b60007f000000000000000000000000000000000000000000000000000000000000000073ffffffffffffffffffffffffffffffffffffffff166370a08231836040518263ffffffff1660e01b8152600401611a4d9190613080565b602060405180830381865afa158015611a6a573d6000803e3d6000fd5b505050506040513d601f19601f82011682018060405250810190611a8e9190613368565b9050919050565b7f7935bd0ae54bc31f548c14dba4d37c5c64b3f8ca900cb468fb8abd54d5894f55611ac781611ac2611ca4565b611cac565b6000600660008473ffffffffffffffffffffffffffffffffffffffff1673ffffffffffffffffffffffffffffffffffffffff16815260200190815260200160002060006101000a81548160ff0219169083151502179055505050565b7f83f1c4c0119299dc19d4102a0df1185e4605139e61947a2f1bf0978f284fc891611b5581611b50611ca4565b611cac565b611b5f6002611da3565b6000821415611b9a576040517f92064cc900000000000000000000000000000000000000000000000000000000815260040160405180910390fd5b611be73330847f000000000000000000000000000000000000000000000000000000000000000073ffffffffffffffffffffffffffffffffffffffff1661247f909392919063ffffffff16565b5050565b6000611bf68261180a565b9050919050565b7f7935bd0ae54bc31f548c14dba4d37c5c64b3f8ca900cb468fb8abd54d5894f55611c2f81611c2a611ca4565b611cac565b816004819055505050565b60007f01ffc9a7000000000000000000000000000000000000000000000000000000007bffffffffffffffffffffffffffffffffffffffffffffffffffffffff1916827bffffffffffffffffffffffffffffffffffffffffffffffffffffffff1916149050919050565b600033905090565b611cb68282611254565b611d4557611cdb8173ffffffffffffffffffffffffffffffffffffffff166014612508565b611ce98360001c6020612508565b604051602001611cfa9291906136f1565b6040516020818303038152906040526040517f08c379a0000000000000000000000000000000000000000000000000000000008152600401611d3c9190613764565b60405180910390fd5b5050565b60008284029050828482041484151782151516611d6557600080fd5b81810490509392505050565b60008284029050828482041484151782151516611d8d57600080fd5b6001826001830304018115150290509392505050565b806002811115611db657611db56132c1565b5b600760009054906101000a900460ff166002811115611dd857611dd76132c1565b5b14611e2b5780600760009054906101000a900460ff166040517f1f193991000000000000000000000000000000000000000000000000000000008152600401611e22929190613786565b60405180910390fd5b50565b611e36612744565b611e3e612908565b565b565b611e4c8282611254565b611f1e57600160008084815260200190815260200160002060000160008373ffffffffffffffffffffffffffffffffffffffff1673ffffffffffffffffffffffffffffffffffffffff16815260200190815260200160002060006101000a81548160ff021916908315150217905550611ec3611ca4565b73ffffffffffffffffffffffffffffffffffffffff168173ffffffffffffffffffffffffffffffffffffffff16837f2f8788117e7eff1d82e926ec794901d17c78024a50270940304540a733656f0d60405160405180910390a45b5050565b611f2c8282611254565b15611fff57600080600084815260200190815260200160002060000160008373ffffffffffffffffffffffffffffffffffffffff1673ffffffffffffffffffffffffffffffffffffffff16815260200190815260200160002060006101000a81548160ff021916908315150217905550611fa4611ca4565b73ffffffffffffffffffffffffffffffffffffffff168173ffffffffffffffffffffffffffffffffffffffff16837ff6391f5c32d9c69d2a47ea670b442974b53935d1edc7fd64eb21e047a839171b60405160405180910390a45b5050565b61200b612908565b565b565b6120908363a9059cbb60e01b848460405160240161202e9291906133c4565b604051602081830303815290604052907bffffffffffffffffffffffffffffffffffffffffffffffffffffffff19166020820180517bffffffffffffffffffffffffffffffffffffffffffffffffffffffff8381831617835250505050612a7d565b505050565b3273ffffffffffffffffffffffffffffffffffffffff163373ffffffffffffffffffffffffffffffffffffffff161461214c57600660003373ffffffffffffffffffffffffffffffffffffffff1673ffffffffffffffffffffffffffffffffffffffff16815260200190815260200160002060009054906101000a900460ff1661214b576040517f4911a61b00000000000000000000000000000000000000000000000000000000815260040160405180910390fd5b5b565b7fffffffffffffffffffffffffffffffffffffffffffffffffffffffffffffffff60045410156121c757600454816121846108f3565b61218e91906137af565b11156121c6576040517f0de991a900000000000000000000000000000000000000000000000000000000815260040160405180910390fd5b5b50565b6122173330847f000000000000000000000000000000000000000000000000000000000000000073ffffffffffffffffffffffffffffffffffffffff1661247f909392919063ffffffff16565b7f000000000000000000000000000000000000000000000000000000000000000073ffffffffffffffffffffffffffffffffffffffff166340c10f1984836040518363ffffffff1660e01b81526004016122729291906133c4565b600060405180830381600087803b15801561228c57600080fd5b505af11580156122a0573d6000803e3d6000fd5b505050508273ffffffffffffffffffffffffffffffffffffffff163373ffffffffffffffffffffffffffffffffffffffff167fdcbc1c05240f31ff3ad067ef1ee35ce4997762752e3a095284754544f4c709d784846040516123039291906134a7565b60405180910390a36123158282612b44565b505050565b6123248282612b48565b7f000000000000000000000000000000000000000000000000000000000000000073ffffffffffffffffffffffffffffffffffffffff166379cc679033836040518363ffffffff1660e01b815260040161237f9291906133c4565b600060405180830381600087803b15801561239957600080fd5b505af11580156123ad573d6000803e3d6000fd5b505050503373ffffffffffffffffffffffffffffffffffffffff168373ffffffffffffffffffffffffffffffffffffffff163373ffffffffffffffffffffffffffffffffffffffff167ffbde797d201c681b91056529119e0b02407c7bb96a4a2c75c01fc9667232c8db85856040516124279291906134a7565b60405180910390a461247a83837f000000000000000000000000000000000000000000000000000000000000000073ffffffffffffffffffffffffffffffffffffffff1661200f9092919063ffffffff16565b505050565b612502846323b872dd60e01b8585856040516024016124a093929190613805565b604051602081830303815290604052907bffffffffffffffffffffffffffffffffffffffffffffffffffffffff19166020820180517bffffffffffffffffffffffffffffffffffffffffffffffffffffffff8381831617835250505050612a7d565b50505050565b60606000600283600261251b919061383c565b61252591906137af565b67ffffffffffffffff81111561253e5761253d612e79565b5b6040519080825280601f01601f1916602001820160405280156125705781602001600182028036833780820191505090505b5090507f3000000000000000000000000000000000000000000000000000000000000000816000815181106125a8576125a7613395565b5b60200101907effffffffffffffffffffffffffffffffffffffffffffffffffffffffffffff1916908160001a9053507f78000000000000000000000000000000000000000000000000000000000000008160018151811061260c5761260b613395565b5b60200101907effffffffffffffffffffffffffffffffffffffffffffffffffffffffffffff1916908160001a9053506000600184600261264c919061383c565b61265691906137af565b90505b60018111156126f6577f3031323334353637383961626364656600000000000000000000000000000000600f86166010811061269857612697613395565b5b1a60f81b8282815181106126af576126ae613395565b5b60200101907effffffffffffffffffffffffffffffffffffffffffffffffffffffffffffff1916908160001a905350600485901c9450806126ef90613896565b9050612659565b506000841461273a576040517f08c379a00000000000000000000000000000000000000000000000000000000081526004016127319061390c565b60405180910390fd5b8091505092915050565b600560009054906101000a900460ff16156129065760007f000000000000000000000000000000000000000000000000000000000000000073ffffffffffffffffffffffffffffffffffffffff166370a08231306040518263ffffffff1660e01b81526004016127b49190613080565b602060405180830381865afa1580156127d1573d6000803e3d6000fd5b505050506040513d601f19601f820116820180604052508101906127f59190613368565b905060035481111561288857612887600560019054906101000a900473ffffffffffffffffffffffffffffffffffffffff16600560035484612837919061392c565b612841919061398f565b7f000000000000000000000000000000000000000000000000000000000000000073ffffffffffffffffffffffffffffffffffffffff1661200f9092919063ffffffff16565b5b612904600560019054906101000a900473ffffffffffffffffffffffffffffffffffffffff166102586003546128be919061398f565b7f000000000000000000000000000000000000000000000000000000000000000073ffffffffffffffffffffffffffffffffffffffff1661200f9092919063ffffffff16565b505b565b7f000000000000000000000000000000000000000000000000000000000000000073ffffffffffffffffffffffffffffffffffffffff166318160ddd6040518163ffffffff1660e01b8152600401602060405180830381865afa158015612973573d6000803e3d6000fd5b505050506040513d601f19601f820116820180604052508101906129979190613368565b6002819055507f000000000000000000000000000000000000000000000000000000000000000073ffffffffffffffffffffffffffffffffffffffff166370a08231306040518263ffffffff1660e01b81526004016129f69190613080565b602060405180830381865afa158015612a13573d6000803e3d6000fd5b505050506040513d601f19601f82011682018060405250810190612a379190613368565b600381905550427f4721c31db00d4c86f3effcb9b553c869ce768e138eaf7a09cea387ffb5d9da33600354600254604051612a739291906134a7565b60405180910390a2565b6000612adf826040518060400160405280602081526020017f5361666545524332303a206c6f772d6c6576656c2063616c6c206661696c65648152508573ffffffffffffffffffffffffffffffffffffffff16612b4c9092919063ffffffff16565b9050600081511115612b3f5780806020019051810190612aff9190613402565b612b3e576040517f08c379a0000000000000000000000000000000000000000000000000000000008152600401612b3590613a32565b60405180910390fd5b5b505050565b5050565b5050565b6060612b5b8484600085612b64565b90509392505050565b606082471015612ba9576040517f08c379a0000000000000000000000000000000000000000000000000000000008152600401612ba090613ac4565b60405180910390fd5b612bb285612c78565b612bf1576040517f08c379a0000000000000000000000000000000000000000000000000000000008152600401612be890613b30565b60405180910390fd5b6000808673ffffffffffffffffffffffffffffffffffffffff168587604051612c1a9190613b97565b60006040518083038185875af1925050503d8060008114612c57576040519150601f19603f3d011682016040523d82523d6000602084013e612c5c565b606091505b5091509150612c6c828286612c9b565b92505050949350505050565b6000808273ffffffffffffffffffffffffffffffffffffffff163b119050919050565b60608315612cab57829050612cfb565b600083511115612cbe5782518084602001fd5b816040517f08c379a0000000000000000000000000000000000000000000000000000000008152600401612cf29190613764565b60405180910390fd5b9392505050565b6000819050919050565b612d1581612d02565b82525050565b6000602082019050612d306000830184612d0c565b92915050565b6000604051905090565b600080fd5b600080fd5b60007fffffffff0000000000000000000000000000000000000000000000000000000082169050919050565b612d7f81612d4a565b8114612d8a57600080fd5b50565b600081359050612d9c81612d76565b92915050565b600060208284031215612db857612db7612d40565b5b6000612dc684828501612d8d565b91505092915050565b60008115159050919050565b612de481612dcf565b82525050565b6000602082019050612dff6000830184612ddb565b92915050565b600073ffffffffffffffffffffffffffffffffffffffff82169050919050565b6000612e3082612e05565b9050919050565b612e4081612e25565b8114612e4b57600080fd5b50565b600081359050612e5d81612e37565b92915050565b600080fd5b6000601f19601f8301169050919050565b7f4e487b7100000000000000000000000000000000000000000000000000000000600052604160045260246000fd5b612eb182612e68565b810181811067ffffffffffffffff82111715612ed057612ecf612e79565b5b80604052505050565b6000612ee3612d36565b9050612eef8282612ea8565b919050565b600067ffffffffffffffff821115612f0f57612f0e612e79565b5b602082029050602081019050919050565b600080fd5b6000612f38612f3384612ef4565b612ed9565b90508083825260208201905060208402830185811115612f5b57612f5a612f20565b5b835b81811015612f845780612f708882612e4e565b845260208401935050602081019050612f5d565b5050509392505050565b600082601f830112612fa357612fa2612e63565b5b8135612fb3848260208601612f25565b91505092915050565b60008060408385031215612fd357612fd2612d40565b5b6000612fe185828601612e4e565b925050602083013567ffffffffffffffff81111561300257613001612d45565b5b61300e85828601612f8e565b9150509250929050565b61302181612d02565b811461302c57600080fd5b50565b60008135905061303e81613018565b92915050565b60006020828403121561305a57613059612d40565b5b60006130688482850161302f565b91505092915050565b61307a81612e25565b82525050565b60006020820190506130956000830184613071565b92915050565b6000819050919050565b6130ae8161309b565b81146130b957600080fd5b50565b6000813590506130cb816130a5565b92915050565b6000602082840312156130e7576130e6612d40565b5b60006130f5848285016130bc565b91505092915050565b6131078161309b565b82525050565b600060208201905061312260008301846130fe565b92915050565b60006020828403121561313e5761313d612d40565b5b600061314c84828501612e4e565b91505092915050565b6000806040838503121561316c5761316b612d40565b5b600061317a858286016130bc565b925050602061318b85828601612e4e565b9150509250929050565b600080604083850312156131ac576131ab612d40565b5b60006131ba8582860161302f565b92505060206131cb85828601612e4e565b9150509250929050565b600080604083850312156131ec576131eb612d40565b5b60006131fa8582860161302f565b925050602061320b8582860161302f565b9150509250929050565b61321e81612dcf565b811461322957600080fd5b50565b60008135905061323b81613215565b92915050565b60006020828403121561325757613256612d40565b5b60006132658482850161322c565b91505092915050565b60008060006060848603121561328757613286612d40565b5b60006132958682870161302f565b93505060206132a686828701612e4e565b92505060406132b786828701612e4e565b9150509250925092565b7f4e487b7100000000000000000000000000000000000000000000000000000000600052602160045260246000fd5b60038110613301576133006132c1565b5b50565b6000819050613312826132f0565b919050565b600061332282613304565b9050919050565b61333281613317565b82525050565b600060208201905061334d6000830184613329565b92915050565b60008151905061336281613018565b92915050565b60006020828403121561337e5761337d612d40565b5b600061338c84828501613353565b91505092915050565b7f4e487b7100000000000000000000000000000000000000000000000000000000600052603260045260246000fd5b60006040820190506133d96000830185613071565b6133e66020830184612d0c565b9392505050565b6000815190506133fc81613215565b92915050565b60006020828403121561341857613417612d40565b5b6000613426848285016133ed565b91505092915050565b7f4e487b7100000000000000000000000000000000000000000000000000000000600052601160045260246000fd5b600061346982612d02565b91507fffffffffffffffffffffffffffffffffffffffffffffffffffffffffffffffff82141561349c5761349b61342f565b5b600182019050919050565b60006040820190506134bc6000830185612d0c565b6134c96020830184612d0c565b9392505050565b600082825260208201905092915050565b7f416363657373436f6e74726f6c3a2063616e206f6e6c792072656e6f756e636560008201527f20726f6c657320666f722073656c660000000000000000000000000000000000602082015250565b600061353d602f836134d0565b9150613548826134e1565b604082019050919050565b6000602082019050818103600083015261356c81613530565b9050919050565b7f5265656e7472616e637947756172643a207265656e7472616e742063616c6c00600082015250565b60006135a9601f836134d0565b91506135b482613573565b602082019050919050565b600060208201905081810360008301526135d88161359c565b9050919050565b600081905092915050565b7f416363657373436f6e74726f6c3a206163636f756e7420000000000000000000600082015250565b60006136206017836135df565b915061362b826135ea565b601782019050919050565b600081519050919050565b60005b8381101561365f578082015181840152602081019050613644565b8381111561366e576000848401525b50505050565b600061367f82613636565b61368981856135df565b9350613699818560208601613641565b80840191505092915050565b7f206973206d697373696e6720726f6c6520000000000000000000000000000000600082015250565b60006136db6011836135df565b91506136e6826136a5565b601182019050919050565b60006136fc82613613565b91506137088285613674565b9150613713826136ce565b915061371f8284613674565b91508190509392505050565b600061373682613636565b61374081856134d0565b9350613750818560208601613641565b61375981612e68565b840191505092915050565b6000602082019050818103600083015261377e818461372b565b905092915050565b600060408201905061379b6000830185613329565b6137a86020830184613329565b9392505050565b60006137ba82612d02565b91506137c583612d02565b9250827fffffffffffffffffffffffffffffffffffffffffffffffffffffffffffffffff038211156137fa576137f961342f565b5b828201905092915050565b600060608201905061381a6000830186613071565b6138276020830185613071565b6138346040830184612d0c565b949350505050565b600061384782612d02565b915061385283612d02565b9250817fffffffffffffffffffffffffffffffffffffffffffffffffffffffffffffffff048311821515161561388b5761388a61342f565b5b828202905092915050565b60006138a182612d02565b915060008214156138b5576138b461342f565b5b600182039050919050565b7f537472696e67733a20686578206c656e67746820696e73756666696369656e74600082015250565b60006138f66020836134d0565b9150613901826138c0565b602082019050919050565b60006020820190508181036000830152613925816138e9565b9050919050565b600061393782612d02565b915061394283612d02565b9250828210156139555761395461342f565b5b828203905092915050565b7f4e487b7100000000000000000000000000000000000000000000000000000000600052601260045260246000fd5b600061399a82612d02565b91506139a583612d02565b9250826139b5576139b4613960565b5b828204905092915050565b7f5361666545524332303a204552433230206f7065726174696f6e20646964206e60008201527f6f74207375636365656400000000000000000000000000000000000000000000602082015250565b6000613a1c602a836134d0565b9150613a27826139c0565b604082019050919050565b60006020820190508181036000830152613a4b81613a0f565b9050919050565b7f416464726573733a20696e73756666696369656e742062616c616e636520666f60008201527f722063616c6c0000000000000000000000000000000000000000000000000000602082015250565b6000613aae6026836134d0565b9150613ab982613a52565b604082019050919050565b60006020820190508181036000830152613add81613aa1565b9050919050565b7f416464726573733a2063616c6c20746f206e6f6e2d636f6e7472616374000000600082015250565b6000613b1a601d836134d0565b9150613b2582613ae4565b602082019050919050565b60006020820190508181036000830152613b4981613b0d565b9050919050565b600081519050919050565b600081905092915050565b6000613b7182613b50565b613b7b8185613b5b565b9350613b8b818560208601613641565b80840191505092915050565b6000613ba38284613b66565b91508190509291505056fea2646970667358221220699d0236c1e9201a1a47a3b95efba0187e7317ee5902cb00037c6b8c28f3dfdc64736f6c634300080a0033",
  "linkReferences": {},
  "deployedLinkReferences": {}
}