{
  "_format": "hh-sol-artifact-1",
  "contractName": "JonesSSOVPutV3Strategy",
  "sourceName": "contracts/VaultsV3/JonesSSOVPutV3Strategy.sol",
  "abi": [
    {
      "inputs": [
        {
          "internalType": "bytes32",
          "name": "_name",
          "type": "bytes32"
        },
        {
          "internalType": "address",
          "name": "_asset",
          "type": "address"
        },
        {
          "internalType": "address",
          "name": "_SSOV",
          "type": "address"
        },
        {
          "internalType": "address",
          "name": "_viewer",
          "type": "address"
        },
        {
          "internalType": "address",
          "name": "_router",
          "type": "address"
        },
        {
          "internalType": "address",
          "name": "_governor",
          "type": "address"
        }
      ],
      "stateMutability": "nonpayable",
      "type": "constructor"
    },
    {
      "inputs": [],
      "name": "ADDRESS_CANNOT_BE_ZERO_ADDRESS",
      "type": "error"
    },
    {
      "inputs": [],
      "name": "BORROW_AMOUNT_ZERO",
      "type": "error"
    },
    {
      "inputs": [],
      "name": "MANAGEMENT_WINDOW_NOT_OPEN",
      "type": "error"
    },
    {
      "inputs": [],
      "name": "MSG_SENDER_DOES_NOT_HAVE_PERMISSION_TO_EMERGENCY_WITHDRAW",
      "type": "error"
    },
    {
      "inputs": [],
      "name": "NOT_ENOUGH_AVAILABLE_ASSETS",
      "type": "error"
    },
    {
      "inputs": [],
      "name": "STRATEGY_STILL_HAS_ASSET_BALANCE",
      "type": "error"
    },
    {
      "inputs": [],
      "name": "VAULT_ALREADY_ATTACHED",
      "type": "error"
    },
    {
      "inputs": [],
      "name": "VAULT_NOT_ATTACHED",
      "type": "error"
    },
    {
      "anonymous": false,
      "inputs": [
        {
          "indexed": true,
          "internalType": "address",
          "name": "strategist",
          "type": "address"
        },
        {
          "indexed": false,
          "internalType": "uint256",
          "name": "amount",
          "type": "uint256"
        },
        {
          "indexed": true,
          "internalType": "address",
          "name": "vault",
          "type": "address"
        },
        {
          "indexed": true,
          "internalType": "address",
          "name": "asset",
          "type": "address"
        }
      ],
      "name": "Borrow",
      "type": "event"
    },
    {
      "anonymous": false,
      "inputs": [
        {
          "indexed": true,
          "internalType": "address",
          "name": "governor",
          "type": "address"
        }
      ],
      "name": "FundsMigrated",
      "type": "event"
    },
    {
      "anonymous": false,
      "inputs": [
        {
          "indexed": true,
          "internalType": "address",
          "name": "strategist",
          "type": "address"
        },
        {
          "indexed": false,
          "internalType": "uint256",
          "name": "amount",
          "type": "uint256"
        },
        {
          "indexed": true,
          "internalType": "address",
          "name": "vault",
          "type": "address"
        },
        {
          "indexed": true,
          "internalType": "address",
          "name": "asset",
          "type": "address"
        }
      ],
      "name": "Repay",
      "type": "event"
    },
    {
      "anonymous": false,
      "inputs": [
        {
          "indexed": true,
          "internalType": "bytes32",
          "name": "role",
          "type": "bytes32"
        },
        {
          "indexed": true,
          "internalType": "bytes32",
          "name": "previousAdminRole",
          "type": "bytes32"
        },
        {
          "indexed": true,
          "internalType": "bytes32",
          "name": "newAdminRole",
          "type": "bytes32"
        }
      ],
      "name": "RoleAdminChanged",
      "type": "event"
    },
    {
      "anonymous": false,
      "inputs": [
        {
          "indexed": true,
          "internalType": "bytes32",
          "name": "role",
          "type": "bytes32"
        },
        {
          "indexed": true,
          "internalType": "address",
          "name": "account",
          "type": "address"
        },
        {
          "indexed": true,
          "internalType": "address",
          "name": "sender",
          "type": "address"
        }
      ],
      "name": "RoleGranted",
      "type": "event"
    },
    {
      "anonymous": false,
      "inputs": [
        {
          "indexed": true,
          "internalType": "bytes32",
          "name": "role",
          "type": "bytes32"
        },
        {
          "indexed": true,
          "internalType": "address",
          "name": "account",
          "type": "address"
        },
        {
          "indexed": true,
          "internalType": "address",
          "name": "sender",
          "type": "address"
        }
      ],
      "name": "RoleRevoked",
      "type": "event"
    },
    {
      "anonymous": false,
      "inputs": [
        {
          "indexed": true,
          "internalType": "address",
          "name": "governor",
          "type": "address"
        },
        {
          "indexed": true,
          "internalType": "address",
          "name": "vault",
          "type": "address"
        }
      ],
      "name": "VaultDetached",
      "type": "event"
    },
    {
      "anonymous": false,
      "inputs": [
        {
          "indexed": true,
          "internalType": "address",
          "name": "governor",
          "type": "address"
        },
        {
          "indexed": true,
          "internalType": "address",
          "name": "vault",
          "type": "address"
        }
      ],
      "name": "VaultSet",
      "type": "event"
    },
    {
      "inputs": [],
      "name": "DEFAULT_ADMIN_ROLE",
      "outputs": [
        {
          "internalType": "bytes32",
          "name": "",
          "type": "bytes32"
        }
      ],
      "stateMutability": "view",
      "type": "function"
    },
    {
      "inputs": [],
      "name": "GOVERNOR",
      "outputs": [
        {
          "internalType": "bytes32",
          "name": "",
          "type": "bytes32"
        }
      ],
      "stateMutability": "view",
      "type": "function"
    },
    {
      "inputs": [],
      "name": "KEEPER",
      "outputs": [
        {
          "internalType": "bytes32",
          "name": "",
          "type": "bytes32"
        }
      ],
      "stateMutability": "view",
      "type": "function"
    },
    {
      "inputs": [],
      "name": "SSOV",
      "outputs": [
        {
          "internalType": "contract ISsovV3",
          "name": "",
          "type": "address"
        }
      ],
      "stateMutability": "view",
      "type": "function"
    },
    {
      "inputs": [],
      "name": "SSOVViewer",
      "outputs": [
        {
          "internalType": "contract ISsovV3Viewer",
          "name": "",
          "type": "address"
        }
      ],
      "stateMutability": "view",
      "type": "function"
    },
    {
      "inputs": [],
      "name": "asset",
      "outputs": [
        {
          "internalType": "address",
          "name": "",
          "type": "address"
        }
      ],
      "stateMutability": "view",
      "type": "function"
    },
    {
      "inputs": [
        {
          "internalType": "uint256",
          "name": "_amount",
          "type": "uint256"
        }
      ],
      "name": "borrow",
      "outputs": [],
      "stateMutability": "nonpayable",
      "type": "function"
    },
    {
      "inputs": [
        {
          "internalType": "uint256",
          "name": "_strikeIndex",
          "type": "uint256"
        },
        {
          "internalType": "uint256",
          "name": "_amount",
          "type": "uint256"
        }
      ],
      "name": "depositSSOV",
      "outputs": [
        {
          "internalType": "uint256",
          "name": "tokenId",
          "type": "uint256"
        }
      ],
      "stateMutability": "nonpayable",
      "type": "function"
    },
    {
      "inputs": [
        {
          "internalType": "uint256[]",
          "name": "_strikeIndices",
          "type": "uint256[]"
        },
        {
          "internalType": "uint256[]",
          "name": "_amounts",
          "type": "uint256[]"
        }
      ],
      "name": "depositSSOVMultiple",
      "outputs": [
        {
          "internalType": "bool",
          "name": "",
          "type": "bool"
        }
      ],
      "stateMutability": "nonpayable",
      "type": "function"
    },
    {
      "inputs": [],
      "name": "detach",
      "outputs": [],
      "stateMutability": "nonpayable",
      "type": "function"
    },
    {
      "inputs": [
        {
          "internalType": "bytes32",
          "name": "role",
          "type": "bytes32"
        }
      ],
      "name": "getRoleAdmin",
      "outputs": [
        {
          "internalType": "bytes32",
          "name": "",
          "type": "bytes32"
        }
      ],
      "stateMutability": "view",
      "type": "function"
    },
    {
      "inputs": [],
      "name": "getUnused",
      "outputs": [
        {
          "internalType": "uint256",
          "name": "",
          "type": "uint256"
        }
      ],
      "stateMutability": "view",
      "type": "function"
    },
    {
      "inputs": [],
      "name": "getVault",
      "outputs": [
        {
          "internalType": "address",
          "name": "",
          "type": "address"
        }
      ],
      "stateMutability": "view",
      "type": "function"
    },
    {
      "inputs": [
        {
          "internalType": "address",
          "name": "_to",
          "type": "address"
        }
      ],
      "name": "grantKeeperRole",
      "outputs": [],
      "stateMutability": "nonpayable",
      "type": "function"
    },
    {
      "inputs": [
        {
          "internalType": "bytes32",
          "name": "role",
          "type": "bytes32"
        },
        {
          "internalType": "address",
          "name": "account",
          "type": "address"
        }
      ],
      "name": "grantRole",
      "outputs": [],
      "stateMutability": "nonpayable",
      "type": "function"
    },
    {
      "inputs": [
        {
          "internalType": "bytes32",
          "name": "role",
          "type": "bytes32"
        },
        {
          "internalType": "address",
          "name": "account",
          "type": "address"
        }
      ],
      "name": "hasRole",
      "outputs": [
        {
          "internalType": "bool",
          "name": "",
          "type": "bool"
        }
      ],
      "stateMutability": "view",
      "type": "function"
    },
    {
      "inputs": [],
      "name": "isVaultSet",
      "outputs": [
        {
          "internalType": "bool",
          "name": "",
          "type": "bool"
        }
      ],
      "stateMutability": "view",
      "type": "function"
    },
    {
      "inputs": [
        {
          "internalType": "address",
          "name": "_to",
          "type": "address"
        },
        {
          "internalType": "address[]",
          "name": "_tokens",
          "type": "address[]"
        },
        {
          "internalType": "bool",
          "name": "_shouldTransferEth",
          "type": "bool"
        },
        {
          "internalType": "bool",
          "name": "_shouldTransferERC721",
          "type": "bool"
        }
      ],
      "name": "migrateFunds",
      "outputs": [],
      "stateMutability": "nonpayable",
      "type": "function"
    },
    {
      "inputs": [],
      "name": "name",
      "outputs": [
        {
          "internalType": "bytes32",
          "name": "",
          "type": "bytes32"
        }
      ],
      "stateMutability": "view",
      "type": "function"
    },
    {
      "inputs": [
        {
          "internalType": "address",
          "name": "",
          "type": "address"
        },
        {
          "internalType": "address",
          "name": "",
          "type": "address"
        },
        {
          "internalType": "uint256",
          "name": "",
          "type": "uint256"
        },
        {
          "internalType": "bytes",
          "name": "",
          "type": "bytes"
        }
      ],
      "name": "onERC721Received",
      "outputs": [
        {
          "internalType": "bytes4",
          "name": "",
          "type": "bytes4"
        }
      ],
      "stateMutability": "pure",
      "type": "function"
    },
    {
      "inputs": [
        {
          "internalType": "uint256",
          "name": "_strikeIndex",
          "type": "uint256"
        },
        {
          "internalType": "uint256",
          "name": "_amount",
          "type": "uint256"
        }
      ],
      "name": "purchaseOption",
      "outputs": [
        {
          "internalType": "bool",
          "name": "",
          "type": "bool"
        }
      ],
      "stateMutability": "nonpayable",
      "type": "function"
    },
    {
      "inputs": [
        {
          "internalType": "bytes32",
          "name": "role",
          "type": "bytes32"
        },
        {
          "internalType": "address",
          "name": "account",
          "type": "address"
        }
      ],
      "name": "renounceRole",
      "outputs": [],
      "stateMutability": "nonpayable",
      "type": "function"
    },
    {
      "inputs": [],
      "name": "repay",
      "outputs": [],
      "stateMutability": "nonpayable",
      "type": "function"
    },
    {
      "inputs": [
        {
          "internalType": "address",
          "name": "_from",
          "type": "address"
        }
      ],
      "name": "revokeKeeperRole",
      "outputs": [],
      "stateMutability": "nonpayable",
      "type": "function"
    },
    {
      "inputs": [
        {
          "internalType": "bytes32",
          "name": "role",
          "type": "bytes32"
        },
        {
          "internalType": "address",
          "name": "account",
          "type": "address"
        }
      ],
      "name": "revokeRole",
      "outputs": [],
      "stateMutability": "nonpayable",
      "type": "function"
    },
    {
      "inputs": [],
      "name": "router",
      "outputs": [
        {
          "internalType": "contract ISsovV3Router",
          "name": "",
          "type": "address"
        }
      ],
      "stateMutability": "view",
      "type": "function"
    },
    {
      "inputs": [
        {
          "internalType": "uint256",
          "name": "_amount",
          "type": "uint256"
        },
        {
          "internalType": "address",
          "name": "_stableToken",
          "type": "address"
        },
        {
          "internalType": "uint256",
          "name": "_minStableAmount",
          "type": "uint256"
        },
        {
          "internalType": "uint256",
          "name": "_minAssetAmount",
          "type": "uint256"
        }
      ],
      "name": "sell2CrvForBase",
      "outputs": [
        {
          "internalType": "uint256",
          "name": "",
          "type": "uint256"
        }
      ],
      "stateMutability": "nonpayable",
      "type": "function"
    },
    {
      "inputs": [
        {
          "internalType": "uint256",
          "name": "_baseAmount",
          "type": "uint256"
        },
        {
          "internalType": "address",
          "name": "_stableToken",
          "type": "address"
        },
        {
          "internalType": "uint256",
          "name": "_minStableAmount",
          "type": "uint256"
        },
        {
          "internalType": "uint256",
          "name": "_min2CrvAmount",
          "type": "uint256"
        }
      ],
      "name": "sellBaseFor2Crv",
      "outputs": [
        {
          "internalType": "uint256",
          "name": "",
          "type": "uint256"
        }
      ],
      "stateMutability": "nonpayable",
      "type": "function"
    },
    {
      "inputs": [
        {
          "internalType": "uint256",
          "name": "_minAssetOutputFromUSDCSwap",
          "type": "uint256"
        }
      ],
      "name": "sellUSDCForAsset",
      "outputs": [],
      "stateMutability": "nonpayable",
      "type": "function"
    },
    {
      "inputs": [
        {
          "internalType": "address",
          "name": "_newVault",
          "type": "address"
        }
      ],
      "name": "setVault",
      "outputs": [],
      "stateMutability": "nonpayable",
      "type": "function"
    },
    {
      "inputs": [
        {
          "internalType": "uint256",
          "name": "_ssovEpoch",
          "type": "uint256"
        },
        {
          "internalType": "uint256[]",
          "name": "_ssovStrikes",
          "type": "uint256[]"
        }
      ],
      "name": "settleEpoch",
      "outputs": [
        {
          "internalType": "bool",
          "name": "",
          "type": "bool"
        }
      ],
      "stateMutability": "nonpayable",
      "type": "function"
    },
    {
      "inputs": [
        {
          "internalType": "bytes4",
          "name": "interfaceId",
          "type": "bytes4"
        }
      ],
      "name": "supportsInterface",
      "outputs": [
        {
          "internalType": "bool",
          "name": "",
          "type": "bool"
        }
      ],
      "stateMutability": "view",
      "type": "function"
    },
    {
      "inputs": [
        {
          "internalType": "uint256",
          "name": "_minUSDCOutput",
          "type": "uint256"
        }
      ],
      "name": "swap2CRVBalanceForUSDC",
      "outputs": [],
      "stateMutability": "nonpayable",
      "type": "function"
    },
    {
      "inputs": [],
      "name": "totalDeposited",
      "outputs": [
        {
          "internalType": "uint256",
          "name": "",
          "type": "uint256"
        }
      ],
      "stateMutability": "view",
      "type": "function"
    },
    {
      "inputs": [
        {
          "internalType": "contract ISsovV3",
          "name": "_newSSOV",
          "type": "address"
        }
      ],
      "name": "updateSSOVAddress",
      "outputs": [],
      "stateMutability": "nonpayable",
      "type": "function"
    },
    {
      "inputs": [],
      "name": "viewer",
      "outputs": [
        {
          "internalType": "contract ISsovV3Viewer",
          "name": "",
          "type": "address"
        }
      ],
      "stateMutability": "view",
      "type": "function"
    },
    {
      "inputs": [],
      "name": "wETH",
      "outputs": [
        {
          "internalType": "address",
          "name": "",
          "type": "address"
        }
      ],
      "stateMutability": "view",
      "type": "function"
    },
    {
      "inputs": [
        {
          "internalType": "uint256",
          "name": "_epoch",
          "type": "uint256"
        },
        {
          "internalType": "uint256[]",
          "name": "_strikes",
          "type": "uint256[]"
        }
      ],
      "name": "withdrawEpoch",
      "outputs": [
        {
          "internalType": "bool",
          "name": "",
          "type": "bool"
        }
      ],
      "stateMutability": "nonpayable",
      "type": "function"
    },
    {
      "inputs": [
        {
          "internalType": "uint256",
          "name": "_tokenId",
          "type": "uint256"
        }
      ],
      "name": "withdrawTokenId",
      "outputs": [
        {
          "internalType": "bool",
          "name": "",
          "type": "bool"
        }
      ],
      "stateMutability": "nonpayable",
      "type": "function"
    },
    {
      "anonymous": false,
      "inputs": [
        {
          "indexed": true,
          "internalType": "uint256",
          "name": "_epoch",
          "type": "uint256"
        },
        {
          "indexed": false,
          "internalType": "uint256",
          "name": "_strikeIndex",
          "type": "uint256"
        },
        {
          "indexed": false,
          "internalType": "uint256",
          "name": "_amount",
          "type": "uint256"
        },
        {
          "indexed": false,
          "internalType": "uint256",
          "name": "_premium",
          "type": "uint256"
        },
        {
          "indexed": false,
          "internalType": "uint256",
          "name": "_totalFee",
          "type": "uint256"
        },
        {
          "indexed": false,
          "internalType": "address",
          "name": "_token",
          "type": "address"
        }
      ],
      "name": "SSOVPurchase",
      "type": "event"
    }
  ],
  "bytecode": "0x60c06040523480156200001157600080fd5b5060405162005c5a38038062005c5a833981810160405281019062000037919062000f54565b858585858585858582600073ffffffffffffffffffffffffffffffffffffffff168273ffffffffffffffffffffffffffffffffffffffff161415620000a8576040517f9cfbf00600000000000000000000000000000000000000000000000000000000815260040160405180910390fd5b600073ffffffffffffffffffffffffffffffffffffffff168173ffffffffffffffffffffffffffffffffffffffff16141562000110576040517f9cfbf00600000000000000000000000000000000000000000000000000000000815260040160405180910390fd5b8260a081815250508173ffffffffffffffffffffffffffffffffffffffff1660808173ffffffffffffffffffffffffffffffffffffffff16815250506200017e7f1a6838efa4183e08fe3607359d1259272af9d4716f65e1a7b5921f78fd5a3c6a82620007fc60201b60201c565b620001b07f71a9859d7dd21b24504a6f306077ffc2d510b4d4b61128e931fe937441ad183682620007fc60201b60201c565b505050600073ffffffffffffffffffffffffffffffffffffffff168473ffffffffffffffffffffffffffffffffffffffff1614156200021b576040517f9cfbf00600000000000000000000000000000000000000000000000000000000815260040160405180910390fd5b600073ffffffffffffffffffffffffffffffffffffffff168373ffffffffffffffffffffffffffffffffffffffff16141562000283576040517f9cfbf00600000000000000000000000000000000000000000000000000000000815260040160405180910390fd5b600073ffffffffffffffffffffffffffffffffffffffff168273ffffffffffffffffffffffffffffffffffffffff161415620002eb576040517f9cfbf00600000000000000000000000000000000000000000000000000000000815260040160405180910390fd5b83600360016101000a81548173ffffffffffffffffffffffffffffffffffffffff021916908373ffffffffffffffffffffffffffffffffffffffff16021790555082600560006101000a81548173ffffffffffffffffffffffffffffffffffffffff021916908373ffffffffffffffffffffffffffffffffffffffff16021790555081600660006101000a81548173ffffffffffffffffffffffffffffffffffffffff021916908373ffffffffffffffffffffffffffffffffffffffff1602179055505050505050507382af49447d8a07e3bd95bd0d56f35241523fbab173ffffffffffffffffffffffffffffffffffffffff168573ffffffffffffffffffffffffffffffffffffffff161415620004ab57604051806040016040528073ff970a61a04b1ca14834a43f5de4533ebddb5cc873ffffffffffffffffffffffffffffffffffffffff1673ffffffffffffffffffffffffffffffffffffffff1681526020017382af49447d8a07e3bd95bd0d56f35241523fbab173ffffffffffffffffffffffffffffffffffffffff1673ffffffffffffffffffffffffffffffffffffffff168152506007906002620004a492919062000d72565b5062000586565b604051806060016040528073ff970a61a04b1ca14834a43f5de4533ebddb5cc873ffffffffffffffffffffffffffffffffffffffff1673ffffffffffffffffffffffffffffffffffffffff1681526020017382af49447d8a07e3bd95bd0d56f35241523fbab173ffffffffffffffffffffffffffffffffffffffff1673ffffffffffffffffffffffffffffffffffffffff1681526020018673ffffffffffffffffffffffffffffffffffffffff1673ffffffffffffffffffffffffffffffffffffffff1681525060079060036200058492919062000e01565b505b62000600737f90122bf0700f9e7e1f688fe926940e8839f3537fffffffffffffffffffffffffffffffffffffffffffffffffffffffffffffffff73ff970a61a04b1ca14834a43f5de4533ebddb5cc873ffffffffffffffffffffffffffffffffffffffff16620008ed60201b62002373179092919060201c565b6200067a731b02da8cb0d097eb8d57a175b88c7d8b479975067fffffffffffffffffffffffffffffffffffffffffffffffffffffffffffffffff73ff970a61a04b1ca14834a43f5de4533ebddb5cc873ffffffffffffffffffffffffffffffffffffffff16620008ed60201b62002373179092919060201c565b620006e0731b02da8cb0d097eb8d57a175b88c7d8b479975067fffffffffffffffffffffffffffffffffffffffffffffffffffffffffffffffff8773ffffffffffffffffffffffffffffffffffffffff16620008ed60201b62002373179092919060201c565b62000768600360019054906101000a900473ffffffffffffffffffffffffffffffffffffffff167fffffffffffffffffffffffffffffffffffffffffffffffffffffffffffffffff737f90122bf0700f9e7e1f688fe926940e8839f35373ffffffffffffffffffffffffffffffffffffffff16620008ed60201b62002373179092919060201c565b620007f0600660009054906101000a900473ffffffffffffffffffffffffffffffffffffffff167fffffffffffffffffffffffffffffffffffffffffffffffffffffffffffffffff737f90122bf0700f9e7e1f688fe926940e8839f35373ffffffffffffffffffffffffffffffffffffffff16620008ed60201b62002373179092919060201c565b505050505050620014b0565b6200080e828262000a4f60201b60201c565b620008e957600160008084815260200190815260200160002060000160008373ffffffffffffffffffffffffffffffffffffffff1673ffffffffffffffffffffffffffffffffffffffff16815260200190815260200160002060006101000a81548160ff0219169083151502179055506200088e62000ab960201b60201c565b73ffffffffffffffffffffffffffffffffffffffff168173ffffffffffffffffffffffffffffffffffffffff16837f2f8788117e7eff1d82e926ec794901d17c78024a50270940304540a733656f0d60405160405180910390a45b5050565b60008114806200097d575060008373ffffffffffffffffffffffffffffffffffffffff1663dd62ed3e30856040518363ffffffff1660e01b81526004016200093792919062001001565b602060405180830381865afa15801562000955573d6000803e3d6000fd5b505050506040513d601f19601f820116820180604052508101906200097b919062001069565b145b620009bf576040517f08c379a0000000000000000000000000000000000000000000000000000000008152600401620009b69062001122565b60405180910390fd5b62000a4a8363095ea7b360e01b8484604051602401620009e192919062001155565b604051602081830303815290604052907bffffffffffffffffffffffffffffffffffffffffffffffffffffffff19166020820180517bffffffffffffffffffffffffffffffffffffffffffffffffffffffff838183161783525050505062000ac160201b60201c565b505050565b600080600084815260200190815260200160002060000160008373ffffffffffffffffffffffffffffffffffffffff1673ffffffffffffffffffffffffffffffffffffffff16815260200190815260200160002060009054906101000a900460ff16905092915050565b600033905090565b600062000b2a826040518060400160405280602081526020017f5361666545524332303a206c6f772d6c6576656c2063616c6c206661696c65648152508573ffffffffffffffffffffffffffffffffffffffff1662000b9560201b620024c2179092919060201c565b905060008151111562000b90578080602001905181019062000b4d9190620011bf565b62000b8f576040517f08c379a000000000000000000000000000000000000000000000000000000000815260040162000b869062001267565b60405180910390fd5b5b505050565b606062000bac848460008562000bb560201b60201c565b90509392505050565b60608247101562000bfd576040517f08c379a000000000000000000000000000000000000000000000000000000000815260040162000bf490620012ff565b60405180910390fd5b62000c0e8562000ce360201b60201c565b62000c50576040517f08c379a000000000000000000000000000000000000000000000000000000000815260040162000c479062001371565b60405180910390fd5b6000808673ffffffffffffffffffffffffffffffffffffffff16858760405162000c7b919062001416565b60006040518083038185875af1925050503d806000811462000cba576040519150601f19603f3d011682016040523d82523d6000602084013e62000cbf565b606091505b509150915062000cd782828662000d0660201b60201c565b92505050949350505050565b6000808273ffffffffffffffffffffffffffffffffffffffff163b119050919050565b6060831562000d185782905062000d6b565b60008351111562000d2c5782518084602001fd5b816040517f08c379a000000000000000000000000000000000000000000000000000000000815260040162000d6291906200148c565b60405180910390fd5b9392505050565b82805482825590600052602060002090810192821562000dee579160200282015b8281111562000ded5782518260006101000a81548173ffffffffffffffffffffffffffffffffffffffff021916908373ffffffffffffffffffffffffffffffffffffffff1602179055509160200191906001019062000d93565b5b50905062000dfd919062000e90565b5090565b82805482825590600052602060002090810192821562000e7d579160200282015b8281111562000e7c5782518260006101000a81548173ffffffffffffffffffffffffffffffffffffffff021916908373ffffffffffffffffffffffffffffffffffffffff1602179055509160200191906001019062000e22565b5b50905062000e8c919062000e90565b5090565b5b8082111562000eab57600081600090555060010162000e91565b5090565b600080fd5b6000819050919050565b62000ec98162000eb4565b811462000ed557600080fd5b50565b60008151905062000ee98162000ebe565b92915050565b600073ffffffffffffffffffffffffffffffffffffffff82169050919050565b600062000f1c8262000eef565b9050919050565b62000f2e8162000f0f565b811462000f3a57600080fd5b50565b60008151905062000f4e8162000f23565b92915050565b60008060008060008060c0878903121562000f745762000f7362000eaf565b5b600062000f8489828a0162000ed8565b965050602062000f9789828a0162000f3d565b955050604062000faa89828a0162000f3d565b945050606062000fbd89828a0162000f3d565b935050608062000fd089828a0162000f3d565b92505060a062000fe389828a0162000f3d565b9150509295509295509295565b62000ffb8162000f0f565b82525050565b600060408201905062001018600083018562000ff0565b62001027602083018462000ff0565b9392505050565b6000819050919050565b62001043816200102e565b81146200104f57600080fd5b50565b600081519050620010638162001038565b92915050565b60006020828403121562001082576200108162000eaf565b5b6000620010928482850162001052565b91505092915050565b600082825260208201905092915050565b7f5361666545524332303a20617070726f76652066726f6d206e6f6e2d7a65726f60008201527f20746f206e6f6e2d7a65726f20616c6c6f77616e636500000000000000000000602082015250565b60006200110a6036836200109b565b91506200111782620010ac565b604082019050919050565b600060208201905081810360008301526200113d81620010fb565b9050919050565b6200114f816200102e565b82525050565b60006040820190506200116c600083018562000ff0565b6200117b602083018462001144565b9392505050565b60008115159050919050565b620011998162001182565b8114620011a557600080fd5b50565b600081519050620011b9816200118e565b92915050565b600060208284031215620011d857620011d762000eaf565b5b6000620011e884828501620011a8565b91505092915050565b7f5361666545524332303a204552433230206f7065726174696f6e20646964206e60008201527f6f74207375636365656400000000000000000000000000000000000000000000602082015250565b60006200124f602a836200109b565b91506200125c82620011f1565b604082019050919050565b60006020820190508181036000830152620012828162001240565b9050919050565b7f416464726573733a20696e73756666696369656e742062616c616e636520666f60008201527f722063616c6c0000000000000000000000000000000000000000000000000000602082015250565b6000620012e76026836200109b565b9150620012f48262001289565b604082019050919050565b600060208201905081810360008301526200131a81620012d8565b9050919050565b7f416464726573733a2063616c6c20746f206e6f6e2d636f6e7472616374000000600082015250565b600062001359601d836200109b565b9150620013668262001321565b602082019050919050565b600060208201905081810360008301526200138c816200134a565b9050919050565b600081519050919050565b600081905092915050565b60005b83811015620013c9578082015181840152602081019050620013ac565b83811115620013d9576000848401525b50505050565b6000620013ec8262001393565b620013f881856200139e565b93506200140a818560208601620013a9565b80840191505092915050565b6000620014248284620013df565b915081905092915050565b600081519050919050565b6000601f19601f8301169050919050565b600062001458826200142f565b6200146481856200109b565b935062001476818560208601620013a9565b62001481816200143a565b840191505092915050565b60006020820190508181036000830152620014a881846200144b565b905092915050565b60805160a05161474c6200150e60003960006108f80152600081816107ea01528181610b5001528181610f2c015281816112c6015281816115660152818161197e01528181611e7a015281816120da0152612704015261474c6000f3fe608060405234801561001057600080fd5b506004361061023c5760003560e01c806388feb7e01161013b578063c7fbe3a8116100b8578063f24286211161007c578063f2428621146106d9578063f30878c1146106f7578063f887ea4014610715578063fa0f7f3c14610733578063ff50abdc1461074f5761023c565b8063c7fbe3a814610649578063cc1f071a14610667578063d216fbad14610683578063d547741f1461069f578063ea0ab056146106bb5761023c565b8063a217fddf116100ff578063a217fddf146105a7578063b34e8378146105c5578063b6e2dc35146105e1578063bb6ad6ef146105fd578063c5ebeaec1461062d5761023c565b806388feb7e0146104ed5780638d928af81461051d57806391d148541461053b57806399c648591461056b5780639abbde03146105895761023c565b806336568abe116101c957806360e9791a1161018d57806360e9791a146104355780636817031b146104655780636dc0ae22146104815780637b1ae4361461049f578063862a179e146104cf5761023c565b806336568abe146103a55780633824c59c146103c157806338d52e0f146103f1578063402d88831461040f5780634106d274146104195761023c565b806315fa7e721161021057806315fa7e72146102ef578063225435c01461031f578063248a9ca31461032957806326882c57146103595780632f2ff15d146103895761023c565b80627c64b51461024157806301ffc9a71461027157806306fdde03146102a1578063150b7a02146102bf575b600080fd5b61025b60048036038101906102569190612f5a565b61076d565b6040516102689190612fd0565b60405180910390f35b61028b60048036038101906102869190613043565b61087c565b604051610298919061308b565b60405180910390f35b6102a96108f6565b6040516102b691906130bf565b60405180910390f35b6102d960048036038101906102d4919061313f565b61091a565b6040516102e691906131d6565b60405180910390f35b610309600480360381019061030491906131f1565b610948565b604051610316919061308b565b60405180910390f35b610327610a3d565b005b610343600480360381019061033e919061325d565b610c4f565b60405161035091906130bf565b60405180910390f35b610373600480360381019061036e91906133d9565b610c6e565b604051610380919061308b565b60405180910390f35b6103a3600480360381019061039e9190613435565b610d8a565b005b6103bf60048036038101906103ba9190613435565b610db3565b005b6103db60048036038101906103d69190613475565b610e36565b6040516103e8919061308b565b60405180910390f35b6103f9610f2a565b60405161040691906134fc565b60405180910390f35b610417610f4e565b005b610433600480360381019061042e9190613517565b610f8b565b005b61044f600480360381019061044a91906133d9565b611052565b60405161045c919061308b565b60405180910390f35b61047f600480360381019061047a9190613517565b61115c565b005b6104896113ac565b60405161049691906130bf565b60405180910390f35b6104b960048036038101906104b491906131f1565b6113d0565b6040516104c69190612fd0565b60405180910390f35b6104d76114c5565b6040516104e491906130bf565b60405180910390f35b61050760048036038101906105029190612f5a565b6114e9565b6040516105149190612fd0565b60405180910390f35b6105256115f8565b60405161053291906134fc565b60405180910390f35b61055560048036038101906105509190613435565b611668565b604051610562919061308b565b60405180910390f35b6105736116d2565b60405161058091906135a3565b60405180910390f35b6105916116f8565b60405161059e919061308b565b60405180910390f35b6105af61170b565b6040516105bc91906130bf565b60405180910390f35b6105df60048036038101906105da91906135fc565b611712565b005b6105fb60048036038101906105f69190613718565b61186c565b005b6106176004803603810190610612919061379b565b611c3b565b604051610624919061308b565b60405180910390f35b6106476004803603810190610642919061379b565b611d1f565b005b610651611f41565b60405161065e91906137e9565b60405180910390f35b610681600480360381019061067c9190613517565b611f67565b005b61069d6004803603810190610698919061379b565b611fc7565b005b6106b960048036038101906106b49190613435565b6120ad565b005b6106c36120d6565b6040516106d09190612fd0565b60405180910390f35b6106e1612177565b6040516106ee91906134fc565b60405180910390f35b6106ff61218f565b60405161070c91906135a3565b60405180910390f35b61071d6121b5565b60405161072a9190613825565b60405180910390f35b61074d6004803603810190610748919061379b565b6121db565b005b61075761236d565b6040516107649190612fd0565b60405180910390f35b60007f71a9859d7dd21b24504a6f306077ffc2d510b4d4b61128e931fe937441ad18366107a18161079c6124da565b6124e2565b737f90122bf0700f9e7e1f688fe926940e8839f35373ffffffffffffffffffffffffffffffffffffffff1673__$0d3b5db8417e399296c019a25a50ed2102$__6307a9d88890917f000000000000000000000000000000000000000000000000000000000000000089898989306040518863ffffffff1660e01b8152600401610830979695949392919061387f565b602060405180830381865af415801561084d573d6000803e3d6000fd5b505050506040513d601f19601f820116820180604052508101906108719190613903565b915050949350505050565b60007f7965db0b000000000000000000000000000000000000000000000000000000007bffffffffffffffffffffffffffffffffffffffffffffffffffffffff1916827bffffffffffffffffffffffffffffffffffffffffffffffffffffffff191614806108ef57506108ee8261257f565b5b9050919050565b7f000000000000000000000000000000000000000000000000000000000000000081565b60007f150b7a023d4804d13e8c85fb27262cb750cf6ba9f9dd3bb30d90f482ceeb4b1f905095945050505050565b60007f71a9859d7dd21b24504a6f306077ffc2d510b4d4b61128e931fe937441ad183661097c816109776124da565b6124e2565b600360019054906101000a900473ffffffffffffffffffffffffffffffffffffffff1673ffffffffffffffffffffffffffffffffffffffff1673__$6e88b035a5d9f7e9a50b584dee2ad9e3f8$__6345e5edf990918686306040518563ffffffff1660e01b81526004016109f3949392919061393f565b602060405180830381865af4158015610a10573d6000803e3d6000fd5b505050506040513d601f19601f82011682018060405250810190610a349190613999565b91505092915050565b7f1a6838efa4183e08fe3607359d1259272af9d4716f65e1a7b5921f78fd5a3c6a610a6f81610a6a6124da565b6124e2565b600360009054906101000a900460ff16610ab5576040517f23eecdf600000000000000000000000000000000000000000000000000000000815260040160405180910390fd5b610abd6125e9565b6000610ac76120d6565b1115610aff576040517f93224eac00000000000000000000000000000000000000000000000000000000815260040160405180910390fd5b6000600160009054906101000a900473ffffffffffffffffffffffffffffffffffffffff169050610b94600160009054906101000a900473ffffffffffffffffffffffffffffffffffffffff1660007f000000000000000000000000000000000000000000000000000000000000000073ffffffffffffffffffffffffffffffffffffffff166123739092919063ffffffff16565b6000600160006101000a81548173ffffffffffffffffffffffffffffffffffffffff021916908373ffffffffffffffffffffffffffffffffffffffff1602179055506000600360006101000a81548160ff0219169083151502179055508073ffffffffffffffffffffffffffffffffffffffff163373ffffffffffffffffffffffffffffffffffffffff167f99f736dac5b359a472c9b2edd93e35b98547bf61d1ee8395824e748c7731cc7860405160405180910390a35050565b6000806000838152602001908152602001600020600101549050919050565b60007f71a9859d7dd21b24504a6f306077ffc2d510b4d4b61128e931fe937441ad1836610ca281610c9d6124da565b6124e2565b600360019054906101000a900473ffffffffffffffffffffffffffffffffffffffff1673ffffffffffffffffffffffffffffffffffffffff1673__$6e88b035a5d9f7e9a50b584dee2ad9e3f8$__636f5bf2809091600560009054906101000a900473ffffffffffffffffffffffffffffffffffffffff163088886040518663ffffffff1660e01b8152600401610d3d959493929190613a93565b602060405180830381865af4158015610d5a573d6000803e3d6000fd5b505050506040513d601f19601f82011682018060405250810190610d7e9190613999565b50600191505092915050565b610d9382610c4f565b610da481610d9f6124da565b6124e2565b610dae83836127ca565b505050565b610dbb6124da565b73ffffffffffffffffffffffffffffffffffffffff168173ffffffffffffffffffffffffffffffffffffffff1614610e28576040517f08c379a0000000000000000000000000000000000000000000000000000000008152600401610e1f90613b70565b60405180910390fd5b610e3282826128aa565b5050565b60007f71a9859d7dd21b24504a6f306077ffc2d510b4d4b61128e931fe937441ad1836610e6a81610e656124da565b6124e2565b600660009054906101000a900473ffffffffffffffffffffffffffffffffffffffff1673ffffffffffffffffffffffffffffffffffffffff1663b942f9a1858530600360019054906101000a900473ffffffffffffffffffffffffffffffffffffffff166040518563ffffffff1660e01b8152600401610eed9493929190613c26565b600060405180830381600087803b158015610f0757600080fd5b505af1158015610f1b573d6000803e3d6000fd5b50505050600191505092915050565b7f000000000000000000000000000000000000000000000000000000000000000081565b7f71a9859d7dd21b24504a6f306077ffc2d510b4d4b61128e931fe937441ad1836610f8081610f7b6124da565b6124e2565b610f886125e9565b50565b7f1a6838efa4183e08fe3607359d1259272af9d4716f65e1a7b5921f78fd5a3c6a610fbd81610fb86124da565b6124e2565b600073ffffffffffffffffffffffffffffffffffffffff168273ffffffffffffffffffffffffffffffffffffffff161415611024576040517f9cfbf00600000000000000000000000000000000000000000000000000000000815260040160405180910390fd5b61104e7f71a9859d7dd21b24504a6f306077ffc2d510b4d4b61128e931fe937441ad1836836127ca565b5050565b60007f71a9859d7dd21b24504a6f306077ffc2d510b4d4b61128e931fe937441ad1836611086816110816124da565b6124e2565b600360019054906101000a900473ffffffffffffffffffffffffffffffffffffffff1673ffffffffffffffffffffffffffffffffffffffff1673__$6e88b035a5d9f7e9a50b584dee2ad9e3f8$__6358bd17679091600560009054906101000a900473ffffffffffffffffffffffffffffffffffffffff168787306040518663ffffffff1660e01b8152600401611121959493929190613c79565b60006040518083038186803b15801561113957600080fd5b505af415801561114d573d6000803e3d6000fd5b50505050600191505092915050565b7f1a6838efa4183e08fe3607359d1259272af9d4716f65e1a7b5921f78fd5a3c6a61118e816111896124da565b6124e2565b600360009054906101000a900460ff16156111d5576040517fe1b7a65400000000000000000000000000000000000000000000000000000000815260040160405180910390fd5b600073ffffffffffffffffffffffffffffffffffffffff168273ffffffffffffffffffffffffffffffffffffffff16141561123c576040517f9cfbf00600000000000000000000000000000000000000000000000000000000815260040160405180910390fd5b81600160006101000a81548173ffffffffffffffffffffffffffffffffffffffff021916908373ffffffffffffffffffffffffffffffffffffffff16021790555061130a600160009054906101000a900473ffffffffffffffffffffffffffffffffffffffff167fffffffffffffffffffffffffffffffffffffffffffffffffffffffffffffffff7f000000000000000000000000000000000000000000000000000000000000000073ffffffffffffffffffffffffffffffffffffffff166123739092919063ffffffff16565b6001600360006101000a81548160ff021916908315150217905550600160009054906101000a900473ffffffffffffffffffffffffffffffffffffffff1673ffffffffffffffffffffffffffffffffffffffff166113666124da565b73ffffffffffffffffffffffffffffffffffffffff167f8800deb8c31293b539eaf5391fcc88280dc58f015c043d65dd5b72a0979a1dd160405160405180910390a35050565b7f1a6838efa4183e08fe3607359d1259272af9d4716f65e1a7b5921f78fd5a3c6a81565b60007f71a9859d7dd21b24504a6f306077ffc2d510b4d4b61128e931fe937441ad1836611404816113ff6124da565b6124e2565b600360019054906101000a900473ffffffffffffffffffffffffffffffffffffffff1673ffffffffffffffffffffffffffffffffffffffff1673__$6e88b035a5d9f7e9a50b584dee2ad9e3f8$__6384d53f0590918686306040518563ffffffff1660e01b815260040161147b949392919061393f565b602060405180830381865af4158015611498573d6000803e3d6000fd5b505050506040513d601f19601f820116820180604052508101906114bc9190613903565b91505092915050565b7f71a9859d7dd21b24504a6f306077ffc2d510b4d4b61128e931fe937441ad183681565b60007f71a9859d7dd21b24504a6f306077ffc2d510b4d4b61128e931fe937441ad183661151d816115186124da565b6124e2565b737f90122bf0700f9e7e1f688fe926940e8839f35373ffffffffffffffffffffffffffffffffffffffff1673__$0d3b5db8417e399296c019a25a50ed2102$__633534ada290917f000000000000000000000000000000000000000000000000000000000000000089898989306040518863ffffffff1660e01b81526004016115ac979695949392919061387f565b602060405180830381865af41580156115c9573d6000803e3d6000fd5b505050506040513d601f19601f820116820180604052508101906115ed9190613903565b915050949350505050565b6000600360009054906101000a900460ff16611640576040517f23eecdf600000000000000000000000000000000000000000000000000000000815260040160405180910390fd5b600160009054906101000a900473ffffffffffffffffffffffffffffffffffffffff16905090565b600080600084815260200190815260200160002060000160008373ffffffffffffffffffffffffffffffffffffffff1673ffffffffffffffffffffffffffffffffffffffff16815260200190815260200160002060009054906101000a900460ff16905092915050565b600460009054906101000a900473ffffffffffffffffffffffffffffffffffffffff1681565b600360009054906101000a900460ff1681565b6000801b81565b7f1a6838efa4183e08fe3607359d1259272af9d4716f65e1a7b5921f78fd5a3c6a6117448161173f6124da565b6124e2565b6117a6600360019054906101000a900473ffffffffffffffffffffffffffffffffffffffff166000737f90122bf0700f9e7e1f688fe926940e8839f35373ffffffffffffffffffffffffffffffffffffffff166123739092919063ffffffff16565b81600360016101000a81548173ffffffffffffffffffffffffffffffffffffffff021916908373ffffffffffffffffffffffffffffffffffffffff160217905550611868600360019054906101000a900473ffffffffffffffffffffffffffffffffffffffff167fffffffffffffffffffffffffffffffffffffffffffffffffffffffffffffffff737f90122bf0700f9e7e1f688fe926940e8839f35373ffffffffffffffffffffffffffffffffffffffff166123739092919063ffffffff16565b5050565b7f1a6838efa4183e08fe3607359d1259272af9d4716f65e1a7b5921f78fd5a3c6a61189e816118996124da565b6124e2565b60005b84518110156119ee5760008582815181106118bf576118be613cd3565b5b6020026020010151905060008173ffffffffffffffffffffffffffffffffffffffff166370a08231306040518263ffffffff1660e01b815260040161190491906134fc565b602060405180830381865afa158015611921573d6000803e3d6000fd5b505050506040513d601f19601f820116820180604052508101906119459190613903565b9050600081111561197c5761197b88828473ffffffffffffffffffffffffffffffffffffffff1661298b9092919063ffffffff16565b5b7f000000000000000000000000000000000000000000000000000000000000000073ffffffffffffffffffffffffffffffffffffffff168273ffffffffffffffffffffffffffffffffffffffff1614156119d95760006002819055505b505080806119e690613d31565b9150506118a1565b506000479050600081118015611a015750835b15611a4e578573ffffffffffffffffffffffffffffffffffffffff166108fc829081150290604051600060405180830381858888f19350505050158015611a4c573d6000803e3d6000fd5b505b8215611bf0576000600560009054906101000a900473ffffffffffffffffffffffffffffffffffffffff1673ffffffffffffffffffffffffffffffffffffffff1663770b478a30600360019054906101000a900473ffffffffffffffffffffffffffffffffffffffff166040518363ffffffff1660e01b8152600401611ad5929190613d7a565b600060405180830381865afa158015611af2573d6000803e3d6000fd5b505050506040513d6000823e3d601f19601f82011682018060405250810190611b1b9190613e3a565b905060005b8151811015611bed576000828281518110611b3e57611b3d613cd3565b5b60200260200101519050600360019054906101000a900473ffffffffffffffffffffffffffffffffffffffff1673ffffffffffffffffffffffffffffffffffffffff166342842e0e308b846040518463ffffffff1660e01b8152600401611ba793929190613e83565b600060405180830381600087803b158015611bc157600080fd5b505af1158015611bd5573d6000803e3d6000fd5b50505050508080611be590613d31565b915050611b20565b50505b8573ffffffffffffffffffffffffffffffffffffffff167f0e3e9a671666295c299b941a07625839915442794bf73a484b24bb3e221270c360405160405180910390a2505050505050565b60007f71a9859d7dd21b24504a6f306077ffc2d510b4d4b61128e931fe937441ad1836611c6f81611c6a6124da565b6124e2565b600360019054906101000a900473ffffffffffffffffffffffffffffffffffffffff1673ffffffffffffffffffffffffffffffffffffffff1662f714ce84306040518363ffffffff1660e01b8152600401611ccb929190613eba565b6000604051808303816000875af1158015611cea573d6000803e3d6000fd5b505050506040513d6000823e3d601f19601f82011682018060405250810190611d139190613ee3565b50506001915050919050565b7f71a9859d7dd21b24504a6f306077ffc2d510b4d4b61128e931fe937441ad1836611d5181611d4c6124da565b6124e2565b600360009054906101000a900460ff16611d97576040517f23eecdf600000000000000000000000000000000000000000000000000000000815260040160405180910390fd5b6000821415611dd2576040517fcd6bbd7100000000000000000000000000000000000000000000000000000000815260040160405180910390fd5b600160009054906101000a900473ffffffffffffffffffffffffffffffffffffffff1673ffffffffffffffffffffffffffffffffffffffff16634d0392a8836040518263ffffffff1660e01b8152600401611e2d9190612fd0565b600060405180830381600087803b158015611e4757600080fd5b505af1158015611e5b573d6000803e3d6000fd5b505050508160026000828254611e719190613f3f565b925050819055507f000000000000000000000000000000000000000000000000000000000000000073ffffffffffffffffffffffffffffffffffffffff16600160009054906101000a900473ffffffffffffffffffffffffffffffffffffffff1673ffffffffffffffffffffffffffffffffffffffff16611ef06124da565b73ffffffffffffffffffffffffffffffffffffffff167face89dcec09c69462cb37ba9dbe6990b9cb4cc4b7474f1cc0574f0ac8649708685604051611f359190612fd0565b60405180910390a45050565b600360019054906101000a900473ffffffffffffffffffffffffffffffffffffffff1681565b7f1a6838efa4183e08fe3607359d1259272af9d4716f65e1a7b5921f78fd5a3c6a611f9981611f946124da565b6124e2565b611fc37f71a9859d7dd21b24504a6f306077ffc2d510b4d4b61128e931fe937441ad1836836128aa565b5050565b7f71a9859d7dd21b24504a6f306077ffc2d510b4d4b61128e931fe937441ad1836611ff981611ff46124da565b6124e2565b731b02da8cb0d097eb8d57a175b88c7d8b4799750673ffffffffffffffffffffffffffffffffffffffff1673__$550d7af180db018b614b111952148b246d$__63dabd549c90916007853073ff970a61a04b1ca14834a43f5de4533ebddb5cc86040518663ffffffff1660e01b81526004016120799594939291906140da565b60006040518083038186803b15801561209157600080fd5b505af41580156120a5573d6000803e3d6000fd5b505050505050565b6120b682610c4f565b6120c7816120c26124da565b6124e2565b6120d183836128aa565b505050565b60007f000000000000000000000000000000000000000000000000000000000000000073ffffffffffffffffffffffffffffffffffffffff166370a08231306040518263ffffffff1660e01b815260040161213191906134fc565b602060405180830381865afa15801561214e573d6000803e3d6000fd5b505050506040513d601f19601f820116820180604052508101906121729190613903565b905090565b7382af49447d8a07e3bd95bd0d56f35241523fbab181565b600560009054906101000a900473ffffffffffffffffffffffffffffffffffffffff1681565b600660009054906101000a900473ffffffffffffffffffffffffffffffffffffffff1681565b7f71a9859d7dd21b24504a6f306077ffc2d510b4d4b61128e931fe937441ad183661220d816122086124da565b6124e2565b6000737f90122bf0700f9e7e1f688fe926940e8839f35373ffffffffffffffffffffffffffffffffffffffff166370a08231306040518263ffffffff1660e01b815260040161225c91906134fc565b602060405180830381865afa158015612279573d6000803e3d6000fd5b505050506040513d601f19601f8201168201806040525081019061229d9190613903565b9050600081111561236857737f90122bf0700f9e7e1f688fe926940e8839f35373ffffffffffffffffffffffffffffffffffffffff1673__$0d3b5db8417e399296c019a25a50ed2102$__63724cd502909173ff970a61a04b1ca14834a43f5de4533ebddb5cc884876040518563ffffffff1660e01b81526004016123259493929190614134565b602060405180830381865af4158015612342573d6000803e3d6000fd5b505050506040513d601f19601f820116820180604052508101906123669190613903565b505b505050565b60025481565b60008114806123fd575060008373ffffffffffffffffffffffffffffffffffffffff1663dd62ed3e30856040518363ffffffff1660e01b81526004016123ba929190614179565b602060405180830381865afa1580156123d7573d6000803e3d6000fd5b505050506040513d601f19601f820116820180604052508101906123fb9190613903565b145b61243c576040517f08c379a000000000000000000000000000000000000000000000000000000000815260040161243390614214565b60405180910390fd5b6124bd8363095ea7b360e01b848460405160240161245b929190614234565b604051602081830303815290604052907bffffffffffffffffffffffffffffffffffffffffffffffffffffffff19166020820180517bffffffffffffffffffffffffffffffffffffffffffffffffffffffff8381831617835250505050612a11565b505050565b60606124d18484600085612ad8565b90509392505050565b600033905090565b6124ec8282611668565b61257b576125118173ffffffffffffffffffffffffffffffffffffffff166014612bec565b61251f8360001c6020612bec565b60405160200161253092919061436f565b6040516020818303038152906040526040517f08c379a000000000000000000000000000000000000000000000000000000000815260040161257291906143e2565b60405180910390fd5b5050565b60007f01ffc9a7000000000000000000000000000000000000000000000000000000007bffffffffffffffffffffffffffffffffffffffffffffffffffffffff1916827bffffffffffffffffffffffffffffffffffffffffffffffffffffffff1916149050919050565b600360009054906101000a900460ff1661262f576040517f23eecdf600000000000000000000000000000000000000000000000000000000815260040160405180910390fd5b60006126396120d6565b905060008111156126d257600160009054906101000a900473ffffffffffffffffffffffffffffffffffffffff1673ffffffffffffffffffffffffffffffffffffffff1663e8ddb9a6826040518263ffffffff1660e01b815260040161269f9190612fd0565b600060405180830381600087803b1580156126b957600080fd5b505af11580156126cd573d6000803e3d6000fd5b505050505b80600254106126f95780600260008282546126ed9190614404565b92505081905550612702565b60006002819055505b7f000000000000000000000000000000000000000000000000000000000000000073ffffffffffffffffffffffffffffffffffffffff16600160009054906101000a900473ffffffffffffffffffffffffffffffffffffffff1673ffffffffffffffffffffffffffffffffffffffff1661277a6124da565b73ffffffffffffffffffffffffffffffffffffffff167f7fbb649ddb1a6bb483960fc034d326a89c2c22de1d59cf00a85e70cbe98619c9846040516127bf9190612fd0565b60405180910390a450565b6127d48282611668565b6128a657600160008084815260200190815260200160002060000160008373ffffffffffffffffffffffffffffffffffffffff1673ffffffffffffffffffffffffffffffffffffffff16815260200190815260200160002060006101000a81548160ff02191690831515021790555061284b6124da565b73ffffffffffffffffffffffffffffffffffffffff168173ffffffffffffffffffffffffffffffffffffffff16837f2f8788117e7eff1d82e926ec794901d17c78024a50270940304540a733656f0d60405160405180910390a45b5050565b6128b48282611668565b1561298757600080600084815260200190815260200160002060000160008373ffffffffffffffffffffffffffffffffffffffff1673ffffffffffffffffffffffffffffffffffffffff16815260200190815260200160002060006101000a81548160ff02191690831515021790555061292c6124da565b73ffffffffffffffffffffffffffffffffffffffff168173ffffffffffffffffffffffffffffffffffffffff16837ff6391f5c32d9c69d2a47ea670b442974b53935d1edc7fd64eb21e047a839171b60405160405180910390a45b5050565b612a0c8363a9059cbb60e01b84846040516024016129aa929190614234565b604051602081830303815290604052907bffffffffffffffffffffffffffffffffffffffffffffffffffffffff19166020820180517bffffffffffffffffffffffffffffffffffffffffffffffffffffffff8381831617835250505050612a11565b505050565b6000612a73826040518060400160405280602081526020017f5361666545524332303a206c6f772d6c6576656c2063616c6c206661696c65648152508573ffffffffffffffffffffffffffffffffffffffff166124c29092919063ffffffff16565b9050600081511115612ad35780806020019051810190612a939190613999565b612ad2576040517f08c379a0000000000000000000000000000000000000000000000000000000008152600401612ac9906144aa565b60405180910390fd5b5b505050565b606082471015612b1d576040517f08c379a0000000000000000000000000000000000000000000000000000000008152600401612b149061453c565b60405180910390fd5b612b2685612e28565b612b65576040517f08c379a0000000000000000000000000000000000000000000000000000000008152600401612b5c906145a8565b60405180910390fd5b6000808673ffffffffffffffffffffffffffffffffffffffff168587604051612b8e919061460f565b60006040518083038185875af1925050503d8060008114612bcb576040519150601f19603f3d011682016040523d82523d6000602084013e612bd0565b606091505b5091509150612be0828286612e4b565b92505050949350505050565b606060006002836002612bff9190614626565b612c099190613f3f565b67ffffffffffffffff811115612c2257612c2161329b565b5b6040519080825280601f01601f191660200182016040528015612c545781602001600182028036833780820191505090505b5090507f300000000000000000000000000000000000000000000000000000000000000081600081518110612c8c57612c8b613cd3565b5b60200101907effffffffffffffffffffffffffffffffffffffffffffffffffffffffffffff1916908160001a9053507f780000000000000000000000000000000000000000000000000000000000000081600181518110612cf057612cef613cd3565b5b60200101907effffffffffffffffffffffffffffffffffffffffffffffffffffffffffffff1916908160001a90535060006001846002612d309190614626565b612d3a9190613f3f565b90505b6001811115612dda577f3031323334353637383961626364656600000000000000000000000000000000600f861660108110612d7c57612d7b613cd3565b5b1a60f81b828281518110612d9357612d92613cd3565b5b60200101907effffffffffffffffffffffffffffffffffffffffffffffffffffffffffffff1916908160001a905350600485901c945080612dd390614680565b9050612d3d565b5060008414612e1e576040517f08c379a0000000000000000000000000000000000000000000000000000000008152600401612e15906146f6565b60405180910390fd5b8091505092915050565b6000808273ffffffffffffffffffffffffffffffffffffffff163b119050919050565b60608315612e5b57829050612eab565b600083511115612e6e5782518084602001fd5b816040517f08c379a0000000000000000000000000000000000000000000000000000000008152600401612ea291906143e2565b60405180910390fd5b9392505050565b6000604051905090565b600080fd5b600080fd5b6000819050919050565b612ed981612ec6565b8114612ee457600080fd5b50565b600081359050612ef681612ed0565b92915050565b600073ffffffffffffffffffffffffffffffffffffffff82169050919050565b6000612f2782612efc565b9050919050565b612f3781612f1c565b8114612f4257600080fd5b50565b600081359050612f5481612f2e565b92915050565b60008060008060808587031215612f7457612f73612ebc565b5b6000612f8287828801612ee7565b9450506020612f9387828801612f45565b9350506040612fa487828801612ee7565b9250506060612fb587828801612ee7565b91505092959194509250565b612fca81612ec6565b82525050565b6000602082019050612fe56000830184612fc1565b92915050565b60007fffffffff0000000000000000000000000000000000000000000000000000000082169050919050565b61302081612feb565b811461302b57600080fd5b50565b60008135905061303d81613017565b92915050565b60006020828403121561305957613058612ebc565b5b60006130678482850161302e565b91505092915050565b60008115159050919050565b61308581613070565b82525050565b60006020820190506130a0600083018461307c565b92915050565b6000819050919050565b6130b9816130a6565b82525050565b60006020820190506130d460008301846130b0565b92915050565b600080fd5b600080fd5b600080fd5b60008083601f8401126130ff576130fe6130da565b5b8235905067ffffffffffffffff81111561311c5761311b6130df565b5b602083019150836001820283011115613138576131376130e4565b5b9250929050565b60008060008060006080868803121561315b5761315a612ebc565b5b600061316988828901612f45565b955050602061317a88828901612f45565b945050604061318b88828901612ee7565b935050606086013567ffffffffffffffff8111156131ac576131ab612ec1565b5b6131b8888289016130e9565b92509250509295509295909350565b6131d081612feb565b82525050565b60006020820190506131eb60008301846131c7565b92915050565b6000806040838503121561320857613207612ebc565b5b600061321685828601612ee7565b925050602061322785828601612ee7565b9150509250929050565b61323a816130a6565b811461324557600080fd5b50565b60008135905061325781613231565b92915050565b60006020828403121561327357613272612ebc565b5b600061328184828501613248565b91505092915050565b6000601f19601f8301169050919050565b7f4e487b7100000000000000000000000000000000000000000000000000000000600052604160045260246000fd5b6132d38261328a565b810181811067ffffffffffffffff821117156132f2576132f161329b565b5b80604052505050565b6000613305612eb2565b905061331182826132ca565b919050565b600067ffffffffffffffff8211156133315761333061329b565b5b602082029050602081019050919050565b600061335561335084613316565b6132fb565b90508083825260208201905060208402830185811115613378576133776130e4565b5b835b818110156133a1578061338d8882612ee7565b84526020840193505060208101905061337a565b5050509392505050565b600082601f8301126133c0576133bf6130da565b5b81356133d0848260208601613342565b91505092915050565b600080604083850312156133f0576133ef612ebc565b5b60006133fe85828601612ee7565b925050602083013567ffffffffffffffff81111561341f5761341e612ec1565b5b61342b858286016133ab565b9150509250929050565b6000806040838503121561344c5761344b612ebc565b5b600061345a85828601613248565b925050602061346b85828601612f45565b9150509250929050565b6000806040838503121561348c5761348b612ebc565b5b600083013567ffffffffffffffff8111156134aa576134a9612ec1565b5b6134b6858286016133ab565b925050602083013567ffffffffffffffff8111156134d7576134d6612ec1565b5b6134e3858286016133ab565b9150509250929050565b6134f681612f1c565b82525050565b600060208201905061351160008301846134ed565b92915050565b60006020828403121561352d5761352c612ebc565b5b600061353b84828501612f45565b91505092915050565b6000819050919050565b600061356961356461355f84612efc565b613544565b612efc565b9050919050565b600061357b8261354e565b9050919050565b600061358d82613570565b9050919050565b61359d81613582565b82525050565b60006020820190506135b86000830184613594565b92915050565b60006135c982612f1c565b9050919050565b6135d9816135be565b81146135e457600080fd5b50565b6000813590506135f6816135d0565b92915050565b60006020828403121561361257613611612ebc565b5b6000613620848285016135e7565b91505092915050565b600067ffffffffffffffff8211156136445761364361329b565b5b602082029050602081019050919050565b600061366861366384613629565b6132fb565b9050808382526020820190506020840283018581111561368b5761368a6130e4565b5b835b818110156136b457806136a08882612f45565b84526020840193505060208101905061368d565b5050509392505050565b600082601f8301126136d3576136d26130da565b5b81356136e3848260208601613655565b91505092915050565b6136f581613070565b811461370057600080fd5b50565b600081359050613712816136ec565b92915050565b6000806000806080858703121561373257613731612ebc565b5b600061374087828801612f45565b945050602085013567ffffffffffffffff81111561376157613760612ec1565b5b61376d878288016136be565b935050604061377e87828801613703565b925050606061378f87828801613703565b91505092959194509250565b6000602082840312156137b1576137b0612ebc565b5b60006137bf84828501612ee7565b91505092915050565b60006137d382613570565b9050919050565b6137e3816137c8565b82525050565b60006020820190506137fe60008301846137da565b92915050565b600061380f82613570565b9050919050565b61381f81613804565b82525050565b600060208201905061383a6000830184613816565b92915050565b600061384b82613570565b9050919050565b61385b81613840565b82525050565b61386a81612f1c565b82525050565b61387981612ec6565b82525050565b600060e082019050613894600083018a613852565b6138a16020830189613861565b6138ae6040830188613870565b6138bb6060830187613861565b6138c86080830186613870565b6138d560a0830185613870565b6138e260c0830184613861565b98975050505050505050565b6000815190506138fd81612ed0565b92915050565b60006020828403121561391957613918612ebc565b5b6000613927848285016138ee565b91505092915050565b613939816137c8565b82525050565b60006080820190506139546000830187613930565b6139616020830186613870565b61396e6040830185613870565b61397b6060830184613861565b95945050505050565b600081519050613993816136ec565b92915050565b6000602082840312156139af576139ae612ebc565b5b60006139bd84828501613984565b91505092915050565b6139cf81613582565b82525050565b600081519050919050565b600082825260208201905092915050565b6000819050602082019050919050565b613a0a81612ec6565b82525050565b6000613a1c8383613a01565b60208301905092915050565b6000602082019050919050565b6000613a40826139d5565b613a4a81856139e0565b9350613a55836139f1565b8060005b83811015613a86578151613a6d8882613a10565b9750613a7883613a28565b925050600181019050613a59565b5085935050505092915050565b600060a082019050613aa86000830188613930565b613ab560208301876139c6565b613ac26040830186613861565b613acf6060830185613870565b8181036080830152613ae18184613a35565b90509695505050505050565b600082825260208201905092915050565b7f416363657373436f6e74726f6c3a2063616e206f6e6c792072656e6f756e636560008201527f20726f6c657320666f722073656c660000000000000000000000000000000000602082015250565b6000613b5a602f83613aed565b9150613b6582613afe565b604082019050919050565b60006020820190508181036000830152613b8981613b4d565b9050919050565b600082825260208201905092915050565b613baa81612ec6565b82525050565b6000613bbc8383613ba1565b60208301905092915050565b6000613bd3826139d5565b613bdd8185613b90565b9350613be8836139f1565b8060005b83811015613c19578151613c008882613bb0565b9750613c0b83613a28565b925050600181019050613bec565b5085935050505092915050565b60006080820190508181036000830152613c408187613bc8565b90508181036020830152613c548186613bc8565b9050613c6360408301856134ed565b613c7060608301846137da565b95945050505050565b600060a082019050613c8e6000830188613930565b613c9b60208301876139c6565b613ca86040830186613870565b8181036060830152613cba8185613a35565b9050613cc96080830184613861565b9695505050505050565b7f4e487b7100000000000000000000000000000000000000000000000000000000600052603260045260246000fd5b7f4e487b7100000000000000000000000000000000000000000000000000000000600052601160045260246000fd5b6000613d3c82612ec6565b91507fffffffffffffffffffffffffffffffffffffffffffffffffffffffffffffffff821415613d6f57613d6e613d02565b5b600182019050919050565b6000604082019050613d8f60008301856134ed565b613d9c60208301846137da565b9392505050565b6000613db6613db184613316565b6132fb565b90508083825260208201905060208402830185811115613dd957613dd86130e4565b5b835b81811015613e025780613dee88826138ee565b845260208401935050602081019050613ddb565b5050509392505050565b600082601f830112613e2157613e206130da565b5b8151613e31848260208601613da3565b91505092915050565b600060208284031215613e5057613e4f612ebc565b5b600082015167ffffffffffffffff811115613e6e57613e6d612ec1565b5b613e7a84828501613e0c565b91505092915050565b6000606082019050613e9860008301866134ed565b613ea560208301856134ed565b613eb26040830184612fc1565b949350505050565b6000604082019050613ecf6000830185612fc1565b613edc60208301846134ed565b9392505050565b60008060408385031215613efa57613ef9612ebc565b5b6000613f08858286016138ee565b925050602083015167ffffffffffffffff811115613f2957613f28612ec1565b5b613f3585828601613e0c565b9150509250929050565b6000613f4a82612ec6565b9150613f5583612ec6565b9250827fffffffffffffffffffffffffffffffffffffffffffffffffffffffffffffffff03821115613f8a57613f89613d02565b5b828201905092915050565b6000613fa082613570565b9050919050565b613fb081613f95565b82525050565b600081549050919050565b600082825260208201905092915050565b60008190508160005260206000209050919050565b613ff081612f1c565b82525050565b60006140028383613fe7565b60208301905092915050565b60008160001c9050919050565b600073ffffffffffffffffffffffffffffffffffffffff82169050919050565b600061404e6140498361400e565b61401b565b9050919050565b6000614061825461403b565b9050919050565b6000600182019050919050565b600061408082613fb6565b61408a8185613fc1565b935061409583613fd2565b8060005b838110156140cd576140aa82614055565b6140b48882613ff6565b97506140bf83614068565b925050600181019050614099565b5085935050505092915050565b600060a0820190506140ef6000830188613fa7565b81810360208301526141018187614075565b90506141106040830186613870565b61411d6060830185613861565b61412a6080830184613861565b9695505050505050565b60006080820190506141496000830187613852565b6141566020830186613861565b6141636040830185613870565b6141706060830184613870565b95945050505050565b600060408201905061418e60008301856134ed565b61419b60208301846134ed565b9392505050565b7f5361666545524332303a20617070726f76652066726f6d206e6f6e2d7a65726f60008201527f20746f206e6f6e2d7a65726f20616c6c6f77616e636500000000000000000000602082015250565b60006141fe603683613aed565b9150614209826141a2565b604082019050919050565b6000602082019050818103600083015261422d816141f1565b9050919050565b600060408201905061424960008301856134ed565b6142566020830184612fc1565b9392505050565b600081905092915050565b7f416363657373436f6e74726f6c3a206163636f756e7420000000000000000000600082015250565b600061429e60178361425d565b91506142a982614268565b601782019050919050565b600081519050919050565b60005b838110156142dd5780820151818401526020810190506142c2565b838111156142ec576000848401525b50505050565b60006142fd826142b4565b614307818561425d565b93506143178185602086016142bf565b80840191505092915050565b7f206973206d697373696e6720726f6c6520000000000000000000000000000000600082015250565b600061435960118361425d565b915061436482614323565b601182019050919050565b600061437a82614291565b915061438682856142f2565b91506143918261434c565b915061439d82846142f2565b91508190509392505050565b60006143b4826142b4565b6143be8185613aed565b93506143ce8185602086016142bf565b6143d78161328a565b840191505092915050565b600060208201905081810360008301526143fc81846143a9565b905092915050565b600061440f82612ec6565b915061441a83612ec6565b92508282101561442d5761442c613d02565b5b828203905092915050565b7f5361666545524332303a204552433230206f7065726174696f6e20646964206e60008201527f6f74207375636365656400000000000000000000000000000000000000000000602082015250565b6000614494602a83613aed565b915061449f82614438565b604082019050919050565b600060208201905081810360008301526144c381614487565b9050919050565b7f416464726573733a20696e73756666696369656e742062616c616e636520666f60008201527f722063616c6c0000000000000000000000000000000000000000000000000000602082015250565b6000614526602683613aed565b9150614531826144ca565b604082019050919050565b6000602082019050818103600083015261455581614519565b9050919050565b7f416464726573733a2063616c6c20746f206e6f6e2d636f6e7472616374000000600082015250565b6000614592601d83613aed565b915061459d8261455c565b602082019050919050565b600060208201905081810360008301526145c181614585565b9050919050565b600081519050919050565b600081905092915050565b60006145e9826145c8565b6145f381856145d3565b93506146038185602086016142bf565b80840191505092915050565b600061461b82846145de565b915081905092915050565b600061463182612ec6565b915061463c83612ec6565b9250817fffffffffffffffffffffffffffffffffffffffffffffffffffffffffffffffff048311821515161561467557614674613d02565b5b828202905092915050565b600061468b82612ec6565b9150600082141561469f5761469e613d02565b5b600182039050919050565b7f537472696e67733a20686578206c656e67746820696e73756666696369656e74600082015250565b60006146e0602083613aed565b91506146eb826146aa565b602082019050919050565b6000602082019050818103600083015261470f816146d3565b905091905056fea2646970667358221220c39d2e08524f47d267615cce0e5910f0a61efb7ba22effcac030bfd33c36a75564736f6c634300080a0033",
  "linkReferences": {
    "contracts/VaultsV2/library/Curve2PoolWrapper.sol": {
      "Curve2PoolWrapper": [
        {
          "length": 20,
          "start": 7388
        },
        {
          "length": 20,
          "start": 10840
        },
        {
          "length": 20,
          "start": 14307
        }
      ]
    },
    "contracts/VaultsV2/library/SushiRouterWrapper.sol": {
      "SushiRouterWrapper": [
        {
          "length": 20,
          "start": 13620
        }
      ]
    },
    "contracts/VaultsV3/library/SsovV3Wrapper.sol": {
      "SsovV3Wrapper": [
        {
          "length": 20,
          "start": 7877
        },
        {
          "length": 20,
          "start": 8683
        },
        {
          "length": 20,
          "start": 9679
        },
        {
          "length": 20,
          "start": 10573
        }
      ]
    }
  },
  "deployedLinkReferences": {
    "contracts/VaultsV2/library/Curve2PoolWrapper.sol": {
      "Curve2PoolWrapper": [
        {
          "length": 20,
          "start": 1998
        },
        {
          "length": 20,
          "start": 5450
        },
        {
          "length": 20,
          "start": 8917
        }
      ]
    },
    "contracts/VaultsV2/library/SushiRouterWrapper.sol": {
      "SushiRouterWrapper": [
        {
          "length": 20,
          "start": 8230
        }
      ]
    },
    "contracts/VaultsV3/library/SsovV3Wrapper.sol": {
      "SsovV3Wrapper": [
        {
          "length": 20,
          "start": 2487
        },
        {
          "length": 20,
          "start": 3293
        },
        {
          "length": 20,
          "start": 4289
        },
        {
          "length": 20,
          "start": 5183
        }
      ]
    }
  }
}