{
  "_format": "hh-sol-artifact-1",
  "contractName": "JonesDPXVaultV3",
  "sourceName": "contracts/VaultsV3/JonesDPXVaultV3.sol",
  "abi": [
    {
      "inputs": [
        {
          "internalType": "address",
          "name": "_asset",
          "type": "address"
        },
        {
          "internalType": "address",
          "name": "_share",
          "type": "address"
        },
        {
          "internalType": "address",
          "name": "_governor",
          "type": "address"
        },
        {
          "internalType": "address",
          "name": "_feeDistributor",
          "type": "address"
        },
        {
          "internalType": "uint256",
          "name": "_vaultCap",
          "type": "uint256"
        }
      ],
      "stateMutability": "nonpayable",
      "type": "constructor"
    },
    {
      "inputs": [],
      "name": "ADDRESS_CANNOT_BE_ZERO_ADDRESS",
      "type": "error"
    },
    {
      "inputs": [],
      "name": "CONTRACT_ADDRESS_MAKING_PROHIBITED_FUNCTION_CALL",
      "type": "error"
    },
    {
      "inputs": [],
      "name": "DEPOSIT_ASSET_AMOUNT_EXCEEDS_MAX_DEPOSIT",
      "type": "error"
    },
    {
      "inputs": [],
      "name": "INVALID_ADDRESS",
      "type": "error"
    },
    {
      "inputs": [],
      "name": "INVALID_ASSETS_AMOUNT",
      "type": "error"
    },
    {
      "inputs": [],
      "name": "INVALID_SHARES_AMOUNT",
      "type": "error"
    },
    {
      "inputs": [],
      "name": "INVALID_SNAPSHOT_VALUE",
      "type": "error"
    },
    {
      "inputs": [
        {
          "internalType": "enum IVault.State",
          "name": "_expected",
          "type": "uint8"
        },
        {
          "internalType": "enum IVault.State",
          "name": "_actual",
          "type": "uint8"
        }
      ],
      "name": "INVALID_STATE",
      "type": "error"
    },
    {
      "inputs": [],
      "name": "MINT_SHARE_AMOUNT_EXCEEDS_MAX_MINT",
      "type": "error"
    },
    {
      "inputs": [],
      "name": "MSG_SENDER_NOT_WHITELISTED_USER",
      "type": "error"
    },
    {
      "inputs": [],
      "name": "VAULT_STILL_HAS_REWARDS",
      "type": "error"
    },
    {
      "inputs": [],
      "name": "ZERO_SHARES_AVAILABLE_WHEN_DEPOSITING",
      "type": "error"
    },
    {
      "anonymous": false,
      "inputs": [
        {
          "indexed": true,
          "internalType": "address",
          "name": "caller",
          "type": "address"
        },
        {
          "indexed": true,
          "internalType": "address",
          "name": "owner",
          "type": "address"
        },
        {
          "indexed": false,
          "internalType": "uint256",
          "name": "assets",
          "type": "uint256"
        },
        {
          "indexed": false,
          "internalType": "uint256",
          "name": "shares",
          "type": "uint256"
        }
      ],
      "name": "Deposit",
      "type": "event"
    },
    {
      "anonymous": false,
      "inputs": [
        {
          "indexed": true,
          "internalType": "uint256",
          "name": "_timestamp",
          "type": "uint256"
        },
        {
          "indexed": false,
          "internalType": "uint256",
          "name": "_assetBalance",
          "type": "uint256"
        },
        {
          "indexed": false,
          "internalType": "uint256",
          "name": "_shareSupply",
          "type": "uint256"
        }
      ],
      "name": "EpochEnded",
      "type": "event"
    },
    {
      "anonymous": false,
      "inputs": [
        {
          "indexed": true,
          "internalType": "uint256",
          "name": "_timestamp",
          "type": "uint256"
        },
        {
          "indexed": false,
          "internalType": "uint256",
          "name": "_assetBalance",
          "type": "uint256"
        },
        {
          "indexed": false,
          "internalType": "uint256",
          "name": "_shareSupply",
          "type": "uint256"
        }
      ],
      "name": "EpochStarted",
      "type": "event"
    },
    {
      "anonymous": false,
      "inputs": [
        {
          "indexed": true,
          "internalType": "bytes32",
          "name": "role",
          "type": "bytes32"
        },
        {
          "indexed": true,
          "internalType": "bytes32",
          "name": "previousAdminRole",
          "type": "bytes32"
        },
        {
          "indexed": true,
          "internalType": "bytes32",
          "name": "newAdminRole",
          "type": "bytes32"
        }
      ],
      "name": "RoleAdminChanged",
      "type": "event"
    },
    {
      "anonymous": false,
      "inputs": [
        {
          "indexed": true,
          "internalType": "bytes32",
          "name": "role",
          "type": "bytes32"
        },
        {
          "indexed": true,
          "internalType": "address",
          "name": "account",
          "type": "address"
        },
        {
          "indexed": true,
          "internalType": "address",
          "name": "sender",
          "type": "address"
        }
      ],
      "name": "RoleGranted",
      "type": "event"
    },
    {
      "anonymous": false,
      "inputs": [
        {
          "indexed": true,
          "internalType": "bytes32",
          "name": "role",
          "type": "bytes32"
        },
        {
          "indexed": true,
          "internalType": "address",
          "name": "account",
          "type": "address"
        },
        {
          "indexed": true,
          "internalType": "address",
          "name": "sender",
          "type": "address"
        }
      ],
      "name": "RoleRevoked",
      "type": "event"
    },
    {
      "anonymous": false,
      "inputs": [
        {
          "indexed": true,
          "internalType": "uint256",
          "name": "_timestamp",
          "type": "uint256"
        },
        {
          "indexed": false,
          "internalType": "uint256",
          "name": "_vaultBalance",
          "type": "uint256"
        },
        {
          "indexed": false,
          "internalType": "uint256",
          "name": "_jonesAssetSupply",
          "type": "uint256"
        }
      ],
      "name": "Snapshot",
      "type": "event"
    },
    {
      "anonymous": false,
      "inputs": [
        {
          "indexed": true,
          "internalType": "address",
          "name": "_governor",
          "type": "address"
        },
        {
          "indexed": false,
          "internalType": "uint256",
          "name": "_amount",
          "type": "uint256"
        }
      ],
      "name": "Stake",
      "type": "event"
    },
    {
      "anonymous": false,
      "inputs": [
        {
          "indexed": true,
          "internalType": "address",
          "name": "_governor",
          "type": "address"
        },
        {
          "indexed": false,
          "internalType": "uint256",
          "name": "_amount",
          "type": "uint256"
        },
        {
          "indexed": false,
          "internalType": "bool",
          "name": "_claimRewards",
          "type": "bool"
        }
      ],
      "name": "Unstake",
      "type": "event"
    },
    {
      "anonymous": false,
      "inputs": [
        {
          "indexed": true,
          "internalType": "address",
          "name": "caller",
          "type": "address"
        },
        {
          "indexed": true,
          "internalType": "address",
          "name": "receiver",
          "type": "address"
        },
        {
          "indexed": true,
          "internalType": "address",
          "name": "owner",
          "type": "address"
        },
        {
          "indexed": false,
          "internalType": "uint256",
          "name": "assets",
          "type": "uint256"
        },
        {
          "indexed": false,
          "internalType": "uint256",
          "name": "shares",
          "type": "uint256"
        }
      ],
      "name": "Withdraw",
      "type": "event"
    },
    {
      "inputs": [],
      "name": "DEFAULT_ADMIN_ROLE",
      "outputs": [
        {
          "internalType": "bytes32",
          "name": "",
          "type": "bytes32"
        }
      ],
      "stateMutability": "view",
      "type": "function"
    },
    {
      "inputs": [],
      "name": "GOVERNOR",
      "outputs": [
        {
          "internalType": "bytes32",
          "name": "",
          "type": "bytes32"
        }
      ],
      "stateMutability": "view",
      "type": "function"
    },
    {
      "inputs": [],
      "name": "KEEPER",
      "outputs": [
        {
          "internalType": "bytes32",
          "name": "",
          "type": "bytes32"
        }
      ],
      "stateMutability": "view",
      "type": "function"
    },
    {
      "inputs": [],
      "name": "STRATEGIES",
      "outputs": [
        {
          "internalType": "bytes32",
          "name": "",
          "type": "bytes32"
        }
      ],
      "stateMutability": "view",
      "type": "function"
    },
    {
      "inputs": [
        {
          "internalType": "address",
          "name": "_contractAddress",
          "type": "address"
        }
      ],
      "name": "addContractAddressToWhitelist",
      "outputs": [],
      "stateMutability": "nonpayable",
      "type": "function"
    },
    {
      "inputs": [],
      "name": "asset",
      "outputs": [
        {
          "internalType": "address",
          "name": "",
          "type": "address"
        }
      ],
      "stateMutability": "view",
      "type": "function"
    },
    {
      "inputs": [],
      "name": "chargeFees",
      "outputs": [
        {
          "internalType": "bool",
          "name": "",
          "type": "bool"
        }
      ],
      "stateMutability": "view",
      "type": "function"
    },
    {
      "inputs": [],
      "name": "closeManagementWindow",
      "outputs": [],
      "stateMutability": "nonpayable",
      "type": "function"
    },
    {
      "inputs": [
        {
          "internalType": "uint256",
          "name": "_shares",
          "type": "uint256"
        }
      ],
      "name": "convertToAssets",
      "outputs": [
        {
          "internalType": "uint256",
          "name": "",
          "type": "uint256"
        }
      ],
      "stateMutability": "view",
      "type": "function"
    },
    {
      "inputs": [
        {
          "internalType": "uint256",
          "name": "_assets",
          "type": "uint256"
        }
      ],
      "name": "convertToShares",
      "outputs": [
        {
          "internalType": "uint256",
          "name": "",
          "type": "uint256"
        }
      ],
      "stateMutability": "view",
      "type": "function"
    },
    {
      "inputs": [
        {
          "internalType": "uint256",
          "name": "_assets",
          "type": "uint256"
        },
        {
          "internalType": "address",
          "name": "_receiver",
          "type": "address"
        }
      ],
      "name": "deposit",
      "outputs": [
        {
          "internalType": "uint256",
          "name": "shares",
          "type": "uint256"
        }
      ],
      "stateMutability": "nonpayable",
      "type": "function"
    },
    {
      "inputs": [
        {
          "internalType": "uint256",
          "name": "_assets",
          "type": "uint256"
        }
      ],
      "name": "depositStrategyFunds",
      "outputs": [],
      "stateMutability": "nonpayable",
      "type": "function"
    },
    {
      "inputs": [],
      "name": "feeDistributor",
      "outputs": [
        {
          "internalType": "address",
          "name": "",
          "type": "address"
        }
      ],
      "stateMutability": "view",
      "type": "function"
    },
    {
      "inputs": [
        {
          "internalType": "bytes32",
          "name": "role",
          "type": "bytes32"
        }
      ],
      "name": "getRoleAdmin",
      "outputs": [
        {
          "internalType": "bytes32",
          "name": "",
          "type": "bytes32"
        }
      ],
      "stateMutability": "view",
      "type": "function"
    },
    {
      "inputs": [
        {
          "internalType": "address",
          "name": "_to",
          "type": "address"
        }
      ],
      "name": "grantKeeperRole",
      "outputs": [],
      "stateMutability": "nonpayable",
      "type": "function"
    },
    {
      "inputs": [
        {
          "internalType": "bytes32",
          "name": "role",
          "type": "bytes32"
        },
        {
          "internalType": "address",
          "name": "account",
          "type": "address"
        }
      ],
      "name": "grantRole",
      "outputs": [],
      "stateMutability": "nonpayable",
      "type": "function"
    },
    {
      "inputs": [
        {
          "internalType": "bytes32",
          "name": "role",
          "type": "bytes32"
        },
        {
          "internalType": "address",
          "name": "account",
          "type": "address"
        }
      ],
      "name": "hasRole",
      "outputs": [
        {
          "internalType": "bool",
          "name": "",
          "type": "bool"
        }
      ],
      "stateMutability": "view",
      "type": "function"
    },
    {
      "inputs": [
        {
          "internalType": "uint256",
          "name": "_snapshotAssetBalance",
          "type": "uint256"
        },
        {
          "internalType": "uint256",
          "name": "_snapshotSharesSupply",
          "type": "uint256"
        }
      ],
      "name": "initialRun",
      "outputs": [],
      "stateMutability": "nonpayable",
      "type": "function"
    },
    {
      "inputs": [
        {
          "internalType": "address",
          "name": "",
          "type": "address"
        }
      ],
      "name": "maxDeposit",
      "outputs": [
        {
          "internalType": "uint256",
          "name": "",
          "type": "uint256"
        }
      ],
      "stateMutability": "view",
      "type": "function"
    },
    {
      "inputs": [
        {
          "internalType": "address",
          "name": "",
          "type": "address"
        }
      ],
      "name": "maxMint",
      "outputs": [
        {
          "internalType": "uint256",
          "name": "",
          "type": "uint256"
        }
      ],
      "stateMutability": "view",
      "type": "function"
    },
    {
      "inputs": [
        {
          "internalType": "address",
          "name": "_owner",
          "type": "address"
        }
      ],
      "name": "maxRedeem",
      "outputs": [
        {
          "internalType": "uint256",
          "name": "",
          "type": "uint256"
        }
      ],
      "stateMutability": "view",
      "type": "function"
    },
    {
      "inputs": [
        {
          "internalType": "address",
          "name": "_owner",
          "type": "address"
        }
      ],
      "name": "maxWithdraw",
      "outputs": [
        {
          "internalType": "uint256",
          "name": "",
          "type": "uint256"
        }
      ],
      "stateMutability": "view",
      "type": "function"
    },
    {
      "inputs": [
        {
          "internalType": "address",
          "name": "_to",
          "type": "address"
        },
        {
          "internalType": "address[]",
          "name": "_tokens",
          "type": "address[]"
        }
      ],
      "name": "migrate",
      "outputs": [],
      "stateMutability": "nonpayable",
      "type": "function"
    },
    {
      "inputs": [
        {
          "internalType": "uint256",
          "name": "_shares",
          "type": "uint256"
        },
        {
          "internalType": "address",
          "name": "_receiver",
          "type": "address"
        }
      ],
      "name": "mint",
      "outputs": [
        {
          "internalType": "uint256",
          "name": "assets",
          "type": "uint256"
        }
      ],
      "stateMutability": "nonpayable",
      "type": "function"
    },
    {
      "inputs": [],
      "name": "openManagementWindow",
      "outputs": [],
      "stateMutability": "nonpayable",
      "type": "function"
    },
    {
      "inputs": [
        {
          "internalType": "uint256",
          "name": "_assets",
          "type": "uint256"
        }
      ],
      "name": "previewDeposit",
      "outputs": [
        {
          "internalType": "uint256",
          "name": "",
          "type": "uint256"
        }
      ],
      "stateMutability": "view",
      "type": "function"
    },
    {
      "inputs": [
        {
          "internalType": "uint256",
          "name": "_shares",
          "type": "uint256"
        }
      ],
      "name": "previewMint",
      "outputs": [
        {
          "internalType": "uint256",
          "name": "",
          "type": "uint256"
        }
      ],
      "stateMutability": "view",
      "type": "function"
    },
    {
      "inputs": [
        {
          "internalType": "uint256",
          "name": "_shares",
          "type": "uint256"
        }
      ],
      "name": "previewRedeem",
      "outputs": [
        {
          "internalType": "uint256",
          "name": "",
          "type": "uint256"
        }
      ],
      "stateMutability": "view",
      "type": "function"
    },
    {
      "inputs": [
        {
          "internalType": "uint256",
          "name": "_assets",
          "type": "uint256"
        }
      ],
      "name": "previewWithdraw",
      "outputs": [
        {
          "internalType": "uint256",
          "name": "",
          "type": "uint256"
        }
      ],
      "stateMutability": "view",
      "type": "function"
    },
    {
      "inputs": [
        {
          "internalType": "uint256",
          "name": "_assets",
          "type": "uint256"
        }
      ],
      "name": "pull",
      "outputs": [],
      "stateMutability": "nonpayable",
      "type": "function"
    },
    {
      "inputs": [
        {
          "internalType": "uint256",
          "name": "_shares",
          "type": "uint256"
        },
        {
          "internalType": "address",
          "name": "_receiver",
          "type": "address"
        },
        {
          "internalType": "address",
          "name": "",
          "type": "address"
        }
      ],
      "name": "redeem",
      "outputs": [
        {
          "internalType": "uint256",
          "name": "assets",
          "type": "uint256"
        }
      ],
      "stateMutability": "nonpayable",
      "type": "function"
    },
    {
      "inputs": [
        {
          "internalType": "address",
          "name": "_contractAddress",
          "type": "address"
        }
      ],
      "name": "removeContractAddressFromWhitelist",
      "outputs": [],
      "stateMutability": "nonpayable",
      "type": "function"
    },
    {
      "inputs": [
        {
          "internalType": "address",
          "name": "_strategyAddress",
          "type": "address"
        }
      ],
      "name": "removeStrategyFromWhitelist",
      "outputs": [],
      "stateMutability": "nonpayable",
      "type": "function"
    },
    {
      "inputs": [
        {
          "internalType": "bytes32",
          "name": "role",
          "type": "bytes32"
        },
        {
          "internalType": "address",
          "name": "account",
          "type": "address"
        }
      ],
      "name": "renounceRole",
      "outputs": [],
      "stateMutability": "nonpayable",
      "type": "function"
    },
    {
      "inputs": [
        {
          "internalType": "address",
          "name": "_from",
          "type": "address"
        }
      ],
      "name": "revokeKeeperRole",
      "outputs": [],
      "stateMutability": "nonpayable",
      "type": "function"
    },
    {
      "inputs": [
        {
          "internalType": "bytes32",
          "name": "role",
          "type": "bytes32"
        },
        {
          "internalType": "address",
          "name": "account",
          "type": "address"
        }
      ],
      "name": "revokeRole",
      "outputs": [],
      "stateMutability": "nonpayable",
      "type": "function"
    },
    {
      "inputs": [],
      "name": "rewardsTolerance",
      "outputs": [
        {
          "internalType": "uint256",
          "name": "",
          "type": "uint256"
        }
      ],
      "stateMutability": "view",
      "type": "function"
    },
    {
      "inputs": [
        {
          "internalType": "uint256",
          "name": "_minOutputAmount",
          "type": "uint256"
        }
      ],
      "name": "sellRewards",
      "outputs": [],
      "stateMutability": "nonpayable",
      "type": "function"
    },
    {
      "inputs": [
        {
          "internalType": "bool",
          "name": "_status",
          "type": "bool"
        }
      ],
      "name": "setChargeFees",
      "outputs": [],
      "stateMutability": "nonpayable",
      "type": "function"
    },
    {
      "inputs": [
        {
          "internalType": "address",
          "name": "_feeDistributor",
          "type": "address"
        }
      ],
      "name": "setFeeDistributor",
      "outputs": [],
      "stateMutability": "nonpayable",
      "type": "function"
    },
    {
      "inputs": [
        {
          "internalType": "uint256",
          "name": "_amount",
          "type": "uint256"
        }
      ],
      "name": "setVaultCap",
      "outputs": [],
      "stateMutability": "nonpayable",
      "type": "function"
    },
    {
      "inputs": [],
      "name": "share",
      "outputs": [
        {
          "internalType": "address",
          "name": "",
          "type": "address"
        }
      ],
      "stateMutability": "view",
      "type": "function"
    },
    {
      "inputs": [],
      "name": "snapshotAssetBalance",
      "outputs": [
        {
          "internalType": "uint256",
          "name": "",
          "type": "uint256"
        }
      ],
      "stateMutability": "view",
      "type": "function"
    },
    {
      "inputs": [],
      "name": "snapshotSharesSupply",
      "outputs": [
        {
          "internalType": "uint256",
          "name": "",
          "type": "uint256"
        }
      ],
      "stateMutability": "view",
      "type": "function"
    },
    {
      "inputs": [
        {
          "internalType": "uint256",
          "name": "_amount",
          "type": "uint256"
        }
      ],
      "name": "stake",
      "outputs": [],
      "stateMutability": "nonpayable",
      "type": "function"
    },
    {
      "inputs": [],
      "name": "stakeAll",
      "outputs": [],
      "stateMutability": "nonpayable",
      "type": "function"
    },
    {
      "inputs": [],
      "name": "state",
      "outputs": [
        {
          "internalType": "enum IVault.State",
          "name": "",
          "type": "uint8"
        }
      ],
      "stateMutability": "view",
      "type": "function"
    },
    {
      "inputs": [
        {
          "internalType": "bytes4",
          "name": "interfaceId",
          "type": "bytes4"
        }
      ],
      "name": "supportsInterface",
      "outputs": [
        {
          "internalType": "bool",
          "name": "",
          "type": "bool"
        }
      ],
      "stateMutability": "view",
      "type": "function"
    },
    {
      "inputs": [],
      "name": "totalAssets",
      "outputs": [
        {
          "internalType": "uint256",
          "name": "",
          "type": "uint256"
        }
      ],
      "stateMutability": "view",
      "type": "function"
    },
    {
      "inputs": [
        {
          "internalType": "uint256",
          "name": "_amount",
          "type": "uint256"
        },
        {
          "internalType": "bool",
          "name": "_claimRewards",
          "type": "bool"
        }
      ],
      "name": "unstake",
      "outputs": [],
      "stateMutability": "nonpayable",
      "type": "function"
    },
    {
      "inputs": [],
      "name": "unstakeAll",
      "outputs": [],
      "stateMutability": "nonpayable",
      "type": "function"
    },
    {
      "inputs": [
        {
          "internalType": "uint256",
          "name": "_newRewardsTolerance",
          "type": "uint256"
        }
      ],
      "name": "updateRewardsTolerance",
      "outputs": [],
      "stateMutability": "nonpayable",
      "type": "function"
    },
    {
      "inputs": [],
      "name": "vaultCap",
      "outputs": [
        {
          "internalType": "uint256",
          "name": "",
          "type": "uint256"
        }
      ],
      "stateMutability": "view",
      "type": "function"
    },
    {
      "inputs": [
        {
          "internalType": "address",
          "name": "_strategyAddress",
          "type": "address"
        }
      ],
      "name": "whitelistStrategy",
      "outputs": [],
      "stateMutability": "nonpayable",
      "type": "function"
    },
    {
      "inputs": [
        {
          "internalType": "address",
          "name": "",
          "type": "address"
        }
      ],
      "name": "whitelistedContract",
      "outputs": [
        {
          "internalType": "bool",
          "name": "",
          "type": "bool"
        }
      ],
      "stateMutability": "view",
      "type": "function"
    },
    {
      "inputs": [
        {
          "internalType": "uint256",
          "name": "_assets",
          "type": "uint256"
        },
        {
          "internalType": "address",
          "name": "_receiver",
          "type": "address"
        },
        {
          "internalType": "address",
          "name": "",
          "type": "address"
        }
      ],
      "name": "withdraw",
      "outputs": [
        {
          "internalType": "uint256",
          "name": "shares",
          "type": "uint256"
        }
      ],
      "stateMutability": "nonpayable",
      "type": "function"
    }
  ],
  "bytecode": "0x60c06040526000600760006101000a81548160ff021916908360028111156200002d576200002c62000aeb565b5b02179055503480156200003f57600080fd5b506040516200619f3803806200619f833981810160405281019062000065919062000bbf565b848484848460018081905550600073ffffffffffffffffffffffffffffffffffffffff168573ffffffffffffffffffffffffffffffffffffffff161415620000d9576040517f5963709b00000000000000000000000000000000000000000000000000000000815260040160405180910390fd5b600073ffffffffffffffffffffffffffffffffffffffff168473ffffffffffffffffffffffffffffffffffffffff16141562000141576040517f5963709b00000000000000000000000000000000000000000000000000000000815260040160405180910390fd5b600073ffffffffffffffffffffffffffffffffffffffff168373ffffffffffffffffffffffffffffffffffffffff161415620001a9576040517f5963709b00000000000000000000000000000000000000000000000000000000815260040160405180910390fd5b600073ffffffffffffffffffffffffffffffffffffffff168273ffffffffffffffffffffffffffffffffffffffff16141562000211576040517f5963709b00000000000000000000000000000000000000000000000000000000815260040160405180910390fd5b8473ffffffffffffffffffffffffffffffffffffffff1660808173ffffffffffffffffffffffffffffffffffffffff16815250508373ffffffffffffffffffffffffffffffffffffffff1660a08173ffffffffffffffffffffffffffffffffffffffff168152505081600560016101000a81548173ffffffffffffffffffffffffffffffffffffffff021916908373ffffffffffffffffffffffffffffffffffffffff1602179055508060048190555060016002819055506001600381905550620003037f7935bd0ae54bc31f548c14dba4d37c5c64b3f8ca900cb468fb8abd54d5894f5584620008da60201b60201c565b505050505073c6d714170fe766691670f12c2b45c1f34405aab6600960006101000a81548173ffffffffffffffffffffffffffffffffffffffff021916908373ffffffffffffffffffffffffffffffffffffffff160217905550731b02da8cb0d097eb8d57a175b88c7d8b47997506600a60006101000a81548173ffffffffffffffffffffffffffffffffffffffff021916908373ffffffffffffffffffffffffffffffffffffffff1602179055507332eb7902d4134bf98a28b963d26de779af92a212600b60006101000a81548173ffffffffffffffffffffffffffffffffffffffff021916908373ffffffffffffffffffffffffffffffffffffffff160217905550600367ffffffffffffffff81111562000425576200042462000c47565b5b604051908082528060200260200182016040528015620004545781602001602082028036833780820191505090505b50600c90805190602001906200046c92919062000a3d565b50600b60009054906101000a900473ffffffffffffffffffffffffffffffffffffffff16600c600081548110620004a857620004a762000c76565b5b9060005260206000200160006101000a81548173ffffffffffffffffffffffffffffffffffffffff021916908373ffffffffffffffffffffffffffffffffffffffff160217905550600a60009054906101000a900473ffffffffffffffffffffffffffffffffffffffff1673ffffffffffffffffffffffffffffffffffffffff1663ad5c46486040518163ffffffff1660e01b8152600401602060405180830381865afa1580156200055e573d6000803e3d6000fd5b505050506040513d601f19601f8201168201806040525081019062000584919062000ca5565b600c6001815481106200059c576200059b62000c76565b5b9060005260206000200160006101000a81548173ffffffffffffffffffffffffffffffffffffffff021916908373ffffffffffffffffffffffffffffffffffffffff160217905550608051600c600281548110620005ff57620005fe62000c76565b5b9060005260206000200160006101000a81548173ffffffffffffffffffffffffffffffffffffffff021916908373ffffffffffffffffffffffffffffffffffffffff160217905550600b60009054906101000a900473ffffffffffffffffffffffffffffffffffffffff1673ffffffffffffffffffffffffffffffffffffffff1663313ce5676040518163ffffffff1660e01b8152600401602060405180830381865afa158015620006b5573d6000803e3d6000fd5b505050506040513d601f19601f82011682018060405250810190620006db919062000d15565b600a620006e9919062000eca565b6008819055508473ffffffffffffffffffffffffffffffffffffffff1663095ea7b3600960009054906101000a900473ffffffffffffffffffffffffffffffffffffffff167fffffffffffffffffffffffffffffffffffffffffffffffffffffffffffffffff6040518363ffffffff1660e01b81526004016200076e92919062000f3d565b6020604051808303816000875af11580156200078e573d6000803e3d6000fd5b505050506040513d601f19601f82011682018060405250810190620007b4919062000fa7565b50600b60009054906101000a900473ffffffffffffffffffffffffffffffffffffffff1673ffffffffffffffffffffffffffffffffffffffff1663095ea7b3600a60009054906101000a900473ffffffffffffffffffffffffffffffffffffffff167fffffffffffffffffffffffffffffffffffffffffffffffffffffffffffffffff6040518363ffffffff1660e01b81526004016200085692919062000f3d565b6020604051808303816000875af115801562000876573d6000803e3d6000fd5b505050506040513d601f19601f820116820180604052508101906200089c919062000fa7565b50620008cf7ffc8737ab85eb45125971625a9ebdb75cc78e01d5c1fa80c4c6e5203f47bc4fab84620008da60201b60201c565b505050505062000fd9565b620008ec8282620009cb60201b60201c565b620009c757600160008084815260200190815260200160002060000160008373ffffffffffffffffffffffffffffffffffffffff1673ffffffffffffffffffffffffffffffffffffffff16815260200190815260200160002060006101000a81548160ff0219169083151502179055506200096c62000a3560201b60201c565b73ffffffffffffffffffffffffffffffffffffffff168173ffffffffffffffffffffffffffffffffffffffff16837f2f8788117e7eff1d82e926ec794901d17c78024a50270940304540a733656f0d60405160405180910390a45b5050565b600080600084815260200190815260200160002060000160008373ffffffffffffffffffffffffffffffffffffffff1673ffffffffffffffffffffffffffffffffffffffff16815260200190815260200160002060009054906101000a900460ff16905092915050565b600033905090565b82805482825590600052602060002090810192821562000ab9579160200282015b8281111562000ab85782518260006101000a81548173ffffffffffffffffffffffffffffffffffffffff021916908373ffffffffffffffffffffffffffffffffffffffff1602179055509160200191906001019062000a5e565b5b50905062000ac8919062000acc565b5090565b5b8082111562000ae757600081600090555060010162000acd565b5090565b7f4e487b7100000000000000000000000000000000000000000000000000000000600052602160045260246000fd5b600080fd5b600073ffffffffffffffffffffffffffffffffffffffff82169050919050565b600062000b4c8262000b1f565b9050919050565b62000b5e8162000b3f565b811462000b6a57600080fd5b50565b60008151905062000b7e8162000b53565b92915050565b6000819050919050565b62000b998162000b84565b811462000ba557600080fd5b50565b60008151905062000bb98162000b8e565b92915050565b600080600080600060a0868803121562000bde5762000bdd62000b1a565b5b600062000bee8882890162000b6d565b955050602062000c018882890162000b6d565b945050604062000c148882890162000b6d565b935050606062000c278882890162000b6d565b925050608062000c3a8882890162000ba8565b9150509295509295909350565b7f4e487b7100000000000000000000000000000000000000000000000000000000600052604160045260246000fd5b7f4e487b7100000000000000000000000000000000000000000000000000000000600052603260045260246000fd5b60006020828403121562000cbe5762000cbd62000b1a565b5b600062000cce8482850162000b6d565b91505092915050565b600060ff82169050919050565b62000cef8162000cd7565b811462000cfb57600080fd5b50565b60008151905062000d0f8162000ce4565b92915050565b60006020828403121562000d2e5762000d2d62000b1a565b5b600062000d3e8482850162000cfe565b91505092915050565b7f4e487b7100000000000000000000000000000000000000000000000000000000600052601160045260246000fd5b60008160011c9050919050565b6000808291508390505b600185111562000dd55780860481111562000dad5762000dac62000d47565b5b600185161562000dbd5780820291505b808102905062000dcd8562000d76565b945062000d8d565b94509492505050565b60008262000df0576001905062000ec3565b8162000e00576000905062000ec3565b816001811462000e19576002811462000e245762000e5a565b600191505062000ec3565b60ff84111562000e395762000e3862000d47565b5b8360020a91508482111562000e535762000e5262000d47565b5b5062000ec3565b5060208310610133831016604e8410600b841016171562000e945782820a90508381111562000e8e5762000e8d62000d47565b5b62000ec3565b62000ea3848484600162000d83565b9250905081840481111562000ebd5762000ebc62000d47565b5b81810290505b9392505050565b600062000ed78262000b84565b915062000ee48362000cd7565b925062000f137fffffffffffffffffffffffffffffffffffffffffffffffffffffffffffffffff848462000dde565b905092915050565b62000f268162000b3f565b82525050565b62000f378162000b84565b82525050565b600060408201905062000f54600083018562000f1b565b62000f63602083018462000f2c565b9392505050565b60008115159050919050565b62000f818162000f6a565b811462000f8d57600080fd5b50565b60008151905062000fa18162000f76565b92915050565b60006020828403121562000fc05762000fbf62000b1a565b5b600062000fd08482850162000f90565b91505092915050565b60805160a0516151226200107d60003960008181611dd9015281816122480152818161231901528181613037015281816131440152613ae201526000818161113e0152818161141c015281816117c2015281816124c5015281816125a60152818161291c01528181612ff00152818161325401528181613649015281816137ab0152818161393501528181613a1b01528181613a980152613b7701526151226000f3fe608060405234801561001057600080fd5b50600436106103785760003560e01c806391d14854116101d3578063c15fc68811610104578063ce96cb77116100a2578063e8b025e01161007c578063e8b025e014610a55578063e8ddb9a614610a71578063ef8b30f714610a8d578063f0f5907d14610abd57610378565b8063ce96cb77146109d9578063d547741f14610a09578063d905777e14610a2557610378565b8063c6460a8c116100de578063c6460a8c14610953578063c6e6f59214610971578063cc1f071a146109a1578063ccfc2e8d146109bd57610378565b8063c15fc688146108e7578063c19d93fb14610905578063c63d75b61461092357610378565b8063a8d5fd6511610171578063b3d7f6b91161014b578063b3d7f6b914610839578063b460af9414610869578063b4fd689914610899578063ba087652146108b757610378565b8063a8d5fd65146107e3578063ab5d26e714610801578063ae7742561461081d57610378565b8063a217fddf116101ad578063a217fddf14610771578063a49b27801461078f578063a694fc3a146107ab578063a6c008ee146107c757610378565b806391d14854146106f557806394bf804d146107255780639ebea88c1461075557610378565b80633c1bda09116102ad5780636dc0ae221161024b5780637d495eaf116102255780637d495eaf14610695578063862a179e146106b15780638dcb4061146106cf5780638f5b3091146106d957610378565b80636dc0ae22146106295780636e553f65146106475780636fd2869f1461067757610378565b806346b49dec1161028757806346b49dec146105b75780634cdad506146105c15780634d0392a8146105f157806352e84f441461060d57610378565b80633c1bda091461054d578063402d267d1461056b5780634106d2741461059b57610378565b8063248a9ca31161031a5780632f2ff15d116102f45780632f2ff15d146104ed57806335322f371461050957806336568abe1461051357806338d52e0f1461052f57610378565b8063248a9ca31461046f57806328836fd71461049f5780632d706e40146104cf57610378565b806307a2d13a1161035657806307a2d13a146103e75780630a28a477146104175780630d43e8ad146104475780631f9920e21461046557610378565b806301e1d1141461037d57806301ffc9a71461039b578063047701e4146103cb575b600080fd5b610385610ad9565b6040516103929190613e24565b60405180910390f35b6103b560048036038101906103b09190613eab565b610bd6565b6040516103c29190613ef3565b60405180910390f35b6103e560048036038101906103e091906140c5565b610c50565b005b61040160048036038101906103fc919061414d565b610e26565b60405161040e9190613e24565b60405180910390f35b610431600480360381019061042c919061414d565b610e5c565b60405161043e9190613e24565b60405180910390f35b61044f610e92565b60405161045c9190614189565b60405180910390f35b61046d610eb8565b005b610489600480360381019061048491906141da565b610f70565b6040516104969190614216565b60405180910390f35b6104b960048036038101906104b49190614231565b610f8f565b6040516104c69190613ef3565b60405180910390f35b6104d7610faf565b6040516104e49190613e24565b60405180910390f35b6105076004803603810190610502919061425e565b610fb5565b005b610511610fde565b005b61052d6004803603810190610528919061425e565b6110b9565b005b61053761113c565b6040516105449190614189565b60405180910390f35b610555611160565b6040516105629190613e24565b60405180910390f35b61058560048036038101906105809190614231565b611166565b6040516105929190613e24565b60405180910390f35b6105b560048036038101906105b09190614231565b61120d565b005b6105bf6112d4565b005b6105db60048036038101906105d6919061414d565b61138c565b6040516105e89190613e24565b60405180910390f35b61060b6004803603810190610606919061414d565b61139e565b005b6106276004803603810190610622919061414d565b611464565b005b6106316115fc565b60405161063e9190614216565b60405180910390f35b610661600480360381019061065c919061429e565b611620565b60405161066e9190613e24565b60405180910390f35b61067f611724565b60405161068c9190613e24565b60405180910390f35b6106af60048036038101906106aa919061414d565b61172a565b005b6106b9611767565b6040516106c69190614216565b60405180910390f35b6106d761178b565b005b6106f360048036038101906106ee9190614231565b611862565b005b61070f600480360381019061070a919061425e565b6118c2565b60405161071c9190613ef3565b60405180910390f35b61073f600480360381019061073a919061429e565b61192c565b60405161074c9190613e24565b60405180910390f35b61076f600480360381019061076a919061430a565b6119f5565b005b610779611b33565b6040516107869190614216565b60405180910390f35b6107a960048036038101906107a4919061434a565b611b3a565b005b6107c560048036038101906107c0919061414d565b611c38565b005b6107e160048036038101906107dc9190614231565b611d49565b005b6107eb611dd7565b6040516107f89190614189565b60405180910390f35b61081b6004803603810190610816919061438a565b611dfb565b005b61083760048036038101906108329190614231565b611e4b565b005b610853600480360381019061084e919061414d565b611eab565b6040516108609190613e24565b60405180910390f35b610883600480360381019061087e91906143b7565b611ee1565b6040516108909190613e24565b60405180910390f35b6108a1611f9a565b6040516108ae9190613e24565b60405180910390f35b6108d160048036038101906108cc91906143b7565b611fa0565b6040516108de9190613e24565b60405180910390f35b6108ef612059565b6040516108fc9190613ef3565b60405180910390f35b61090d61206c565b60405161091a9190614481565b60405180910390f35b61093d60048036038101906109389190614231565b61207f565b60405161094a9190613e24565b60405180910390f35b61095b6120a9565b6040516109689190614216565b60405180910390f35b61098b6004803603810190610986919061414d565b6120cd565b6040516109989190613e24565b60405180910390f35b6109bb60048036038101906109b69190614231565b612103565b005b6109d760048036038101906109d29190614231565b612163565b005b6109f360048036038101906109ee9190614231565b612241565b604051610a009190613e24565b60405180910390f35b610a236004803603810190610a1e919061425e565b6122ec565b005b610a3f6004803603810190610a3a9190614231565b612315565b604051610a4c9190613e24565b60405180910390f35b610a6f6004803603810190610a6a9190614231565b6123b8565b005b610a8b6004803603810190610a86919061414d565b612446565b005b610aa76004803603810190610aa2919061414d565b61250e565b604051610ab49190613e24565b60405180910390f35b610ad76004803603810190610ad2919061414d565b612520565b005b6000600280811115610aee57610aed61440a565b5b600760009054906101000a900460ff166002811115610b1057610b0f61440a565b5b14610bc857600960009054906101000a900473ffffffffffffffffffffffffffffffffffffffff1673ffffffffffffffffffffffffffffffffffffffff166370a08231306040518263ffffffff1660e01b8152600401610b709190614189565b602060405180830381865afa158015610b8d573d6000803e3d6000fd5b505050506040513d601f19601f82011682018060405250810190610bb191906144b1565b610bb961255d565b610bc3919061450d565b610bd1565b610bd061255d565b5b905090565b60007f7965db0b000000000000000000000000000000000000000000000000000000007bffffffffffffffffffffffffffffffffffffffffffffffffffffffff1916827bffffffffffffffffffffffffffffffffffffffffffffffffffffffff19161480610c495750610c4882612644565b5b9050919050565b7f7935bd0ae54bc31f548c14dba4d37c5c64b3f8ca900cb468fb8abd54d5894f55610c8281610c7d6126ae565b6126b6565b60005b8251811015610dc9576000838281518110610ca357610ca2614563565b5b6020026020010151905060008173ffffffffffffffffffffffffffffffffffffffff166370a08231306040518263ffffffff1660e01b8152600401610ce89190614189565b602060405180830381865afa158015610d05573d6000803e3d6000fd5b505050506040513d601f19601f82011682018060405250810190610d2991906144b1565b90506000811115610db4578173ffffffffffffffffffffffffffffffffffffffff1663a9059cbb87836040518363ffffffff1660e01b8152600401610d6f929190614592565b6020604051808303816000875af1158015610d8e573d6000803e3d6000fd5b505050506040513d601f19601f82011682018060405250810190610db291906145d0565b505b50508080610dc1906145fd565b915050610c85565b5060004790506000811115610e20578373ffffffffffffffffffffffffffffffffffffffff166108fc829081150290604051600060405180830381858888f19350505050158015610e1e573d6000803e3d6000fd5b505b50505050565b600080600254905060008114610e5257610e4d60035482856127539092919063ffffffff16565b610e54565b825b915050919050565b600080600254905060008114610e8857610e83816003548561277b9092919063ffffffff16565b610e8a565b825b915050919050565b600560019054906101000a900473ffffffffffffffffffffffffffffffffffffffff1681565b7f7935bd0ae54bc31f548c14dba4d37c5c64b3f8ca900cb468fb8abd54d5894f55610eea81610ee56126ae565b6126b6565b610ef460026127ad565b610efc612838565b6001600760006101000a81548160ff02191690836002811115610f2257610f2161440a565b5b0217905550427f469dcd0c8170c8faf3678737ed5cc64107d6d30846f97438a0feefacbed00ec2600354600254604051610f5d929190614646565b60405180910390a2610f6d612918565b50565b6000806000838152602001908152602001600020600101549050919050565b60066020528060005260406000206000915054906101000a900460ff1681565b60035481565b610fbe82610f70565b610fcf81610fca6126ae565b6126b6565b610fd98383612a78565b505050565b7ffc8737ab85eb45125971625a9ebdb75cc78e01d5c1fa80c4c6e5203f47bc4fab6110108161100b6126ae565b6126b6565b6110b6600960009054906101000a900473ffffffffffffffffffffffffffffffffffffffff1673ffffffffffffffffffffffffffffffffffffffff166370a08231306040518263ffffffff1660e01b815260040161106e9190614189565b602060405180830381865afa15801561108b573d6000803e3d6000fd5b505050506040513d601f19601f820116820180604052508101906110af91906144b1565b60016119f5565b50565b6110c16126ae565b73ffffffffffffffffffffffffffffffffffffffff168173ffffffffffffffffffffffffffffffffffffffff161461112e576040517f08c379a0000000000000000000000000000000000000000000000000000000008152600401611125906146f2565b60405180910390fd5b6111388282612b58565b5050565b7f000000000000000000000000000000000000000000000000000000000000000081565b60045481565b600080600281111561117b5761117a61440a565b5b600760009054906101000a900460ff16600281111561119d5761119c61440a565b5b14806111db57506002808111156111b7576111b661440a565b5b600760009054906101000a900460ff1660028111156111d9576111d861440a565b5b145b156111e95760009050611208565b6004546111f4610ad9565b106112025760009050611208565b60045490505b919050565b7f7935bd0ae54bc31f548c14dba4d37c5c64b3f8ca900cb468fb8abd54d5894f5561123f8161123a6126ae565b6126b6565b600073ffffffffffffffffffffffffffffffffffffffff168273ffffffffffffffffffffffffffffffffffffffff1614156112a6576040517f9cfbf00600000000000000000000000000000000000000000000000000000000815260040160405180910390fd5b6112d07ffc8737ab85eb45125971625a9ebdb75cc78e01d5c1fa80c4c6e5203f47bc4fab83612a78565b5050565b7f7935bd0ae54bc31f548c14dba4d37c5c64b3f8ca900cb468fb8abd54d5894f55611306816113016126ae565b6126b6565b61131060016127ad565b611318612c39565b6002600760006101000a81548160ff0219169083600281111561133e5761133d61440a565b5b0217905550427f29db3deb62ef2036e5eb93aad68d2362aec0711af592cb365566603bd88651d4600354600254604051611379929190614646565b60405180910390a2611389612e2b565b50565b600061139782610e26565b9050919050565b7f83f1c4c0119299dc19d4102a0df1185e4605139e61947a2f1bf0978f284fc8916113d0816113cb6126ae565b6126b6565b6113da60026127ad565b6000821415611415576040517f92064cc900000000000000000000000000000000000000000000000000000000815260040160405180910390fd5b61146033837f000000000000000000000000000000000000000000000000000000000000000073ffffffffffffffffffffffffffffffffffffffff16612e2d9092919063ffffffff16565b5050565b7f7935bd0ae54bc31f548c14dba4d37c5c64b3f8ca900cb468fb8abd54d5894f55611496816114916126ae565b6126b6565b6114a060026127ad565b6000600b60009054906101000a900473ffffffffffffffffffffffffffffffffffffffff1673ffffffffffffffffffffffffffffffffffffffff166370a08231306040518263ffffffff1660e01b81526004016114fd9190614189565b602060405180830381865afa15801561151a573d6000803e3d6000fd5b505050506040513d601f19601f8201168201806040525081019061153e91906144b1565b905060008111156115f757600a60009054906101000a900473ffffffffffffffffffffffffffffffffffffffff1673ffffffffffffffffffffffffffffffffffffffff166338ed17398285600c30426040518663ffffffff1660e01b81526004016115ad959493929190614836565b6000604051808303816000875af11580156115cc573d6000803e3d6000fd5b505050506040513d6000823e3d601f19601f820116820180604052508101906115f59190614953565b505b505050565b7f7935bd0ae54bc31f548c14dba4d37c5c64b3f8ca900cb468fb8abd54d5894f5581565b600060026001541415611668576040517f08c379a000000000000000000000000000000000000000000000000000000000815260040161165f906149e8565b60405180910390fd5b6002600181905550611678612eb3565b61168260016127ad565b60008314156116bd576040517f92064cc900000000000000000000000000000000000000000000000000000000815260040160405180910390fd5b6116c683612f6c565b6116cf8361250e565b9050600081141561170c576040517f596231e700000000000000000000000000000000000000000000000000000000815260040160405180910390fd5b611717828483612fe8565b6001808190555092915050565b60025481565b7f7935bd0ae54bc31f548c14dba4d37c5c64b3f8ca900cb468fb8abd54d5894f5561175c816117576126ae565b6126b6565b816008819055505050565b7ffc8737ab85eb45125971625a9ebdb75cc78e01d5c1fa80c4c6e5203f47bc4fab81565b7ffc8737ab85eb45125971625a9ebdb75cc78e01d5c1fa80c4c6e5203f47bc4fab6117bd816117b86126ae565b6126b6565b61185f7f000000000000000000000000000000000000000000000000000000000000000073ffffffffffffffffffffffffffffffffffffffff166370a08231306040518263ffffffff1660e01b81526004016118199190614189565b602060405180830381865afa158015611836573d6000803e3d6000fd5b505050506040513d601f19601f8201168201806040525081019061185a91906144b1565b611c38565b50565b7f7935bd0ae54bc31f548c14dba4d37c5c64b3f8ca900cb468fb8abd54d5894f556118948161188f6126ae565b6126b6565b6118be7f83f1c4c0119299dc19d4102a0df1185e4605139e61947a2f1bf0978f284fc89183612b58565b5050565b600080600084815260200190815260200160002060000160008373ffffffffffffffffffffffffffffffffffffffff1673ffffffffffffffffffffffffffffffffffffffff16815260200190815260200160002060009054906101000a900460ff16905092915050565b600060026001541415611974576040517f08c379a000000000000000000000000000000000000000000000000000000000815260040161196b906149e8565b60405180910390fd5b6002600181905550611984612eb3565b61198e60016127ad565b60008314156119c9576040517f48bb68ad00000000000000000000000000000000000000000000000000000000815260040160405180910390fd5b6119d283611eab565b90506119dd81612f6c565b6119e8828285612fe8565b6001808190555092915050565b7ffc8737ab85eb45125971625a9ebdb75cc78e01d5c1fa80c4c6e5203f47bc4fab611a2781611a226126ae565b6126b6565b600960009054906101000a900473ffffffffffffffffffffffffffffffffffffffff1673ffffffffffffffffffffffffffffffffffffffff1673__$6467b484a77f4505c4d1bbe016e50944d4$__63d287b353909185856040518463ffffffff1660e01b8152600401611a9c93929190614a85565b602060405180830381865af4158015611ab9573d6000803e3d6000fd5b505050506040513d601f19601f82011682018060405250810190611add91906145d0565b503373ffffffffffffffffffffffffffffffffffffffff167f2dad9020fc3cab73927d1f0192936d8dcbceac42333d75509d99c2c941339ccf8484604051611b26929190614abc565b60405180910390a2505050565b6000801b81565b7f7935bd0ae54bc31f548c14dba4d37c5c64b3f8ca900cb468fb8abd54d5894f55611b6c81611b676126ae565b6126b6565b611b7660006127ad565b6000831480611b855750600082145b15611bbc576040517f3f39992a00000000000000000000000000000000000000000000000000000000815260040160405180910390fd5b82600381905550816002819055506001600760006101000a81548160ff02191690836002811115611bf057611bef61440a565b5b0217905550427f469dcd0c8170c8faf3678737ed5cc64107d6d30846f97438a0feefacbed00ec2600354600254604051611c2b929190614646565b60405180910390a2505050565b7ffc8737ab85eb45125971625a9ebdb75cc78e01d5c1fa80c4c6e5203f47bc4fab611c6a81611c656126ae565b6126b6565b600960009054906101000a900473ffffffffffffffffffffffffffffffffffffffff1673ffffffffffffffffffffffffffffffffffffffff1663a694fc3a836040518263ffffffff1660e01b8152600401611cc59190613e24565b600060405180830381600087803b158015611cdf57600080fd5b505af1158015611cf3573d6000803e3d6000fd5b505050503373ffffffffffffffffffffffffffffffffffffffff167febedb8b3c678666e7f36970bc8f57abf6d8fa2e828c0da91ea5b75bf68ed101a83604051611d3d9190613e24565b60405180910390a25050565b7f7935bd0ae54bc31f548c14dba4d37c5c64b3f8ca900cb468fb8abd54d5894f55611d7b81611d766126ae565b6126b6565b6001600660008473ffffffffffffffffffffffffffffffffffffffff1673ffffffffffffffffffffffffffffffffffffffff16815260200190815260200160002060006101000a81548160ff0219169083151502179055505050565b7f000000000000000000000000000000000000000000000000000000000000000081565b7f7935bd0ae54bc31f548c14dba4d37c5c64b3f8ca900cb468fb8abd54d5894f55611e2d81611e286126ae565b6126b6565b81600560006101000a81548160ff0219169083151502179055505050565b7f7935bd0ae54bc31f548c14dba4d37c5c64b3f8ca900cb468fb8abd54d5894f55611e7d81611e786126ae565b6126b6565b611ea77f83f1c4c0119299dc19d4102a0df1185e4605139e61947a2f1bf0978f284fc89183612a78565b5050565b600080600254905060008114611ed757611ed2600354828561277b9092919063ffffffff16565b611ed9565b825b915050919050565b600060026001541415611f29576040517f08c379a0000000000000000000000000000000000000000000000000000000008152600401611f20906149e8565b60405180910390fd5b6002600181905550611f3b60016127ad565b6000841415611f76576040517f92064cc900000000000000000000000000000000000000000000000000000000815260040160405180910390fd5b611f7f84610e5c565b9050611f8c838583613138565b600180819055509392505050565b60085481565b600060026001541415611fe8576040517f08c379a0000000000000000000000000000000000000000000000000000000008152600401611fdf906149e8565b60405180910390fd5b6002600181905550611ffa60016127ad565b6120038461138c565b90506000811415612040576040517f92064cc900000000000000000000000000000000000000000000000000000000815260040160405180910390fd5b61204b838286613138565b600180819055509392505050565b600560009054906101000a900460ff1681565b600760009054906101000a900460ff1681565b60007fffffffffffffffffffffffffffffffffffffffffffffffffffffffffffffffff9050919050565b7f83f1c4c0119299dc19d4102a0df1185e4605139e61947a2f1bf0978f284fc89181565b6000806002549050600081146120f9576120f481600354856127539092919063ffffffff16565b6120fb565b825b915050919050565b7f7935bd0ae54bc31f548c14dba4d37c5c64b3f8ca900cb468fb8abd54d5894f55612135816121306126ae565b6126b6565b61215f7ffc8737ab85eb45125971625a9ebdb75cc78e01d5c1fa80c4c6e5203f47bc4fab83612b58565b5050565b7f7935bd0ae54bc31f548c14dba4d37c5c64b3f8ca900cb468fb8abd54d5894f55612195816121906126ae565b6126b6565b600073ffffffffffffffffffffffffffffffffffffffff168273ffffffffffffffffffffffffffffffffffffffff1614156121fc576040517f5963709b00000000000000000000000000000000000000000000000000000000815260040160405180910390fd5b81600560016101000a81548173ffffffffffffffffffffffffffffffffffffffff021916908373ffffffffffffffffffffffffffffffffffffffff1602179055505050565b60006122e57f000000000000000000000000000000000000000000000000000000000000000073ffffffffffffffffffffffffffffffffffffffff166370a08231846040518263ffffffff1660e01b815260040161229f9190614189565b602060405180830381865afa1580156122bc573d6000803e3d6000fd5b505050506040513d601f19601f820116820180604052508101906122e091906144b1565b610e26565b9050919050565b6122f582610f70565b612306816123016126ae565b6126b6565b6123108383612b58565b505050565b60007f000000000000000000000000000000000000000000000000000000000000000073ffffffffffffffffffffffffffffffffffffffff166370a08231836040518263ffffffff1660e01b81526004016123709190614189565b602060405180830381865afa15801561238d573d6000803e3d6000fd5b505050506040513d601f19601f820116820180604052508101906123b191906144b1565b9050919050565b7f7935bd0ae54bc31f548c14dba4d37c5c64b3f8ca900cb468fb8abd54d5894f556123ea816123e56126ae565b6126b6565b6000600660008473ffffffffffffffffffffffffffffffffffffffff1673ffffffffffffffffffffffffffffffffffffffff16815260200190815260200160002060006101000a81548160ff0219169083151502179055505050565b7f83f1c4c0119299dc19d4102a0df1185e4605139e61947a2f1bf0978f284fc891612478816124736126ae565b6126b6565b61248260026127ad565b60008214156124bd576040517f92064cc900000000000000000000000000000000000000000000000000000000815260040160405180910390fd5b61250a3330847f000000000000000000000000000000000000000000000000000000000000000073ffffffffffffffffffffffffffffffffffffffff1661329d909392919063ffffffff16565b5050565b6000612519826120cd565b9050919050565b7f7935bd0ae54bc31f548c14dba4d37c5c64b3f8ca900cb468fb8abd54d5894f556125528161254d6126ae565b6126b6565b816004819055505050565b60006002808111156125725761257161440a565b5b600760009054906101000a900460ff1660028111156125945761259361440a565b5b14156125a4576003549050612641565b7f000000000000000000000000000000000000000000000000000000000000000073ffffffffffffffffffffffffffffffffffffffff166370a08231306040518263ffffffff1660e01b81526004016125fd9190614189565b602060405180830381865afa15801561261a573d6000803e3d6000fd5b505050506040513d601f19601f8201168201806040525081019061263e91906144b1565b90505b90565b60007f01ffc9a7000000000000000000000000000000000000000000000000000000007bffffffffffffffffffffffffffffffffffffffffffffffffffffffff1916827bffffffffffffffffffffffffffffffffffffffffffffffffffffffff1916149050919050565b600033905090565b6126c082826118c2565b61274f576126e58173ffffffffffffffffffffffffffffffffffffffff166014613326565b6126f38360001c6020613326565b604051602001612704929190614bf7565b6040516020818303038152906040526040517f08c379a00000000000000000000000000000000000000000000000000000000081526004016127469190614c6a565b60405180910390fd5b5050565b6000828402905082848204148415178215151661276f57600080fd5b81810490509392505050565b6000828402905082848204148415178215151661279757600080fd5b6001826001830304018115150290509392505050565b8060028111156127c0576127bf61440a565b5b600760009054906101000a900460ff1660028111156127e2576127e161440a565b5b146128355780600760009054906101000a900460ff166040517f1f19399100000000000000000000000000000000000000000000000000000000815260040161282c929190614c8c565b60405180910390fd5b50565b600854600b60009054906101000a900473ffffffffffffffffffffffffffffffffffffffff1673ffffffffffffffffffffffffffffffffffffffff166370a08231306040518263ffffffff1660e01b81526004016128969190614189565b602060405180830381865afa1580156128b3573d6000803e3d6000fd5b505050506040513d601f19601f820116820180604052508101906128d791906144b1565b1061290e576040517f48fa67b100000000000000000000000000000000000000000000000000000000815260040160405180910390fd5b612916613562565b565b60007f000000000000000000000000000000000000000000000000000000000000000073ffffffffffffffffffffffffffffffffffffffff166370a08231306040518263ffffffff1660e01b81526004016129739190614189565b602060405180830381865afa158015612990573d6000803e3d6000fd5b505050506040513d601f19601f820116820180604052508101906129b491906144b1565b90506000811115612a7557600960009054906101000a900473ffffffffffffffffffffffffffffffffffffffff1673ffffffffffffffffffffffffffffffffffffffff1673__$6467b484a77f4505c4d1bbe016e50944d4$__63516cc1b19091306040518363ffffffff1660e01b8152600401612a32929190614cc4565b602060405180830381865af4158015612a4f573d6000803e3d6000fd5b505050506040513d601f19601f82011682018060405250810190612a7391906145d0565b505b50565b612a8282826118c2565b612b5457600160008084815260200190815260200160002060000160008373ffffffffffffffffffffffffffffffffffffffff1673ffffffffffffffffffffffffffffffffffffffff16815260200190815260200160002060006101000a81548160ff021916908315150217905550612af96126ae565b73ffffffffffffffffffffffffffffffffffffffff168173ffffffffffffffffffffffffffffffffffffffff16837f2f8788117e7eff1d82e926ec794901d17c78024a50270940304540a733656f0d60405160405180910390a45b5050565b612b6282826118c2565b15612c3557600080600084815260200190815260200160002060000160008373ffffffffffffffffffffffffffffffffffffffff1673ffffffffffffffffffffffffffffffffffffffff16815260200190815260200160002060006101000a81548160ff021916908315150217905550612bda6126ae565b73ffffffffffffffffffffffffffffffffffffffff168173ffffffffffffffffffffffffffffffffffffffff16837ff6391f5c32d9c69d2a47ea670b442974b53935d1edc7fd64eb21e047a839171b60405160405180910390a45b5050565b6000600960009054906101000a900473ffffffffffffffffffffffffffffffffffffffff1673ffffffffffffffffffffffffffffffffffffffff166370a08231306040518263ffffffff1660e01b8152600401612c969190614189565b602060405180830381865afa158015612cb3573d6000803e3d6000fd5b505050506040513d601f19601f82011682018060405250810190612cd791906144b1565b1115612d9357600960009054906101000a900473ffffffffffffffffffffffffffffffffffffffff1673ffffffffffffffffffffffffffffffffffffffff1673__$6467b484a77f4505c4d1bbe016e50944d4$__630f975fae9091306040518363ffffffff1660e01b8152600401612d50929190614cc4565b602060405180830381865af4158015612d6d573d6000803e3d6000fd5b505050506040513d601f19601f82011682018060405250810190612d9191906145d0565b505b612d9b613574565b600960009054906101000a900473ffffffffffffffffffffffffffffffffffffffff1673ffffffffffffffffffffffffffffffffffffffff16631c4b774b60026040518263ffffffff1660e01b8152600401612df79190614d28565b600060405180830381600087803b158015612e1157600080fd5b505af1158015612e25573d6000803e3d6000fd5b50505050565b565b612eae8363a9059cbb60e01b8484604051602401612e4c929190614592565b604051602081830303815290604052907bffffffffffffffffffffffffffffffffffffffffffffffffffffffff19166020820180517bffffffffffffffffffffffffffffffffffffffffffffffffffffffff838183161783525050505061357e565b505050565b3273ffffffffffffffffffffffffffffffffffffffff163373ffffffffffffffffffffffffffffffffffffffff1614612f6a57600660003373ffffffffffffffffffffffffffffffffffffffff1673ffffffffffffffffffffffffffffffffffffffff16815260200190815260200160002060009054906101000a900460ff16612f69576040517f4911a61b00000000000000000000000000000000000000000000000000000000815260040160405180910390fd5b5b565b7fffffffffffffffffffffffffffffffffffffffffffffffffffffffffffffffff6004541015612fe55760045481612fa2610ad9565b612fac919061450d565b1115612fe4576040517f0de991a900000000000000000000000000000000000000000000000000000000815260040160405180910390fd5b5b50565b6130353330847f000000000000000000000000000000000000000000000000000000000000000073ffffffffffffffffffffffffffffffffffffffff1661329d909392919063ffffffff16565b7f000000000000000000000000000000000000000000000000000000000000000073ffffffffffffffffffffffffffffffffffffffff166340c10f1984836040518363ffffffff1660e01b8152600401613090929190614592565b600060405180830381600087803b1580156130aa57600080fd5b505af11580156130be573d6000803e3d6000fd5b505050508273ffffffffffffffffffffffffffffffffffffffff163373ffffffffffffffffffffffffffffffffffffffff167fdcbc1c05240f31ff3ad067ef1ee35ce4997762752e3a095284754544f4c709d78484604051613121929190614646565b60405180910390a36131338282613645565b505050565b61314282826137a7565b7f000000000000000000000000000000000000000000000000000000000000000073ffffffffffffffffffffffffffffffffffffffff166379cc679033836040518363ffffffff1660e01b815260040161319d929190614592565b600060405180830381600087803b1580156131b757600080fd5b505af11580156131cb573d6000803e3d6000fd5b505050503373ffffffffffffffffffffffffffffffffffffffff168373ffffffffffffffffffffffffffffffffffffffff163373ffffffffffffffffffffffffffffffffffffffff167ffbde797d201c681b91056529119e0b02407c7bb96a4a2c75c01fc9667232c8db8585604051613245929190614646565b60405180910390a461329883837f000000000000000000000000000000000000000000000000000000000000000073ffffffffffffffffffffffffffffffffffffffff16612e2d9092919063ffffffff16565b505050565b613320846323b872dd60e01b8585856040516024016132be93929190614d43565b604051602081830303815290604052907bffffffffffffffffffffffffffffffffffffffffffffffffffffffff19166020820180517bffffffffffffffffffffffffffffffffffffffffffffffffffffffff838183161783525050505061357e565b50505050565b6060600060028360026133399190614d7a565b613343919061450d565b67ffffffffffffffff81111561335c5761335b613f82565b5b6040519080825280601f01601f19166020018201604052801561338e5781602001600182028036833780820191505090505b5090507f3000000000000000000000000000000000000000000000000000000000000000816000815181106133c6576133c5614563565b5b60200101907effffffffffffffffffffffffffffffffffffffffffffffffffffffffffffff1916908160001a9053507f78000000000000000000000000000000000000000000000000000000000000008160018151811061342a57613429614563565b5b60200101907effffffffffffffffffffffffffffffffffffffffffffffffffffffffffffff1916908160001a9053506000600184600261346a9190614d7a565b613474919061450d565b90505b6001811115613514577f3031323334353637383961626364656600000000000000000000000000000000600f8616601081106134b6576134b5614563565b5b1a60f81b8282815181106134cd576134cc614563565b5b60200101907effffffffffffffffffffffffffffffffffffffffffffffffffffffffffffff1916908160001a905350600485901c94508061350d90614dd4565b9050613477565b5060008414613558576040517f08c379a000000000000000000000000000000000000000000000000000000000815260040161354f90614e4a565b60405180910390fd5b8091505092915050565b61356a61391c565b613572613ae0565b565b61357c613ae0565b565b60006135e0826040518060400160405280602081526020017f5361666545524332303a206c6f772d6c6576656c2063616c6c206661696c65648152508573ffffffffffffffffffffffffffffffffffffffff16613c559092919063ffffffff16565b9050600081511115613640578080602001905181019061360091906145d0565b61363f576040517f08c379a000000000000000000000000000000000000000000000000000000000815260040161363690614edc565b60405180910390fd5b5b505050565b60007f000000000000000000000000000000000000000000000000000000000000000073ffffffffffffffffffffffffffffffffffffffff166370a08231306040518263ffffffff1660e01b81526004016136a09190614189565b602060405180830381865afa1580156136bd573d6000803e3d6000fd5b505050506040513d601f19601f820116820180604052508101906136e191906144b1565b905060008111156137a257600960009054906101000a900473ffffffffffffffffffffffffffffffffffffffff1673ffffffffffffffffffffffffffffffffffffffff1673__$6467b484a77f4505c4d1bbe016e50944d4$__63516cc1b19091306040518363ffffffff1660e01b815260040161375f929190614cc4565b602060405180830381865af415801561377c573d6000803e3d6000fd5b505050506040513d601f19601f820116820180604052508101906137a091906145d0565b505b505050565b60007f000000000000000000000000000000000000000000000000000000000000000073ffffffffffffffffffffffffffffffffffffffff166370a08231306040518263ffffffff1660e01b81526004016138029190614189565b602060405180830381865afa15801561381f573d6000803e3d6000fd5b505050506040513d601f19601f8201168201806040525081019061384391906144b1565b905080831115613917576000818461385b9190614efc565b9050600960009054906101000a900473ffffffffffffffffffffffffffffffffffffffff1673ffffffffffffffffffffffffffffffffffffffff1673__$6467b484a77f4505c4d1bbe016e50944d4$__63d287b35390918360006040518463ffffffff1660e01b81526004016138d393929190614a85565b602060405180830381865af41580156138f0573d6000803e3d6000fd5b505050506040513d601f19601f8201168201806040525081019061391491906145d0565b50505b505050565b600560009054906101000a900460ff1615613ade5760007f000000000000000000000000000000000000000000000000000000000000000073ffffffffffffffffffffffffffffffffffffffff166370a08231306040518263ffffffff1660e01b815260040161398c9190614189565b602060405180830381865afa1580156139a9573d6000803e3d6000fd5b505050506040513d601f19601f820116820180604052508101906139cd91906144b1565b9050600354811115613a6057613a5f600560019054906101000a900473ffffffffffffffffffffffffffffffffffffffff16600560035484613a0f9190614efc565b613a199190614f5f565b7f000000000000000000000000000000000000000000000000000000000000000073ffffffffffffffffffffffffffffffffffffffff16612e2d9092919063ffffffff16565b5b613adc600560019054906101000a900473ffffffffffffffffffffffffffffffffffffffff16610258600354613a969190614f5f565b7f000000000000000000000000000000000000000000000000000000000000000073ffffffffffffffffffffffffffffffffffffffff16612e2d9092919063ffffffff16565b505b565b7f000000000000000000000000000000000000000000000000000000000000000073ffffffffffffffffffffffffffffffffffffffff166318160ddd6040518163ffffffff1660e01b8152600401602060405180830381865afa158015613b4b573d6000803e3d6000fd5b505050506040513d601f19601f82011682018060405250810190613b6f91906144b1565b6002819055507f000000000000000000000000000000000000000000000000000000000000000073ffffffffffffffffffffffffffffffffffffffff166370a08231306040518263ffffffff1660e01b8152600401613bce9190614189565b602060405180830381865afa158015613beb573d6000803e3d6000fd5b505050506040513d601f19601f82011682018060405250810190613c0f91906144b1565b600381905550427f4721c31db00d4c86f3effcb9b553c869ce768e138eaf7a09cea387ffb5d9da33600354600254604051613c4b929190614646565b60405180910390a2565b6060613c648484600085613c6d565b90509392505050565b606082471015613cb2576040517f08c379a0000000000000000000000000000000000000000000000000000000008152600401613ca990615002565b60405180910390fd5b613cbb85613d81565b613cfa576040517f08c379a0000000000000000000000000000000000000000000000000000000008152600401613cf19061506e565b60405180910390fd5b6000808673ffffffffffffffffffffffffffffffffffffffff168587604051613d2391906150d5565b60006040518083038185875af1925050503d8060008114613d60576040519150601f19603f3d011682016040523d82523d6000602084013e613d65565b606091505b5091509150613d75828286613da4565b92505050949350505050565b6000808273ffffffffffffffffffffffffffffffffffffffff163b119050919050565b60608315613db457829050613e04565b600083511115613dc75782518084602001fd5b816040517f08c379a0000000000000000000000000000000000000000000000000000000008152600401613dfb9190614c6a565b60405180910390fd5b9392505050565b6000819050919050565b613e1e81613e0b565b82525050565b6000602082019050613e396000830184613e15565b92915050565b6000604051905090565b600080fd5b600080fd5b60007fffffffff0000000000000000000000000000000000000000000000000000000082169050919050565b613e8881613e53565b8114613e9357600080fd5b50565b600081359050613ea581613e7f565b92915050565b600060208284031215613ec157613ec0613e49565b5b6000613ecf84828501613e96565b91505092915050565b60008115159050919050565b613eed81613ed8565b82525050565b6000602082019050613f086000830184613ee4565b92915050565b600073ffffffffffffffffffffffffffffffffffffffff82169050919050565b6000613f3982613f0e565b9050919050565b613f4981613f2e565b8114613f5457600080fd5b50565b600081359050613f6681613f40565b92915050565b600080fd5b6000601f19601f8301169050919050565b7f4e487b7100000000000000000000000000000000000000000000000000000000600052604160045260246000fd5b613fba82613f71565b810181811067ffffffffffffffff82111715613fd957613fd8613f82565b5b80604052505050565b6000613fec613e3f565b9050613ff88282613fb1565b919050565b600067ffffffffffffffff82111561401857614017613f82565b5b602082029050602081019050919050565b600080fd5b600061404161403c84613ffd565b613fe2565b9050808382526020820190506020840283018581111561406457614063614029565b5b835b8181101561408d57806140798882613f57565b845260208401935050602081019050614066565b5050509392505050565b600082601f8301126140ac576140ab613f6c565b5b81356140bc84826020860161402e565b91505092915050565b600080604083850312156140dc576140db613e49565b5b60006140ea85828601613f57565b925050602083013567ffffffffffffffff81111561410b5761410a613e4e565b5b61411785828601614097565b9150509250929050565b61412a81613e0b565b811461413557600080fd5b50565b60008135905061414781614121565b92915050565b60006020828403121561416357614162613e49565b5b600061417184828501614138565b91505092915050565b61418381613f2e565b82525050565b600060208201905061419e600083018461417a565b92915050565b6000819050919050565b6141b7816141a4565b81146141c257600080fd5b50565b6000813590506141d4816141ae565b92915050565b6000602082840312156141f0576141ef613e49565b5b60006141fe848285016141c5565b91505092915050565b614210816141a4565b82525050565b600060208201905061422b6000830184614207565b92915050565b60006020828403121561424757614246613e49565b5b600061425584828501613f57565b91505092915050565b6000806040838503121561427557614274613e49565b5b6000614283858286016141c5565b925050602061429485828601613f57565b9150509250929050565b600080604083850312156142b5576142b4613e49565b5b60006142c385828601614138565b92505060206142d485828601613f57565b9150509250929050565b6142e781613ed8565b81146142f257600080fd5b50565b600081359050614304816142de565b92915050565b6000806040838503121561432157614320613e49565b5b600061432f85828601614138565b9250506020614340858286016142f5565b9150509250929050565b6000806040838503121561436157614360613e49565b5b600061436f85828601614138565b925050602061438085828601614138565b9150509250929050565b6000602082840312156143a05761439f613e49565b5b60006143ae848285016142f5565b91505092915050565b6000806000606084860312156143d0576143cf613e49565b5b60006143de86828701614138565b93505060206143ef86828701613f57565b925050604061440086828701613f57565b9150509250925092565b7f4e487b7100000000000000000000000000000000000000000000000000000000600052602160045260246000fd5b6003811061444a5761444961440a565b5b50565b600081905061445b82614439565b919050565b600061446b8261444d565b9050919050565b61447b81614460565b82525050565b60006020820190506144966000830184614472565b92915050565b6000815190506144ab81614121565b92915050565b6000602082840312156144c7576144c6613e49565b5b60006144d58482850161449c565b91505092915050565b7f4e487b7100000000000000000000000000000000000000000000000000000000600052601160045260246000fd5b600061451882613e0b565b915061452383613e0b565b9250827fffffffffffffffffffffffffffffffffffffffffffffffffffffffffffffffff03821115614558576145576144de565b5b828201905092915050565b7f4e487b7100000000000000000000000000000000000000000000000000000000600052603260045260246000fd5b60006040820190506145a7600083018561417a565b6145b46020830184613e15565b9392505050565b6000815190506145ca816142de565b92915050565b6000602082840312156145e6576145e5613e49565b5b60006145f4848285016145bb565b91505092915050565b600061460882613e0b565b91507fffffffffffffffffffffffffffffffffffffffffffffffffffffffffffffffff82141561463b5761463a6144de565b5b600182019050919050565b600060408201905061465b6000830185613e15565b6146686020830184613e15565b9392505050565b600082825260208201905092915050565b7f416363657373436f6e74726f6c3a2063616e206f6e6c792072656e6f756e636560008201527f20726f6c657320666f722073656c660000000000000000000000000000000000602082015250565b60006146dc602f8361466f565b91506146e782614680565b604082019050919050565b6000602082019050818103600083015261470b816146cf565b9050919050565b600081549050919050565b600082825260208201905092915050565b60008190508160005260206000209050919050565b61474c81613f2e565b82525050565b600061475e8383614743565b60208301905092915050565b60008160001c9050919050565b600073ffffffffffffffffffffffffffffffffffffffff82169050919050565b60006147aa6147a58361476a565b614777565b9050919050565b60006147bd8254614797565b9050919050565b6000600182019050919050565b60006147dc82614712565b6147e6818561471d565b93506147f18361472e565b8060005b8381101561482957614806826147b1565b6148108882614752565b975061481b836147c4565b9250506001810190506147f5565b5085935050505092915050565b600060a08201905061484b6000830188613e15565b6148586020830187613e15565b818103604083015261486a81866147d1565b9050614879606083018561417a565b6148866080830184613e15565b9695505050505050565b600067ffffffffffffffff8211156148ab576148aa613f82565b5b602082029050602081019050919050565b60006148cf6148ca84614890565b613fe2565b905080838252602082019050602084028301858111156148f2576148f1614029565b5b835b8181101561491b5780614907888261449c565b8452602084019350506020810190506148f4565b5050509392505050565b600082601f83011261493a57614939613f6c565b5b815161494a8482602086016148bc565b91505092915050565b60006020828403121561496957614968613e49565b5b600082015167ffffffffffffffff81111561498757614986613e4e565b5b61499384828501614925565b91505092915050565b7f5265656e7472616e637947756172643a207265656e7472616e742063616c6c00600082015250565b60006149d2601f8361466f565b91506149dd8261499c565b602082019050919050565b60006020820190508181036000830152614a01816149c5565b9050919050565b6000819050919050565b6000614a2d614a28614a2384613f0e565b614a08565b613f0e565b9050919050565b6000614a3f82614a12565b9050919050565b6000614a5182614a34565b9050919050565b614a6181614a46565b82525050565b614a7081613e0b565b82525050565b614a7f81613ed8565b82525050565b6000606082019050614a9a6000830186614a58565b614aa76020830185614a67565b614ab46040830184614a76565b949350505050565b6000604082019050614ad16000830185613e15565b614ade6020830184613ee4565b9392505050565b600081905092915050565b7f416363657373436f6e74726f6c3a206163636f756e7420000000000000000000600082015250565b6000614b26601783614ae5565b9150614b3182614af0565b601782019050919050565b600081519050919050565b60005b83811015614b65578082015181840152602081019050614b4a565b83811115614b74576000848401525b50505050565b6000614b8582614b3c565b614b8f8185614ae5565b9350614b9f818560208601614b47565b80840191505092915050565b7f206973206d697373696e6720726f6c6520000000000000000000000000000000600082015250565b6000614be1601183614ae5565b9150614bec82614bab565b601182019050919050565b6000614c0282614b19565b9150614c0e8285614b7a565b9150614c1982614bd4565b9150614c258284614b7a565b91508190509392505050565b6000614c3c82614b3c565b614c46818561466f565b9350614c56818560208601614b47565b614c5f81613f71565b840191505092915050565b60006020820190508181036000830152614c848184614c31565b905092915050565b6000604082019050614ca16000830185614472565b614cae6020830184614472565b9392505050565b614cbe81613f2e565b82525050565b6000604082019050614cd96000830185614a58565b614ce66020830184614cb5565b9392505050565b6000819050919050565b6000614d12614d0d614d0884614ced565b614a08565b613e0b565b9050919050565b614d2281614cf7565b82525050565b6000602082019050614d3d6000830184614d19565b92915050565b6000606082019050614d58600083018661417a565b614d65602083018561417a565b614d726040830184613e15565b949350505050565b6000614d8582613e0b565b9150614d9083613e0b565b9250817fffffffffffffffffffffffffffffffffffffffffffffffffffffffffffffffff0483118215151615614dc957614dc86144de565b5b828202905092915050565b6000614ddf82613e0b565b91506000821415614df357614df26144de565b5b600182039050919050565b7f537472696e67733a20686578206c656e67746820696e73756666696369656e74600082015250565b6000614e3460208361466f565b9150614e3f82614dfe565b602082019050919050565b60006020820190508181036000830152614e6381614e27565b9050919050565b7f5361666545524332303a204552433230206f7065726174696f6e20646964206e60008201527f6f74207375636365656400000000000000000000000000000000000000000000602082015250565b6000614ec6602a8361466f565b9150614ed182614e6a565b604082019050919050565b60006020820190508181036000830152614ef581614eb9565b9050919050565b6000614f0782613e0b565b9150614f1283613e0b565b925082821015614f2557614f246144de565b5b828203905092915050565b7f4e487b7100000000000000000000000000000000000000000000000000000000600052601260045260246000fd5b6000614f6a82613e0b565b9150614f7583613e0b565b925082614f8557614f84614f30565b5b828204905092915050565b7f416464726573733a20696e73756666696369656e742062616c616e636520666f60008201527f722063616c6c0000000000000000000000000000000000000000000000000000602082015250565b6000614fec60268361466f565b9150614ff782614f90565b604082019050919050565b6000602082019050818103600083015261501b81614fdf565b9050919050565b7f416464726573733a2063616c6c20746f206e6f6e2d636f6e7472616374000000600082015250565b6000615058601d8361466f565b915061506382615022565b602082019050919050565b600060208201905081810360008301526150878161504b565b9050919050565b600081519050919050565b600081905092915050565b60006150af8261508e565b6150b98185615099565b93506150c9818560208601614b47565b80840191505092915050565b60006150e182846150a4565b91508190509291505056fea2646970667358221220541e9b868bdb5e3eb7e34fca581d670bdeb695beb7d246cfe289f52ce806f73d64736f6c634300080a0033",
  "linkReferences": {
    "contracts/VaultsV2/library/DopexFarmWrapper.sol": {
      "DopexFarmWrapper": [
        {
          "length": 20,
          "start": 10975
        },
        {
          "length": 20,
          "start": 14967
        },
        {
          "length": 20,
          "start": 15765
        },
        {
          "length": 20,
          "start": 18340
        },
        {
          "length": 20,
          "start": 18709
        }
      ]
    }
  },
  "deployedLinkReferences": {
    "contracts/VaultsV2/library/DopexFarmWrapper.sol": {
      "DopexFarmWrapper": [
        {
          "length": 20,
          "start": 6754
        },
        {
          "length": 20,
          "start": 10746
        },
        {
          "length": 20,
          "start": 11544
        },
        {
          "length": 20,
          "start": 14119
        },
        {
          "length": 20,
          "start": 14488
        }
      ]
    }
  }
}