{
  "_format": "hh-sol-artifact-1",
  "contractName": "SsovV3OptionsToken",
  "sourceName": "contracts/options-token/SsovV3OptionsToken.sol",
  "abi": [
    {
      "anonymous": false,
      "inputs": [
        {
          "indexed": true,
          "internalType": "address",
          "name": "owner",
          "type": "address"
        },
        {
          "indexed": true,
          "internalType": "address",
          "name": "spender",
          "type": "address"
        },
        {
          "indexed": false,
          "internalType": "uint256",
          "name": "value",
          "type": "uint256"
        }
      ],
      "name": "Approval",
      "type": "event"
    },
    {
      "anonymous": false,
      "inputs": [
        {
          "indexed": false,
          "internalType": "address",
          "name": "account",
          "type": "address"
        }
      ],
      "name": "Paused",
      "type": "event"
    },
    {
      "anonymous": false,
      "inputs": [
        {
          "indexed": true,
          "internalType": "bytes32",
          "name": "role",
          "type": "bytes32"
        },
        {
          "indexed": true,
          "internalType": "bytes32",
          "name": "previousAdminRole",
          "type": "bytes32"
        },
        {
          "indexed": true,
          "internalType": "bytes32",
          "name": "newAdminRole",
          "type": "bytes32"
        }
      ],
      "name": "RoleAdminChanged",
      "type": "event"
    },
    {
      "anonymous": false,
      "inputs": [
        {
          "indexed": true,
          "internalType": "bytes32",
          "name": "role",
          "type": "bytes32"
        },
        {
          "indexed": true,
          "internalType": "address",
          "name": "account",
          "type": "address"
        },
        {
          "indexed": true,
          "internalType": "address",
          "name": "sender",
          "type": "address"
        }
      ],
      "name": "RoleGranted",
      "type": "event"
    },
    {
      "anonymous": false,
      "inputs": [
        {
          "indexed": true,
          "internalType": "bytes32",
          "name": "role",
          "type": "bytes32"
        },
        {
          "indexed": true,
          "internalType": "address",
          "name": "account",
          "type": "address"
        },
        {
          "indexed": true,
          "internalType": "address",
          "name": "sender",
          "type": "address"
        }
      ],
      "name": "RoleRevoked",
      "type": "event"
    },
    {
      "anonymous": false,
      "inputs": [
        {
          "indexed": true,
          "internalType": "address",
          "name": "from",
          "type": "address"
        },
        {
          "indexed": true,
          "internalType": "address",
          "name": "to",
          "type": "address"
        },
        {
          "indexed": false,
          "internalType": "uint256",
          "name": "value",
          "type": "uint256"
        }
      ],
      "name": "Transfer",
      "type": "event"
    },
    {
      "anonymous": false,
      "inputs": [
        {
          "indexed": false,
          "internalType": "address",
          "name": "account",
          "type": "address"
        }
      ],
      "name": "Unpaused",
      "type": "event"
    },
    {
      "inputs": [],
      "name": "DEFAULT_ADMIN_ROLE",
      "outputs": [
        {
          "internalType": "bytes32",
          "name": "",
          "type": "bytes32"
        }
      ],
      "stateMutability": "view",
      "type": "function"
    },
    {
      "inputs": [],
      "name": "MINTER_ROLE",
      "outputs": [
        {
          "internalType": "bytes32",
          "name": "",
          "type": "bytes32"
        }
      ],
      "stateMutability": "view",
      "type": "function"
    },
    {
      "inputs": [],
      "name": "PAUSER_ROLE",
      "outputs": [
        {
          "internalType": "bytes32",
          "name": "",
          "type": "bytes32"
        }
      ],
      "stateMutability": "view",
      "type": "function"
    },
    {
      "inputs": [
        {
          "internalType": "address",
          "name": "owner",
          "type": "address"
        },
        {
          "internalType": "address",
          "name": "spender",
          "type": "address"
        }
      ],
      "name": "allowance",
      "outputs": [
        {
          "internalType": "uint256",
          "name": "",
          "type": "uint256"
        }
      ],
      "stateMutability": "view",
      "type": "function"
    },
    {
      "inputs": [
        {
          "internalType": "address",
          "name": "spender",
          "type": "address"
        },
        {
          "internalType": "uint256",
          "name": "amount",
          "type": "uint256"
        }
      ],
      "name": "approve",
      "outputs": [
        {
          "internalType": "bool",
          "name": "",
          "type": "bool"
        }
      ],
      "stateMutability": "nonpayable",
      "type": "function"
    },
    {
      "inputs": [
        {
          "internalType": "address",
          "name": "account",
          "type": "address"
        }
      ],
      "name": "balanceOf",
      "outputs": [
        {
          "internalType": "uint256",
          "name": "",
          "type": "uint256"
        }
      ],
      "stateMutability": "view",
      "type": "function"
    },
    {
      "inputs": [
        {
          "internalType": "uint256",
          "name": "amount",
          "type": "uint256"
        }
      ],
      "name": "burn",
      "outputs": [],
      "stateMutability": "nonpayable",
      "type": "function"
    },
    {
      "inputs": [
        {
          "internalType": "address",
          "name": "account",
          "type": "address"
        },
        {
          "internalType": "uint256",
          "name": "amount",
          "type": "uint256"
        }
      ],
      "name": "burnFrom",
      "outputs": [],
      "stateMutability": "nonpayable",
      "type": "function"
    },
    {
      "inputs": [],
      "name": "collateralSymbol",
      "outputs": [
        {
          "internalType": "string",
          "name": "",
          "type": "string"
        }
      ],
      "stateMutability": "view",
      "type": "function"
    },
    {
      "inputs": [],
      "name": "decimals",
      "outputs": [
        {
          "internalType": "uint8",
          "name": "",
          "type": "uint8"
        }
      ],
      "stateMutability": "view",
      "type": "function"
    },
    {
      "inputs": [
        {
          "internalType": "address",
          "name": "spender",
          "type": "address"
        },
        {
          "internalType": "uint256",
          "name": "subtractedValue",
          "type": "uint256"
        }
      ],
      "name": "decreaseAllowance",
      "outputs": [
        {
          "internalType": "bool",
          "name": "",
          "type": "bool"
        }
      ],
      "stateMutability": "nonpayable",
      "type": "function"
    },
    {
      "inputs": [],
      "name": "expiry",
      "outputs": [
        {
          "internalType": "uint256",
          "name": "",
          "type": "uint256"
        }
      ],
      "stateMutability": "view",
      "type": "function"
    },
    {
      "inputs": [
        {
          "internalType": "bytes32",
          "name": "role",
          "type": "bytes32"
        }
      ],
      "name": "getRoleAdmin",
      "outputs": [
        {
          "internalType": "bytes32",
          "name": "",
          "type": "bytes32"
        }
      ],
      "stateMutability": "view",
      "type": "function"
    },
    {
      "inputs": [
        {
          "internalType": "bytes32",
          "name": "role",
          "type": "bytes32"
        },
        {
          "internalType": "uint256",
          "name": "index",
          "type": "uint256"
        }
      ],
      "name": "getRoleMember",
      "outputs": [
        {
          "internalType": "address",
          "name": "",
          "type": "address"
        }
      ],
      "stateMutability": "view",
      "type": "function"
    },
    {
      "inputs": [
        {
          "internalType": "bytes32",
          "name": "role",
          "type": "bytes32"
        }
      ],
      "name": "getRoleMemberCount",
      "outputs": [
        {
          "internalType": "uint256",
          "name": "",
          "type": "uint256"
        }
      ],
      "stateMutability": "view",
      "type": "function"
    },
    {
      "inputs": [
        {
          "internalType": "bytes32",
          "name": "role",
          "type": "bytes32"
        },
        {
          "internalType": "address",
          "name": "account",
          "type": "address"
        }
      ],
      "name": "grantRole",
      "outputs": [],
      "stateMutability": "nonpayable",
      "type": "function"
    },
    {
      "inputs": [],
      "name": "hasExpired",
      "outputs": [
        {
          "internalType": "bool",
          "name": "",
          "type": "bool"
        }
      ],
      "stateMutability": "view",
      "type": "function"
    },
    {
      "inputs": [
        {
          "internalType": "bytes32",
          "name": "role",
          "type": "bytes32"
        },
        {
          "internalType": "address",
          "name": "account",
          "type": "address"
        }
      ],
      "name": "hasRole",
      "outputs": [
        {
          "internalType": "bool",
          "name": "",
          "type": "bool"
        }
      ],
      "stateMutability": "view",
      "type": "function"
    },
    {
      "inputs": [
        {
          "internalType": "address",
          "name": "spender",
          "type": "address"
        },
        {
          "internalType": "uint256",
          "name": "addedValue",
          "type": "uint256"
        }
      ],
      "name": "increaseAllowance",
      "outputs": [
        {
          "internalType": "bool",
          "name": "",
          "type": "bool"
        }
      ],
      "stateMutability": "nonpayable",
      "type": "function"
    },
    {
      "inputs": [
        {
          "internalType": "string",
          "name": "name",
          "type": "string"
        },
        {
          "internalType": "string",
          "name": "symbol",
          "type": "string"
        }
      ],
      "name": "initialize",
      "outputs": [],
      "stateMutability": "nonpayable",
      "type": "function"
    },
    {
      "inputs": [
        {
          "internalType": "address",
          "name": "_ssov",
          "type": "address"
        },
        {
          "internalType": "bool",
          "name": "_isPut",
          "type": "bool"
        },
        {
          "internalType": "uint256",
          "name": "_strike",
          "type": "uint256"
        },
        {
          "internalType": "uint256",
          "name": "_expiry",
          "type": "uint256"
        },
        {
          "internalType": "string",
          "name": "_underlyingSymbol",
          "type": "string"
        },
        {
          "internalType": "string",
          "name": "_collateralSymbol",
          "type": "string"
        },
        {
          "internalType": "string",
          "name": "_expirySymbol",
          "type": "string"
        }
      ],
      "name": "initialize",
      "outputs": [],
      "stateMutability": "nonpayable",
      "type": "function"
    },
    {
      "inputs": [],
      "name": "isPut",
      "outputs": [
        {
          "internalType": "bool",
          "name": "",
          "type": "bool"
        }
      ],
      "stateMutability": "view",
      "type": "function"
    },
    {
      "inputs": [
        {
          "internalType": "address",
          "name": "to",
          "type": "address"
        },
        {
          "internalType": "uint256",
          "name": "amount",
          "type": "uint256"
        }
      ],
      "name": "mint",
      "outputs": [],
      "stateMutability": "nonpayable",
      "type": "function"
    },
    {
      "inputs": [],
      "name": "name",
      "outputs": [
        {
          "internalType": "string",
          "name": "",
          "type": "string"
        }
      ],
      "stateMutability": "view",
      "type": "function"
    },
    {
      "inputs": [],
      "name": "optionValue",
      "outputs": [
        {
          "internalType": "uint256",
          "name": "",
          "type": "uint256"
        }
      ],
      "stateMutability": "view",
      "type": "function"
    },
    {
      "inputs": [],
      "name": "pause",
      "outputs": [],
      "stateMutability": "nonpayable",
      "type": "function"
    },
    {
      "inputs": [],
      "name": "paused",
      "outputs": [
        {
          "internalType": "bool",
          "name": "",
          "type": "bool"
        }
      ],
      "stateMutability": "view",
      "type": "function"
    },
    {
      "inputs": [
        {
          "internalType": "bytes32",
          "name": "role",
          "type": "bytes32"
        },
        {
          "internalType": "address",
          "name": "account",
          "type": "address"
        }
      ],
      "name": "renounceRole",
      "outputs": [],
      "stateMutability": "nonpayable",
      "type": "function"
    },
    {
      "inputs": [
        {
          "internalType": "bytes32",
          "name": "role",
          "type": "bytes32"
        },
        {
          "internalType": "address",
          "name": "account",
          "type": "address"
        }
      ],
      "name": "revokeRole",
      "outputs": [],
      "stateMutability": "nonpayable",
      "type": "function"
    },
    {
      "inputs": [],
      "name": "ssov",
      "outputs": [
        {
          "internalType": "address",
          "name": "",
          "type": "address"
        }
      ],
      "stateMutability": "view",
      "type": "function"
    },
    {
      "inputs": [],
      "name": "strike",
      "outputs": [
        {
          "internalType": "uint256",
          "name": "",
          "type": "uint256"
        }
      ],
      "stateMutability": "view",
      "type": "function"
    },
    {
      "inputs": [
        {
          "internalType": "bytes4",
          "name": "interfaceId",
          "type": "bytes4"
        }
      ],
      "name": "supportsInterface",
      "outputs": [
        {
          "internalType": "bool",
          "name": "",
          "type": "bool"
        }
      ],
      "stateMutability": "view",
      "type": "function"
    },
    {
      "inputs": [],
      "name": "symbol",
      "outputs": [
        {
          "internalType": "string",
          "name": "",
          "type": "string"
        }
      ],
      "stateMutability": "view",
      "type": "function"
    },
    {
      "inputs": [],
      "name": "totalSupply",
      "outputs": [
        {
          "internalType": "uint256",
          "name": "",
          "type": "uint256"
        }
      ],
      "stateMutability": "view",
      "type": "function"
    },
    {
      "inputs": [
        {
          "internalType": "address",
          "name": "to",
          "type": "address"
        },
        {
          "internalType": "uint256",
          "name": "amount",
          "type": "uint256"
        }
      ],
      "name": "transfer",
      "outputs": [
        {
          "internalType": "bool",
          "name": "",
          "type": "bool"
        }
      ],
      "stateMutability": "nonpayable",
      "type": "function"
    },
    {
      "inputs": [
        {
          "internalType": "address",
          "name": "from",
          "type": "address"
        },
        {
          "internalType": "address",
          "name": "to",
          "type": "address"
        },
        {
          "internalType": "uint256",
          "name": "amount",
          "type": "uint256"
        }
      ],
      "name": "transferFrom",
      "outputs": [
        {
          "internalType": "bool",
          "name": "",
          "type": "bool"
        }
      ],
      "stateMutability": "nonpayable",
      "type": "function"
    },
    {
      "inputs": [],
      "name": "underlyingSymbol",
      "outputs": [
        {
          "internalType": "string",
          "name": "",
          "type": "string"
        }
      ],
      "stateMutability": "view",
      "type": "function"
    },
    {
      "inputs": [],
      "name": "unpause",
      "outputs": [],
      "stateMutability": "nonpayable",
      "type": "function"
    }
  ],
  "bytecode": "0x608060405234801561001057600080fd5b50612388806100206000396000f3fe608060405234801561001057600080fd5b50600436106102325760003560e01c80638456cb5911610130578063bf911794116100b8578063d90a730e1161007c578063d90a730e146104b8578063dd62ed3e146104c0578063e184c9be146104f9578063e63ab1e914610503578063f3c274a61461051857600080fd5b8063bf9117941461045b578063c1e7a5cb14610463578063ca15c8731461046b578063d53913931461047e578063d547741f146104a557600080fd5b806395d89b41116100ff57806395d89b411461041b578063a217fddf14610423578063a457c2d71461042b578063a9059cbb1461043e578063ad8f50081461045157600080fd5b80638456cb59146103e15780639010d07c146103e957806390e64d13146103fc57806391d148541461040857600080fd5b806339509351116101be5780635c975abb116101825780635c975abb1461035a5780635edabd8b1461036657806370a082311461037957806379cc6790146103a25780638355fc54146103b557600080fd5b806339509351146103065780633f4ba83a1461031957806340c10f191461032157806342966c68146103345780634cd88b761461034757600080fd5b806323b872dd1161020557806323b872dd14610299578063248a9ca3146102ac5780632f2ff15d146102cf578063313ce567146102e457806336568abe146102f357600080fd5b806301ffc9a71461023757806306fdde031461025f578063095ea7b31461027457806318160ddd14610287575b600080fd5b61024a610245366004611d6d565b610526565b60405190151581526020015b60405180910390f35b610267610551565b6040516102569190611dc3565b61024a610282366004611e12565b6105e3565b60cb545b604051908152602001610256565b61024a6102a7366004611e3c565b6105fb565b61028b6102ba366004611e78565b60009081526065602052604090206001015490565b6102e26102dd366004611e91565b61061f565b005b60405160128152602001610256565b6102e2610301366004611e91565b61064a565b61024a610314366004611e12565b6106cd565b6102e261070c565b6102e261032f366004611e12565b6107a0565b6102e2610342366004611e78565b61083f565b6102e2610355366004611f60565b61084c565b61012d5460ff1661024a565b6102e2610374366004611fc4565b610910565b61028b610387366004612088565b6001600160a01b0316600090815260c9602052604090205490565b6102e26103b0366004611e12565b610adc565b6101c6546103c9906001600160a01b031681565b6040516001600160a01b039091168152602001610256565b6102e2610af1565b6103c96103f73660046120a3565b610b83565b6101c55442101561024a565b61024a610416366004611e91565b610ba2565b610267610bcd565b61028b600081565b61024a610439366004611e12565b610bdc565b61024a61044c366004611e12565b610c6e565b61028b6101c45481565b610267610c7c565b61028b610d0b565b61028b610479366004611e78565b610daa565b61028b7f9f2df0fed2c77648de5860a4cc508cd0818c85b8b8a1ab4ceeef8d981c8956a681565b6102e26104b3366004611e91565b610dc1565b610267610de7565b61028b6104ce3660046120c5565b6001600160a01b03918216600090815260ca6020908152604080832093909416825291909152205490565b61028b6101c55481565b61028b60008051602061233383398151915281565b6101c35461024a9060ff1681565b60006001600160e01b03198216635a05180f60e01b148061054b575061054b82610df5565b92915050565b606060cc8054610560906120ef565b80601f016020809104026020016040519081016040528092919081815260200182805461058c906120ef565b80156105d95780601f106105ae576101008083540402835291602001916105d9565b820191906000526020600020905b8154815290600101906020018083116105bc57829003601f168201915b5050505050905090565b6000336105f1818585610e2a565b5060019392505050565b600033610609858285610f4e565b610614858585610fe0565b506001949350505050565b60008281526065602052604090206001015461063b81336111b9565b610645838361121d565b505050565b6001600160a01b03811633146106bf5760405162461bcd60e51b815260206004820152602f60248201527f416363657373436f6e74726f6c3a2063616e206f6e6c792072656e6f756e636560448201526e103937b632b9903337b91039b2b63360891b60648201526084015b60405180910390fd5b6106c9828261123f565b5050565b33600081815260ca602090815260408083206001600160a01b03871684529091528120549091906105f19082908690610707908790612140565b610e2a565b61072460008051602061233383398151915233610ba2565b6107965760405162461bcd60e51b815260206004820152603960248201527f45524332305072657365744d696e7465725061757365723a206d75737420686160448201527f76652070617573657220726f6c6520746f20756e70617573650000000000000060648201526084016106b6565b61079e611261565b565b6107ca7f9f2df0fed2c77648de5860a4cc508cd0818c85b8b8a1ab4ceeef8d981c8956a633610ba2565b6108355760405162461bcd60e51b815260206004820152603660248201527f45524332305072657365744d696e7465725061757365723a206d7573742068616044820152751d99481b5a5b9d195c881c9bdb19481d1bc81b5a5b9d60521b60648201526084016106b6565b6106c982826112f6565b61084933826113e1565b50565b600054610100900460ff166108675760005460ff161561086b565b303b155b6108ce5760405162461bcd60e51b815260206004820152602e60248201527f496e697469616c697a61626c653a20636f6e747261637420697320616c72656160448201526d191e481a5b9a5d1a585b1a5e995960921b60648201526084016106b6565b600054610100900460ff161580156108f0576000805461ffff19166101011790555b6108fa838361153b565b8015610645576000805461ff0019169055505050565b83421061095f5760405162461bcd60e51b815260206004820181905260248201527f43616e2774206465706c6f7920616e206578706972656420636f6e747261637460448201526064016106b6565b6101c680546001600160a01b0319166001600160a01b038916179055825161098f906101c7906020860190611cd4565b5081516109a4906101c8906020850190611cd4565b506101c3805460ff19168715151790556101c48590556101c58490556040805180820190915260018152602d60f81b60208201526000906109e690859061157e565b90506109f2818361157e565b9050610a1781604051806040016040528060018152602001602d60f81b81525061157e565b9050610a3d81610a386305f5e1006101c454610a33919061216e565b6115aa565b61157e565b6101c354909150610a9190829060ff16610a7157604051806040016040528060028152602001612d4360f01b81525061157e565b6040518060400160405280600281526020016102d560f41b81525061157e565b9050610ad26040518060400160405280601b81526020017f446f7065782053534f56205633204f7074696f6e7320546f6b656e00000000008152508261084c565b5050505050505050565b610ae7823383610f4e565b6106c982826113e1565b610b0960008051602061233383398151915233610ba2565b610b7b5760405162461bcd60e51b815260206004820152603760248201527f45524332305072657365744d696e7465725061757365723a206d75737420686160448201527f76652070617573657220726f6c6520746f20706175736500000000000000000060648201526084016106b6565b61079e6116b0565b6000828152609760205260408120610b9b908361172d565b9392505050565b60009182526065602090815260408084206001600160a01b0393909316845291905290205460ff1690565b606060cd8054610560906120ef565b33600081815260ca602090815260408083206001600160a01b038716845290915281205490919083811015610c615760405162461bcd60e51b815260206004820152602560248201527f45524332303a2064656372656173656420616c6c6f77616e63652062656c6f77604482015264207a65726f60d81b60648201526084016106b6565b6106148286868403610e2a565b6000336105f1818585610fe0565b6101c88054610c8a906120ef565b80601f0160208091040260200160405190810160405280929190818152602001828054610cb6906120ef565b8015610d035780601f10610cd857610100808354040283529160200191610d03565b820191906000526020600020905b815481529060010190602001808311610ce657829003601f168201915b505050505081565b6101c6546101c4546101c55460405163055bc75d60e21b81526004810192909252670de0b6b3a7640000602483015260448201526000916001600160a01b03169063156f1d749060640160206040518083038186803b158015610d6d57600080fd5b505afa158015610d81573d6000803e3d6000fd5b505050506040513d601f19601f82011682018060405250810190610da59190612182565b905090565b600081815260976020526040812061054b90611739565b600082815260656020526040902060010154610ddd81336111b9565b610645838361123f565b6101c78054610c8a906120ef565b60006001600160e01b03198216637965db0b60e01b148061054b57506301ffc9a760e01b6001600160e01b031983161461054b565b6001600160a01b038316610e8c5760405162461bcd60e51b8152602060048201526024808201527f45524332303a20617070726f76652066726f6d20746865207a65726f206164646044820152637265737360e01b60648201526084016106b6565b6001600160a01b038216610eed5760405162461bcd60e51b815260206004820152602260248201527f45524332303a20617070726f766520746f20746865207a65726f206164647265604482015261737360f01b60648201526084016106b6565b6001600160a01b03838116600081815260ca602090815260408083209487168084529482529182902085905590518481527f8c5be1e5ebec7d5bd14f71427d1e84f3dd0314c0f7b2291e5b200ac8c7c3b925910160405180910390a3505050565b6001600160a01b03838116600090815260ca60209081526040808320938616835292905220546000198114610fda5781811015610fcd5760405162461bcd60e51b815260206004820152601d60248201527f45524332303a20696e73756666696369656e7420616c6c6f77616e636500000060448201526064016106b6565b610fda8484848403610e2a565b50505050565b6001600160a01b0383166110445760405162461bcd60e51b815260206004820152602560248201527f45524332303a207472616e736665722066726f6d20746865207a65726f206164604482015264647265737360d81b60648201526084016106b6565b6001600160a01b0382166110a65760405162461bcd60e51b815260206004820152602360248201527f45524332303a207472616e7366657220746f20746865207a65726f206164647260448201526265737360e81b60648201526084016106b6565b6110b1838383611743565b6001600160a01b038316600090815260c96020526040902054818110156111295760405162461bcd60e51b815260206004820152602660248201527f45524332303a207472616e7366657220616d6f756e7420657863656564732062604482015265616c616e636560d01b60648201526084016106b6565b6001600160a01b03808516600090815260c96020526040808220858503905591851681529081208054849290611160908490612140565b92505081905550826001600160a01b0316846001600160a01b03167fddf252ad1be2c89b69c2b068fc378daa952ba7f163c4a11628f55a4df523b3ef846040516111ac91815260200190565b60405180910390a3610fda565b6111c38282610ba2565b6106c9576111db816001600160a01b0316601461174e565b6111e683602061174e565b6040516020016111f792919061219b565b60408051601f198184030181529082905262461bcd60e51b82526106b691600401611dc3565b61122782826118ea565b60008281526097602052604090206106459082611970565b6112498282611985565b600082815260976020526040902061064590826119ec565b61012d5460ff166112ab5760405162461bcd60e51b815260206004820152601460248201527314185d5cd8589b194e881b9bdd081c185d5cd95960621b60448201526064016106b6565b61012d805460ff191690557f5db9ee0a495bf2e6ff9c91a7834c1ba4fdd244a5e8aa4e537bd38aeae4b073aa335b6040516001600160a01b03909116815260200160405180910390a1565b6001600160a01b03821661134c5760405162461bcd60e51b815260206004820152601f60248201527f45524332303a206d696e7420746f20746865207a65726f20616464726573730060448201526064016106b6565b61135860008383611743565b8060cb600082825461136a9190612140565b90915550506001600160a01b038216600090815260c9602052604081208054839290611397908490612140565b90915550506040518181526001600160a01b038316906000907fddf252ad1be2c89b69c2b068fc378daa952ba7f163c4a11628f55a4df523b3ef9060200160405180910390a35050565b6001600160a01b0382166114415760405162461bcd60e51b815260206004820152602160248201527f45524332303a206275726e2066726f6d20746865207a65726f206164647265736044820152607360f81b60648201526084016106b6565b61144d82600083611743565b6001600160a01b038216600090815260c96020526040902054818110156114c15760405162461bcd60e51b815260206004820152602260248201527f45524332303a206275726e20616d6f756e7420657863656564732062616c616e604482015261636560f01b60648201526084016106b6565b6001600160a01b038316600090815260c960205260408120838303905560cb80548492906114f0908490612210565b90915550506040518281526000906001600160a01b038516907fddf252ad1be2c89b69c2b068fc378daa952ba7f163c4a11628f55a4df523b3ef9060200160405180910390a3505050565b600054610100900460ff166115625760405162461bcd60e51b81526004016106b690612227565b61156c8282611a01565b611574611a4f565b6106c98282611a83565b60608282604051602001611593929190612272565b604051602081830303815290604052905092915050565b6060816115ce5750506040805180820190915260018152600360fc1b602082015290565b8160005b81156115f857806115e2816122a1565b91506115f19050600a8361216e565b91506115d2565b60008167ffffffffffffffff81111561161357611613611ebd565b6040519080825280601f01601f19166020018201604052801561163d576020820181803683370190505b5090505b84156116a857611652600183612210565b915061165f600a866122bc565b61166a906030612140565b60f81b81838151811061167f5761167f6122d0565b60200101906001600160f81b031916908160001a9053506116a1600a8661216e565b9450611641565b949350505050565b61012d5460ff16156116f75760405162461bcd60e51b815260206004820152601060248201526f14185d5cd8589b194e881c185d5cd95960821b60448201526064016106b6565b61012d805460ff191660011790557f62e78cea01bee320cd4e420270b5ea74000d11b0c9f74754ebdbfc544b05a2586112d93390565b6000610b9b8383611af7565b600061054b825490565b610645838383611b21565b6060600061175d8360026122e6565b611768906002612140565b67ffffffffffffffff81111561178057611780611ebd565b6040519080825280601f01601f1916602001820160405280156117aa576020820181803683370190505b509050600360fc1b816000815181106117c5576117c56122d0565b60200101906001600160f81b031916908160001a905350600f60fb1b816001815181106117f4576117f46122d0565b60200101906001600160f81b031916908160001a90535060006118188460026122e6565b611823906001612140565b90505b600181111561189b576f181899199a1a9b1b9c1cb0b131b232b360811b85600f1660108110611857576118576122d0565b1a60f81b82828151811061186d5761186d6122d0565b60200101906001600160f81b031916908160001a90535060049490941c9361189481612305565b9050611826565b508315610b9b5760405162461bcd60e51b815260206004820181905260248201527f537472696e67733a20686578206c656e67746820696e73756666696369656e7460448201526064016106b6565b6118f48282610ba2565b6106c95760008281526065602090815260408083206001600160a01b03851684529091529020805460ff1916600117905561192c3390565b6001600160a01b0316816001600160a01b0316837f2f8788117e7eff1d82e926ec794901d17c78024a50270940304540a733656f0d60405160405180910390a45050565b6000610b9b836001600160a01b038416611b88565b61198f8282610ba2565b156106c95760008281526065602090815260408083206001600160a01b0385168085529252808320805460ff1916905551339285917ff6391f5c32d9c69d2a47ea670b442974b53935d1edc7fd64eb21e047a839171b9190a45050565b6000610b9b836001600160a01b038416611bd7565b600054610100900460ff16611a285760405162461bcd60e51b81526004016106b690612227565b8151611a3b9060cc906020850190611cd4565b5080516106459060cd906020840190611cd4565b600054610100900460ff16611a765760405162461bcd60e51b81526004016106b690612227565b61012d805460ff19169055565b600054610100900460ff16611aaa5760405162461bcd60e51b81526004016106b690612227565b611ab5600033611cca565b611adf7f9f2df0fed2c77648de5860a4cc508cd0818c85b8b8a1ab4ceeef8d981c8956a633611cca565b6106c960008051602061233383398151915233611cca565b6000826000018281548110611b0e57611b0e6122d0565b9060005260206000200154905092915050565b61012d5460ff16156106455760405162461bcd60e51b815260206004820152602a60248201527f45524332305061757361626c653a20746f6b656e207472616e736665722077686044820152691a5b19481c185d5cd95960b21b60648201526084016106b6565b6000818152600183016020526040812054611bcf5750815460018181018455600084815260208082209093018490558454848252828601909352604090209190915561054b565b50600061054b565b60008181526001830160205260408120548015611cc0576000611bfb600183612210565b8554909150600090611c0f90600190612210565b9050818114611c74576000866000018281548110611c2f57611c2f6122d0565b9060005260206000200154905080876000018481548110611c5257611c526122d0565b6000918252602080832090910192909255918252600188019052604090208390555b8554869080611c8557611c8561231c565b60019003818190600052602060002001600090559055856001016000868152602001908152602001600020600090556001935050505061054b565b600091505061054b565b6106c9828261121d565b828054611ce0906120ef565b90600052602060002090601f016020900481019282611d025760008555611d48565b82601f10611d1b57805160ff1916838001178555611d48565b82800160010185558215611d48579182015b82811115611d48578251825591602001919060010190611d2d565b50611d54929150611d58565b5090565b5b80821115611d545760008155600101611d59565b600060208284031215611d7f57600080fd5b81356001600160e01b031981168114610b9b57600080fd5b60005b83811015611db2578181015183820152602001611d9a565b83811115610fda5750506000910152565b6020815260008251806020840152611de2816040850160208701611d97565b601f01601f19169190910160400192915050565b80356001600160a01b0381168114611e0d57600080fd5b919050565b60008060408385031215611e2557600080fd5b611e2e83611df6565b946020939093013593505050565b600080600060608486031215611e5157600080fd5b611e5a84611df6565b9250611e6860208501611df6565b9150604084013590509250925092565b600060208284031215611e8a57600080fd5b5035919050565b60008060408385031215611ea457600080fd5b82359150611eb460208401611df6565b90509250929050565b634e487b7160e01b600052604160045260246000fd5b600082601f830112611ee457600080fd5b813567ffffffffffffffff80821115611eff57611eff611ebd565b604051601f8301601f19908116603f01168101908282118183101715611f2757611f27611ebd565b81604052838152866020858801011115611f4057600080fd5b836020870160208301376000602085830101528094505050505092915050565b60008060408385031215611f7357600080fd5b823567ffffffffffffffff80821115611f8b57600080fd5b611f9786838701611ed3565b93506020850135915080821115611fad57600080fd5b50611fba85828601611ed3565b9150509250929050565b600080600080600080600060e0888a031215611fdf57600080fd5b611fe888611df6565b965060208801358015158114611ffd57600080fd5b95506040880135945060608801359350608088013567ffffffffffffffff8082111561202857600080fd5b6120348b838c01611ed3565b945060a08a013591508082111561204a57600080fd5b6120568b838c01611ed3565b935060c08a013591508082111561206c57600080fd5b506120798a828b01611ed3565b91505092959891949750929550565b60006020828403121561209a57600080fd5b610b9b82611df6565b600080604083850312156120b657600080fd5b50508035926020909101359150565b600080604083850312156120d857600080fd5b6120e183611df6565b9150611eb460208401611df6565b600181811c9082168061210357607f821691505b6020821081141561212457634e487b7160e01b600052602260045260246000fd5b50919050565b634e487b7160e01b600052601160045260246000fd5b600082198211156121535761215361212a565b500190565b634e487b7160e01b600052601260045260246000fd5b60008261217d5761217d612158565b500490565b60006020828403121561219457600080fd5b5051919050565b7f416363657373436f6e74726f6c3a206163636f756e74200000000000000000008152600083516121d3816017850160208801611d97565b7001034b99036b4b9b9b4b733903937b6329607d1b6017918401918201528351612204816028840160208801611d97565b01602801949350505050565b6000828210156122225761222261212a565b500390565b6020808252602b908201527f496e697469616c697a61626c653a20636f6e7472616374206973206e6f74206960408201526a6e697469616c697a696e6760a81b606082015260800190565b60008351612284818460208801611d97565b835190830190612298818360208801611d97565b01949350505050565b60006000198214156122b5576122b561212a565b5060010190565b6000826122cb576122cb612158565b500690565b634e487b7160e01b600052603260045260246000fd5b60008160001904831182151516156123005761230061212a565b500290565b6000816123145761231461212a565b506000190190565b634e487b7160e01b600052603160045260246000fdfe65d7a28e3265b37a6474929f336521b332c1681b933f6cb9f3376673440d862aa26469706673582212208cd6c912b7901c9e1c6355911d7436dffaeb362775b9862db0d4377a3bba106d64736f6c63430008090033",
  "linkReferences": {},
  "deployedLinkReferences": {}
}